{
  "_format": "hh-sol-artifact-1",
  "contractName": "EnergyValidation",
  "sourceName": "contracts/EnergyValidation.sol",
  "abi": [
    {
      "inputs": [
        {
          "internalType": "address",
          "name": "_chargingrequest",
          "type": "address"
        }
      ],
      "stateMutability": "nonpayable",
      "type": "constructor"
    },
    {
      "anonymous": false,
      "inputs": [
        {
          "indexed": false,
          "internalType": "uint256",
          "name": "_requestid",
          "type": "uint256"
        },
        {
          "indexed": false,
          "internalType": "uint256",
          "name": "energydelivered",
          "type": "uint256"
        }
      ],
      "name": "chargingcompleted",
      "type": "event"
    },
    {
      "anonymous": false,
      "inputs": [
        {
          "indexed": false,
          "internalType": "uint256",
          "name": "_requestid",
          "type": "uint256"
        }
      ],
      "name": "chargingstarted",
      "type": "event"
    },
    {
      "inputs": [
        {
          "internalType": "uint256",
          "name": "",
          "type": "uint256"
        }
      ],
      "name": "_Session",
      "outputs": [
        {
          "internalType": "bool",
          "name": "start",
          "type": "bool"
        },
        {
          "internalType": "bool",
          "name": "completed",
          "type": "bool"
        },
        {
          "internalType": "uint256",
          "name": "energydelivered",
          "type": "uint256"
        }
      ],
      "stateMutability": "view",
      "type": "function"
    },
    {
      "inputs": [],
      "name": "charging",
      "outputs": [
        {
          "internalType": "contract IChargingRequest",
          "name": "",
          "type": "address"
        }
      ],
      "stateMutability": "view",
      "type": "function"
    },
    {
      "inputs": [
        {
          "internalType": "uint256",
          "name": "_requestedid",
          "type": "uint256"
        },
        {
          "internalType": "uint256",
          "name": "_energydelivered",
          "type": "uint256"
        }
      ],
      "name": "completed",
      "outputs": [],
      "stateMutability": "nonpayable",
      "type": "function"
    },
    {
      "inputs": [
        {
          "internalType": "uint256",
          "name": "_requestedid",
          "type": "uint256"
        }
      ],
      "name": "getdeliveredenergy",
      "outputs": [
        {
          "internalType": "uint256",
          "name": "",
          "type": "uint256"
        }
      ],
      "stateMutability": "view",
      "type": "function"
    },
    {
      "inputs": [
        {
          "internalType": "uint256",
          "name": "_requestedid",
          "type": "uint256"
        }
      ],
      "name": "iscompleted",
      "outputs": [
        {
          "internalType": "bool",
          "name": "",
          "type": "bool"
        }
      ],
      "stateMutability": "view",
      "type": "function"
    },
    {
      "inputs": [
        {
          "internalType": "uint256",
          "name": "_requestid",
          "type": "uint256"
        }
      ],
      "name": "started",
      "outputs": [],
      "stateMutability": "nonpayable",
      "type": "function"
    },
    {
      "inputs": [],
      "name": "validator",
      "outputs": [
        {
          "internalType": "address",
          "name": "",
          "type": "address"
        }
      ],
      "stateMutability": "view",
      "type": "function"
    }
  ],
  "bytecode": "0x608060405234801561001057600080fd5b5060405161100f38038061100f8339818101604052810190610032919061011c565b336000806101000a81548173ffffffffffffffffffffffffffffffffffffffff021916908373ffffffffffffffffffffffffffffffffffffffff16021790555080600160006101000a81548173ffffffffffffffffffffffffffffffffffffffff021916908373ffffffffffffffffffffffffffffffffffffffff16021790555050610149565b600080fd5b600073ffffffffffffffffffffffffffffffffffffffff82169050919050565b60006100e9826100be565b9050919050565b6100f9816100de565b811461010457600080fd5b50565b600081519050610116816100f0565b92915050565b600060208284031215610132576101316100b9565b5b600061014084828501610107565b91505092915050565b610eb7806101586000396000f3fe608060405234801561001057600080fd5b506004361061007d5760003560e01c80633a5381b51161005b5780633a5381b514610100578063ae9ee6421461011e578063b819e0db1461014e578063cae004371461016c5761007d565b80630ee65b50146100825780630fb0687f146100b45780631f89ef13146100e4575b600080fd5b61009c60048036038101906100979190610721565b610188565b6040516100ab93929190610778565b60405180910390f35b6100ce60048036038101906100c99190610721565b6101cc565b6040516100db91906107af565b60405180910390f35b6100fe60048036038101906100f99190610721565b6101f9565b005b610108610401565b604051610115919061080b565b60405180910390f35b61013860048036038101906101339190610721565b610425565b6040516101459190610826565b60405180910390f35b610156610445565b60405161016391906108a0565b60405180910390f35b610186600480360381019061018191906108bb565b61046b565b005b60026020528060005260406000206000915090508060000160009054906101000a900460ff16908060000160019054906101000a900460ff16908060010154905083565b60006002600083815260200190815260200160002060000160019054906101000a900460ff169050919050565b60008054906101000a900473ffffffffffffffffffffffffffffffffffffffff1673ffffffffffffffffffffffffffffffffffffffff163373ffffffffffffffffffffffffffffffffffffffff1614610287576040517f08c379a000000000000000000000000000000000000000000000000000000000815260040161027e90610958565b60405180910390fd5b6000600160009054906101000a900473ffffffffffffffffffffffffffffffffffffffff1673ffffffffffffffffffffffffffffffffffffffff1663c58343ef836040518263ffffffff1660e01b81526004016102e49190610826565b600060405180830381865afa158015610301573d6000803e3d6000fd5b505050506040513d6000823e3d601f19601f8201168201806040525081019061032a9190610c05565b9050600160038111156103405761033f610c4e565b5b8160a00151600381111561035757610356610c4e565b5b14610397576040517f08c379a000000000000000000000000000000000000000000000000000000000815260040161038e90610cef565b60405180910390fd5b60016002600084815260200190815260200160002060000160006101000a81548160ff0219169083151502179055507f66d10747f3cf4c5dbbb9aa1577c13deddbcff11c1d8fa6f0a459bdd1c26a9832826040516103f59190610826565b60405180910390a15050565b60008054906101000a900473ffffffffffffffffffffffffffffffffffffffff1681565b600060026000838152602001908152602001600020600101549050919050565b600160009054906101000a900473ffffffffffffffffffffffffffffffffffffffff1681565b60008054906101000a900473ffffffffffffffffffffffffffffffffffffffff1673ffffffffffffffffffffffffffffffffffffffff163373ffffffffffffffffffffffffffffffffffffffff16146104f9576040517f08c379a00000000000000000000000000000000000000000000000000000000081526004016104f090610958565b60405180910390fd5b6002600083815260200190815260200160002060000160009054906101000a900460ff1661055c576040517f08c379a000000000000000000000000000000000000000000000000000000000815260040161055390610d5b565b60405180910390fd5b6002600083815260200190815260200160002060000160019054906101000a900460ff16156105c0576040517f08c379a00000000000000000000000000000000000000000000000000000000081526004016105b790610dc7565b60405180910390fd5b60016002600084815260200190815260200160002060000160016101000a81548160ff021916908315150217905550806002600084815260200190815260200160002060010181905550600160009054906101000a900473ffffffffffffffffffffffffffffffffffffffff1673ffffffffffffffffffffffffffffffffffffffff16633864fd2c8360026040518363ffffffff1660e01b8152600401610668929190610e2f565b600060405180830381600087803b15801561068257600080fd5b505af1158015610696573d6000803e3d6000fd5b505050507f5fe5196ac68c44333b88980771cbad8de409ef5c2286fab91291bfb190e8fdc782826040516106cb929190610e58565b60405180910390a15050565b6000604051905090565b600080fd5b600080fd5b6000819050919050565b6106fe816106eb565b811461070957600080fd5b50565b60008135905061071b816106f5565b92915050565b600060208284031215610737576107366106e1565b5b60006107458482850161070c565b91505092915050565b60008115159050919050565b6107638161074e565b82525050565b610772816106eb565b82525050565b600060608201905061078d600083018661075a565b61079a602083018561075a565b6107a76040830184610769565b949350505050565b60006020820190506107c4600083018461075a565b92915050565b600073ffffffffffffffffffffffffffffffffffffffff82169050919050565b60006107f5826107ca565b9050919050565b610805816107ea565b82525050565b600060208201905061082060008301846107fc565b92915050565b600060208201905061083b6000830184610769565b92915050565b6000819050919050565b600061086661086161085c846107ca565b610841565b6107ca565b9050919050565b60006108788261084b565b9050919050565b600061088a8261086d565b9050919050565b61089a8161087f565b82525050565b60006020820190506108b56000830184610891565b92915050565b600080604083850312156108d2576108d16106e1565b5b60006108e08582860161070c565b92505060206108f18582860161070c565b9150509250929050565b600082825260208201905092915050565b7f6f6e6c792076616c696461746f7220697320616c6c6f77656400000000000000600082015250565b60006109426019836108fb565b915061094d8261090c565b602082019050919050565b6000602082019050818103600083015261097181610935565b9050919050565b600080fd5b6000601f19601f8301169050919050565b7f4e487b7100000000000000000000000000000000000000000000000000000000600052604160045260246000fd5b6109c68261097d565b810181811067ffffffffffffffff821117156109e5576109e461098e565b5b80604052505050565b60006109f86106d7565b9050610a0482826109bd565b919050565b600080fd5b600081519050610a1d816106f5565b92915050565b610a2c816107ea565b8114610a3757600080fd5b50565b600081519050610a4981610a23565b92915050565b600080fd5b600080fd5b600067ffffffffffffffff821115610a7457610a7361098e565b5b610a7d8261097d565b9050602081019050919050565b60005b83811015610aa8578082015181840152602081019050610a8d565b60008484015250505050565b6000610ac7610ac284610a59565b6109ee565b905082815260208101848484011115610ae357610ae2610a54565b5b610aee848285610a8a565b509392505050565b600082601f830112610b0b57610b0a610a4f565b5b8151610b1b848260208601610ab4565b91505092915050565b60048110610b3157600080fd5b50565b600081519050610b4381610b24565b92915050565b600060c08284031215610b5f57610b5e610978565b5b610b6960c06109ee565b90506000610b7984828501610a0e565b6000830152506020610b8d84828501610a3a565b6020830152506040610ba184828501610a0e565b6040830152506060610bb584828501610a0e565b606083015250608082015167ffffffffffffffff811115610bd957610bd8610a09565b5b610be584828501610af6565b60808301525060a0610bf984828501610b34565b60a08301525092915050565b600060208284031215610c1b57610c1a6106e1565b5b600082015167ffffffffffffffff811115610c3957610c386106e6565b5b610c4584828501610b49565b91505092915050565b7f4e487b7100000000000000000000000000000000000000000000000000000000600052602160045260246000fd5b7f6f6e6c7920616363657074656420726571756573742061726520616c6c6f776560008201527f6400000000000000000000000000000000000000000000000000000000000000602082015250565b6000610cd96021836108fb565b9150610ce482610c7d565b604082019050919050565b60006020820190508181036000830152610d0881610ccc565b9050919050565b7f66697273742073746172742074686520656e6572677900000000000000000000600082015250565b6000610d456016836108fb565b9150610d5082610d0f565b602082019050919050565b60006020820190508181036000830152610d7481610d38565b9050919050565b7f6368617267696e6720616c726561647920636f6d706c65746564000000000000600082015250565b6000610db1601a836108fb565b9150610dbc82610d7b565b602082019050919050565b60006020820190508181036000830152610de081610da4565b9050919050565b60048110610df857610df7610c4e565b5b50565b6000819050610e0982610de7565b919050565b6000610e1982610dfb565b9050919050565b610e2981610e0e565b82525050565b6000604082019050610e446000830185610769565b610e516020830184610e20565b9392505050565b6000604082019050610e6d6000830185610769565b610e7a6020830184610769565b939250505056fea264697066735822122085a20ef5cdbde4dad35e2bd70a7e67aff7e83f5ffdb1c90cdb4a61fc9c610a5a64736f6c634300081c0033",
  "linkReferences": {},
  "deployedLinkReferences": {}
}