{
  "_format": "hh-sol-artifact-1",
  "contractName": "EnergyValidation",
  "sourceName": "contracts/EnergyValidation.sol",
  "abi": [
    {
      "inputs": [
        {
          "internalType": "address",
          "name": "_chargingrequest",
          "type": "address"
        }
      ],
      "stateMutability": "nonpayable",
      "type": "constructor"
    },
    {
      "anonymous": false,
      "inputs": [
        {
          "indexed": false,
          "internalType": "uint256",
          "name": "_requestid",
          "type": "uint256"
        },
        {
          "indexed": false,
          "internalType": "uint256",
          "name": "energydelivered",
          "type": "uint256"
        }
      ],
      "name": "chargingcompleted",
      "type": "event"
    },
    {
      "anonymous": false,
      "inputs": [
        {
          "indexed": false,
          "internalType": "uint256",
          "name": "_requestid",
          "type": "uint256"
        }
      ],
      "name": "chargingstarted",
      "type": "event"
    },
    {
      "inputs": [
        {
          "internalType": "uint256",
          "name": "",
          "type": "uint256"
        }
      ],
      "name": "_Session",
      "outputs": [
        {
          "internalType": "bool",
          "name": "start",
          "type": "bool"
        },
        {
          "internalType": "bool",
          "name": "completed",
          "type": "bool"
        },
        {
          "internalType": "uint256",
          "name": "energydelivered",
          "type": "uint256"
        }
      ],
      "stateMutability": "view",
      "type": "function"
    },
    {
      "inputs": [
        {
          "internalType": "address",
          "name": "newValidator",
          "type": "address"
        }
      ],
      "name": "changeValidator",
      "outputs": [],
      "stateMutability": "nonpayable",
      "type": "function"
    },
    {
      "inputs": [],
      "name": "charging",
      "outputs": [
        {
          "internalType": "contract IChargingRequest",
          "name": "",
          "type": "address"
        }
      ],
      "stateMutability": "view",
      "type": "function"
    },
    {
      "inputs": [
        {
          "internalType": "uint256",
          "name": "_requestedid",
          "type": "uint256"
        },
        {
          "internalType": "uint256",
          "name": "_energydelivered",
          "type": "uint256"
        }
      ],
      "name": "completed",
      "outputs": [],
      "stateMutability": "nonpayable",
      "type": "function"
    },
    {
      "inputs": [
        {
          "internalType": "uint256",
          "name": "_requestedid",
          "type": "uint256"
        }
      ],
      "name": "getdeliveredenergy",
      "outputs": [
        {
          "internalType": "uint256",
          "name": "",
          "type": "uint256"
        }
      ],
      "stateMutability": "view",
      "type": "function"
    },
    {
      "inputs": [
        {
          "internalType": "uint256",
          "name": "_requestedid",
          "type": "uint256"
        }
      ],
      "name": "iscompleted",
      "outputs": [
        {
          "internalType": "bool",
          "name": "",
          "type": "bool"
        }
      ],
      "stateMutability": "view",
      "type": "function"
    },
    {
      "inputs": [
        {
          "internalType": "uint256",
          "name": "_requestid",
          "type": "uint256"
        }
      ],
      "name": "started",
      "outputs": [],
      "stateMutability": "nonpayable",
      "type": "function"
    },
    {
      "inputs": [],
      "name": "validator",
      "outputs": [
        {
          "internalType": "address",
          "name": "",
          "type": "address"
        }
      ],
      "stateMutability": "view",
      "type": "function"
    }
  ],
  "bytecode": "0x608060405234801561001057600080fd5b506040516110bb3803806110bb8339818101604052810190610032919061011c565b336000806101000a81548173ffffffffffffffffffffffffffffffffffffffff021916908373ffffffffffffffffffffffffffffffffffffffff16021790555080600160006101000a81548173ffffffffffffffffffffffffffffffffffffffff021916908373ffffffffffffffffffffffffffffffffffffffff16021790555050610149565b600080fd5b600073ffffffffffffffffffffffffffffffffffffffff82169050919050565b60006100e9826100be565b9050919050565b6100f9816100de565b811461010457600080fd5b50565b600081519050610116816100f0565b92915050565b600060208284031215610132576101316100b9565b5b600061014084828501610107565b91505092915050565b610f63806101586000396000f3fe608060405234801561001057600080fd5b50600436106100885760003560e01c8063ae9ee6421161005b578063ae9ee64214610129578063b819e0db14610159578063cae0043714610177578063f6abfc761461019357610088565b80630ee65b501461008d5780630fb0687f146100bf5780631f89ef13146100ef5780633a5381b51461010b575b600080fd5b6100a760048036038101906100a2919061078b565b6101af565b6040516100b6939291906107e2565b60405180910390f35b6100d960048036038101906100d4919061078b565b6101f3565b6040516100e69190610819565b60405180910390f35b6101096004803603810190610104919061078b565b610220565b005b610113610428565b6040516101209190610875565b60405180910390f35b610143600480360381019061013e919061078b565b61044c565b6040516101509190610890565b60405180910390f35b61016161046c565b60405161016e919061090a565b60405180910390f35b610191600480360381019061018c9190610925565b610492565b005b6101ad60048036038101906101a89190610991565b6106fe565b005b60026020528060005260406000206000915090508060000160009054906101000a900460ff16908060000160019054906101000a900460ff16908060010154905083565b60006002600083815260200190815260200160002060000160019054906101000a900460ff169050919050565b60008054906101000a900473ffffffffffffffffffffffffffffffffffffffff1673ffffffffffffffffffffffffffffffffffffffff163373ffffffffffffffffffffffffffffffffffffffff16146102ae576040517f08c379a00000000000000000000000000000000000000000000000000000000081526004016102a590610a1b565b60405180910390fd5b6000600160009054906101000a900473ffffffffffffffffffffffffffffffffffffffff1673ffffffffffffffffffffffffffffffffffffffff1663c58343ef836040518263ffffffff1660e01b815260040161030b9190610890565b600060405180830381865afa158015610328573d6000803e3d6000fd5b505050506040513d6000823e3d601f19601f820116820180604052508101906103519190610cb1565b90506001600381111561036757610366610cfa565b5b8160a00151600381111561037e5761037d610cfa565b5b146103be576040517f08c379a00000000000000000000000000000000000000000000000000000000081526004016103b590610d9b565b60405180910390fd5b60016002600084815260200190815260200160002060000160006101000a81548160ff0219169083151502179055507f66d10747f3cf4c5dbbb9aa1577c13deddbcff11c1d8fa6f0a459bdd1c26a98328260405161041c9190610890565b60405180910390a15050565b60008054906101000a900473ffffffffffffffffffffffffffffffffffffffff1681565b600060026000838152602001908152602001600020600101549050919050565b600160009054906101000a900473ffffffffffffffffffffffffffffffffffffffff1681565b60008054906101000a900473ffffffffffffffffffffffffffffffffffffffff1673ffffffffffffffffffffffffffffffffffffffff163373ffffffffffffffffffffffffffffffffffffffff1614610520576040517f08c379a000000000000000000000000000000000000000000000000000000000815260040161051790610a1b565b60405180910390fd5b6002600083815260200190815260200160002060000160009054906101000a900460ff16610583576040517f08c379a000000000000000000000000000000000000000000000000000000000815260040161057a90610e07565b60405180910390fd5b6002600083815260200190815260200160002060000160019054906101000a900460ff16156105e7576040517f08c379a00000000000000000000000000000000000000000000000000000000081526004016105de90610e73565b60405180910390fd5b60016002600084815260200190815260200160002060000160016101000a81548160ff021916908315150217905550806002600084815260200190815260200160002060010181905550600160009054906101000a900473ffffffffffffffffffffffffffffffffffffffff1673ffffffffffffffffffffffffffffffffffffffff16633864fd2c8360026040518363ffffffff1660e01b815260040161068f929190610edb565b600060405180830381600087803b1580156106a957600080fd5b505af11580156106bd573d6000803e3d6000fd5b505050507f5fe5196ac68c44333b88980771cbad8de409ef5c2286fab91291bfb190e8fdc782826040516106f2929190610f04565b60405180910390a15050565b806000806101000a81548173ffffffffffffffffffffffffffffffffffffffff021916908373ffffffffffffffffffffffffffffffffffffffff16021790555050565b6000604051905090565b600080fd5b600080fd5b6000819050919050565b61076881610755565b811461077357600080fd5b50565b6000813590506107858161075f565b92915050565b6000602082840312156107a1576107a061074b565b5b60006107af84828501610776565b91505092915050565b60008115159050919050565b6107cd816107b8565b82525050565b6107dc81610755565b82525050565b60006060820190506107f760008301866107c4565b61080460208301856107c4565b61081160408301846107d3565b949350505050565b600060208201905061082e60008301846107c4565b92915050565b600073ffffffffffffffffffffffffffffffffffffffff82169050919050565b600061085f82610834565b9050919050565b61086f81610854565b82525050565b600060208201905061088a6000830184610866565b92915050565b60006020820190506108a560008301846107d3565b92915050565b6000819050919050565b60006108d06108cb6108c684610834565b6108ab565b610834565b9050919050565b60006108e2826108b5565b9050919050565b60006108f4826108d7565b9050919050565b610904816108e9565b82525050565b600060208201905061091f60008301846108fb565b92915050565b6000806040838503121561093c5761093b61074b565b5b600061094a85828601610776565b925050602061095b85828601610776565b9150509250929050565b61096e81610854565b811461097957600080fd5b50565b60008135905061098b81610965565b92915050565b6000602082840312156109a7576109a661074b565b5b60006109b58482850161097c565b91505092915050565b600082825260208201905092915050565b7f6f6e6c792076616c696461746f7220697320616c6c6f77656400000000000000600082015250565b6000610a056019836109be565b9150610a10826109cf565b602082019050919050565b60006020820190508181036000830152610a34816109f8565b9050919050565b600080fd5b6000601f19601f8301169050919050565b7f4e487b7100000000000000000000000000000000000000000000000000000000600052604160045260246000fd5b610a8982610a40565b810181811067ffffffffffffffff82111715610aa857610aa7610a51565b5b80604052505050565b6000610abb610741565b9050610ac78282610a80565b919050565b600080fd5b600081519050610ae08161075f565b92915050565b600081519050610af581610965565b92915050565b600080fd5b600080fd5b600067ffffffffffffffff821115610b2057610b1f610a51565b5b610b2982610a40565b9050602081019050919050565b60005b83811015610b54578082015181840152602081019050610b39565b60008484015250505050565b6000610b73610b6e84610b05565b610ab1565b905082815260208101848484011115610b8f57610b8e610b00565b5b610b9a848285610b36565b509392505050565b600082601f830112610bb757610bb6610afb565b5b8151610bc7848260208601610b60565b91505092915050565b60048110610bdd57600080fd5b50565b600081519050610bef81610bd0565b92915050565b600060c08284031215610c0b57610c0a610a3b565b5b610c1560c0610ab1565b90506000610c2584828501610ad1565b6000830152506020610c3984828501610ae6565b6020830152506040610c4d84828501610ad1565b6040830152506060610c6184828501610ad1565b606083015250608082015167ffffffffffffffff811115610c8557610c84610acc565b5b610c9184828501610ba2565b60808301525060a0610ca584828501610be0565b60a08301525092915050565b600060208284031215610cc757610cc661074b565b5b600082015167ffffffffffffffff811115610ce557610ce4610750565b5b610cf184828501610bf5565b91505092915050565b7f4e487b7100000000000000000000000000000000000000000000000000000000600052602160045260246000fd5b7f6f6e6c7920616363657074656420726571756573742061726520616c6c6f776560008201527f6400000000000000000000000000000000000000000000000000000000000000602082015250565b6000610d856021836109be565b9150610d9082610d29565b604082019050919050565b60006020820190508181036000830152610db481610d78565b9050919050565b7f66697273742073746172742074686520656e6572677900000000000000000000600082015250565b6000610df16016836109be565b9150610dfc82610dbb565b602082019050919050565b60006020820190508181036000830152610e2081610de4565b9050919050565b7f6368617267696e6720616c726561647920636f6d706c65746564000000000000600082015250565b6000610e5d601a836109be565b9150610e6882610e27565b602082019050919050565b60006020820190508181036000830152610e8c81610e50565b9050919050565b60048110610ea457610ea3610cfa565b5b50565b6000819050610eb582610e93565b919050565b6000610ec582610ea7565b9050919050565b610ed581610eba565b82525050565b6000604082019050610ef060008301856107d3565b610efd6020830184610ecc565b9392505050565b6000604082019050610f1960008301856107d3565b610f2660208301846107d3565b939250505056fea2646970667358221220f4850e668a55d5486e1c8917bd2e375d3be7aaccad457b7c402744372cd9389464736f6c634300081c0033",
  "linkReferences": {},
  "deployedLinkReferences": {}
}