{
  "_format": "hh-sol-artifact-1",
  "contractName": "charging_request",
  "sourceName": "contracts/ChargingRequest.sol",
  "abi": [
    {
      "inputs": [
        {
          "internalType": "address",
          "name": "_registry",
          "type": "address"
        },
        {
          "internalType": "address",
          "name": "_validator",
          "type": "address"
        }
      ],
      "stateMutability": "nonpayable",
      "type": "constructor"
    },
    {
      "anonymous": false,
      "inputs": [
        {
          "indexed": true,
          "internalType": "uint256",
          "name": "requestId",
          "type": "uint256"
        },
        {
          "indexed": true,
          "internalType": "address",
          "name": "receiver",
          "type": "address"
        }
      ],
      "name": "RequestCreated",
      "type": "event"
    },
    {
      "anonymous": false,
      "inputs": [
        {
          "indexed": true,
          "internalType": "uint256",
          "name": "request_id",
          "type": "uint256"
        }
      ],
      "name": "requestcancelled",
      "type": "event"
    },
    {
      "inputs": [
        {
          "internalType": "uint256",
          "name": "_requisted_id",
          "type": "uint256"
        }
      ],
      "name": "canceled_request",
      "outputs": [],
      "stateMutability": "nonpayable",
      "type": "function"
    },
    {
      "inputs": [
        {
          "internalType": "uint256",
          "name": "energy_required",
          "type": "uint256"
        },
        {
          "internalType": "uint256",
          "name": "priceofenergyperkph",
          "type": "uint256"
        },
        {
          "internalType": "string",
          "name": "_location",
          "type": "string"
        }
      ],
      "name": "createrequest",
      "outputs": [],
      "stateMutability": "nonpayable",
      "type": "function"
    },
    {
      "inputs": [],
      "name": "getRegistryAddress",
      "outputs": [
        {
          "internalType": "address",
          "name": "",
          "type": "address"
        }
      ],
      "stateMutability": "view",
      "type": "function"
    },
    {
      "inputs": [
        {
          "internalType": "uint256",
          "name": "_id",
          "type": "uint256"
        }
      ],
      "name": "getRequest",
      "outputs": [
        {
          "components": [
            {
              "internalType": "uint256",
              "name": "id",
              "type": "uint256"
            },
            {
              "internalType": "address",
              "name": "reciever",
              "type": "address"
            },
            {
              "internalType": "uint256",
              "name": "energyrequired",
              "type": "uint256"
            },
            {
              "internalType": "uint256",
              "name": "priceperkilo",
              "type": "uint256"
            },
            {
              "internalType": "string",
              "name": "location",
              "type": "string"
            },
            {
              "internalType": "enum charging_request.Status",
              "name": "status",
              "type": "uint8"
            }
          ],
          "internalType": "struct charging_request.Request",
          "name": "",
          "type": "tuple"
        }
      ],
      "stateMutability": "view",
      "type": "function"
    },
    {
      "inputs": [],
      "name": "registry",
      "outputs": [
        {
          "internalType": "contract IUserregistry",
          "name": "",
          "type": "address"
        }
      ],
      "stateMutability": "view",
      "type": "function"
    },
    {
      "inputs": [
        {
          "internalType": "uint256",
          "name": "",
          "type": "uint256"
        }
      ],
      "name": "request",
      "outputs": [
        {
          "internalType": "uint256",
          "name": "id",
          "type": "uint256"
        },
        {
          "internalType": "address",
          "name": "reciever",
          "type": "address"
        },
        {
          "internalType": "uint256",
          "name": "energyrequired",
          "type": "uint256"
        },
        {
          "internalType": "uint256",
          "name": "priceperkilo",
          "type": "uint256"
        },
        {
          "internalType": "string",
          "name": "location",
          "type": "string"
        },
        {
          "internalType": "enum charging_request.Status",
          "name": "status",
          "type": "uint8"
        }
      ],
      "stateMutability": "view",
      "type": "function"
    },
    {
      "inputs": [],
      "name": "requestCount",
      "outputs": [
        {
          "internalType": "uint256",
          "name": "",
          "type": "uint256"
        }
      ],
      "stateMutability": "view",
      "type": "function"
    },
    {
      "inputs": [
        {
          "internalType": "uint256",
          "name": "_id",
          "type": "uint256"
        },
        {
          "internalType": "enum charging_request.Status",
          "name": "_status",
          "type": "uint8"
        }
      ],
      "name": "updatestatus",
      "outputs": [],
      "stateMutability": "nonpayable",
      "type": "function"
    },
    {
      "inputs": [],
      "name": "validator",
      "outputs": [
        {
          "internalType": "address",
          "name": "",
          "type": "address"
        }
      ],
      "stateMutability": "view",
      "type": "function"
    }
  ],
  "bytecode": "0x608060405234801561001057600080fd5b50604051611a85380380611a858339818101604052810190610032919061011d565b816000806101000a81548173ffffffffffffffffffffffffffffffffffffffff021916908373ffffffffffffffffffffffffffffffffffffffff16021790555080600160006101000a81548173ffffffffffffffffffffffffffffffffffffffff021916908373ffffffffffffffffffffffffffffffffffffffff160217905550505061015d565b600080fd5b600073ffffffffffffffffffffffffffffffffffffffff82169050919050565b60006100ea826100bf565b9050919050565b6100fa816100df565b811461010557600080fd5b50565b600081519050610117816100f1565b92915050565b60008060408385031215610134576101336100ba565b5b600061014285828601610108565b925050602061015385828601610108565b9150509250929050565b6119198061016c6000396000f3fe608060405234801561001057600080fd5b50600436106100935760003560e01c80637b103999116100665780637b1039991461010c578063c58343ef1461012a578063d845a4b31461015a578063e37b5ada1461018f578063f21de1e8146101ab57610093565b80633864fd2c146100985780633a5381b5146100b45780635badbe4c146100d257806367a6c5a4146100f0575b600080fd5b6100b260048036038101906100ad9190610c0b565b6101c9565b005b6100bc61040a565b6040516100c99190610c8c565b60405180910390f35b6100da610430565b6040516100e79190610cb6565b60405180910390f35b61010a60048036038101906101059190610cd1565b610436565b005b6101146105b5565b6040516101219190610d5d565b60405180910390f35b610144600480360381019061013f9190610cd1565b6105d9565b6040516101519190610f26565b60405180910390f35b610174600480360381019061016f9190610cd1565b610747565b60405161018696959493929190610fa1565b60405180910390f35b6101a960048036038101906101a4919061113e565b610838565b005b6101b3610b15565b6040516101c09190610c8c565b60405180910390f35b60008054906101000a900473ffffffffffffffffffffffffffffffffffffffff1673ffffffffffffffffffffffffffffffffffffffff1663ba3d5939336040518263ffffffff1660e01b81526004016102229190610c8c565b602060405180830381865afa15801561023f573d6000803e3d6000fd5b505050506040513d601f19601f8201168201806040525081019061026391906111e5565b806102bb5750600160009054906101000a900473ffffffffffffffffffffffffffffffffffffffff1673ffffffffffffffffffffffffffffffffffffffff163373ffffffffffffffffffffffffffffffffffffffff16145b6102fa576040517f08c379a00000000000000000000000000000000000000000000000000000000081526004016102f19061125e565b60405180910390fd5b60008211801561030c57506003548211155b61034b576040517f08c379a0000000000000000000000000000000000000000000000000000000008152600401610342906112ca565b60405180910390fd5b600060026000848152602001908152602001600020905060038081111561037557610374610e26565b5b8160050160009054906101000a900460ff16600381111561039957610398610e26565b5b036103d9576040517f08c379a00000000000000000000000000000000000000000000000000000000081526004016103d090611336565b60405180910390fd5b818160050160006101000a81548160ff02191690836003811115610400576103ff610e26565b5b0217905550505050565b600160009054906101000a900473ffffffffffffffffffffffffffffffffffffffff1681565b60035481565b60006002600083815260200190815260200160002090503373ffffffffffffffffffffffffffffffffffffffff168160010160009054906101000a900473ffffffffffffffffffffffffffffffffffffffff1673ffffffffffffffffffffffffffffffffffffffff16146104df576040517f08c379a00000000000000000000000000000000000000000000000000000000081526004016104d6906113a2565b60405180910390fd5b600060038111156104f3576104f2610e26565b5b8160050160009054906101000a900460ff16600381111561051757610516610e26565b5b14610557576040517f08c379a000000000000000000000000000000000000000000000000000000000815260040161054e9061140e565b60405180910390fd5b60038160050160006101000a81548160ff0219169083600381111561057f5761057e610e26565b5b0217905550817f4e8e8604bc9eee5474f6abde861f4c91e4f14cf6a05426647d604c4fcb7833fa60405160405180910390a25050565b60008054906101000a900473ffffffffffffffffffffffffffffffffffffffff1681565b6105e1610b3e565b600260008381526020019081526020016000206040518060c0016040529081600082015481526020016001820160009054906101000a900473ffffffffffffffffffffffffffffffffffffffff1673ffffffffffffffffffffffffffffffffffffffff1673ffffffffffffffffffffffffffffffffffffffff16815260200160028201548152602001600382015481526020016004820180546106839061145d565b80601f01602080910402602001604051908101604052809291908181526020018280546106af9061145d565b80156106fc5780601f106106d1576101008083540402835291602001916106fc565b820191906000526020600020905b8154815290600101906020018083116106df57829003601f168201915b505050505081526020016005820160009054906101000a900460ff16600381111561072a57610729610e26565b5b600381111561073c5761073b610e26565b5b815250509050919050565b60026020528060005260406000206000915090508060000154908060010160009054906101000a900473ffffffffffffffffffffffffffffffffffffffff16908060020154908060030154908060040180546107a29061145d565b80601f01602080910402602001604051908101604052809291908181526020018280546107ce9061145d565b801561081b5780601f106107f05761010080835404028352916020019161081b565b820191906000526020600020905b8154815290600101906020018083116107fe57829003601f168201915b5050505050908060050160009054906101000a900460ff16905086565b60008054906101000a900473ffffffffffffffffffffffffffffffffffffffff1673ffffffffffffffffffffffffffffffffffffffff1663ba3d5939336040518263ffffffff1660e01b81526004016108919190610c8c565b602060405180830381865afa1580156108ae573d6000803e3d6000fd5b505050506040513d601f19601f820116820180604052508101906108d291906111e5565b610911576040517f08c379a0000000000000000000000000000000000000000000000000000000008152600401610908906114da565b60405180910390fd5b60008311610954576040517f08c379a000000000000000000000000000000000000000000000000000000000815260040161094b9061156c565b60405180910390fd5b60008211610997576040517f08c379a000000000000000000000000000000000000000000000000000000000815260040161098e906115d8565b60405180910390fd5b600360008154809291906109aa90611627565b91905055506040518060c0016040528060035481526020013373ffffffffffffffffffffffffffffffffffffffff16815260200184815260200183815260200182815260200160006003811115610a0457610a03610e26565b5b8152506002600060035481526020019081526020016000206000820151816000015560208201518160010160006101000a81548173ffffffffffffffffffffffffffffffffffffffff021916908373ffffffffffffffffffffffffffffffffffffffff16021790555060408201518160020155606082015181600301556080820151816004019081610a969190611811565b5060a08201518160050160006101000a81548160ff02191690836003811115610ac257610ac1610e26565b5b02179055509050503373ffffffffffffffffffffffffffffffffffffffff166003547f233bb55fd57b21b8a3d15c9ad8fbbab435fe4cf2865cc654f6a57d9d4d8cda5460405160405180910390a3505050565b60008060009054906101000a900473ffffffffffffffffffffffffffffffffffffffff16905090565b6040518060c0016040528060008152602001600073ffffffffffffffffffffffffffffffffffffffff16815260200160008152602001600081526020016060815260200160006003811115610b9657610b95610e26565b5b81525090565b6000604051905090565b600080fd5b600080fd5b6000819050919050565b610bc381610bb0565b8114610bce57600080fd5b50565b600081359050610be081610bba565b92915050565b60048110610bf357600080fd5b50565b600081359050610c0581610be6565b92915050565b60008060408385031215610c2257610c21610ba6565b5b6000610c3085828601610bd1565b9250506020610c4185828601610bf6565b9150509250929050565b600073ffffffffffffffffffffffffffffffffffffffff82169050919050565b6000610c7682610c4b565b9050919050565b610c8681610c6b565b82525050565b6000602082019050610ca16000830184610c7d565b92915050565b610cb081610bb0565b82525050565b6000602082019050610ccb6000830184610ca7565b92915050565b600060208284031215610ce757610ce6610ba6565b5b6000610cf584828501610bd1565b91505092915050565b6000819050919050565b6000610d23610d1e610d1984610c4b565b610cfe565b610c4b565b9050919050565b6000610d3582610d08565b9050919050565b6000610d4782610d2a565b9050919050565b610d5781610d3c565b82525050565b6000602082019050610d726000830184610d4e565b92915050565b610d8181610bb0565b82525050565b610d9081610c6b565b82525050565b600081519050919050565b600082825260208201905092915050565b60005b83811015610dd0578082015181840152602081019050610db5565b60008484015250505050565b6000601f19601f8301169050919050565b6000610df882610d96565b610e028185610da1565b9350610e12818560208601610db2565b610e1b81610ddc565b840191505092915050565b7f4e487b7100000000000000000000000000000000000000000000000000000000600052602160045260246000fd5b60048110610e6657610e65610e26565b5b50565b6000819050610e7782610e55565b919050565b6000610e8782610e69565b9050919050565b610e9781610e7c565b82525050565b600060c083016000830151610eb56000860182610d78565b506020830151610ec86020860182610d87565b506040830151610edb6040860182610d78565b506060830151610eee6060860182610d78565b5060808301518482036080860152610f068282610ded565b91505060a0830151610f1b60a0860182610e8e565b508091505092915050565b60006020820190508181036000830152610f408184610e9d565b905092915050565b600082825260208201905092915050565b6000610f6482610d96565b610f6e8185610f48565b9350610f7e818560208601610db2565b610f8781610ddc565b840191505092915050565b610f9b81610e7c565b82525050565b600060c082019050610fb66000830189610ca7565b610fc36020830188610c7d565b610fd06040830187610ca7565b610fdd6060830186610ca7565b8181036080830152610fef8185610f59565b9050610ffe60a0830184610f92565b979650505050505050565b600080fd5b600080fd5b7f4e487b7100000000000000000000000000000000000000000000000000000000600052604160045260246000fd5b61104b82610ddc565b810181811067ffffffffffffffff8211171561106a57611069611013565b5b80604052505050565b600061107d610b9c565b90506110898282611042565b919050565b600067ffffffffffffffff8211156110a9576110a8611013565b5b6110b282610ddc565b9050602081019050919050565b82818337600083830152505050565b60006110e16110dc8461108e565b611073565b9050828152602081018484840111156110fd576110fc61100e565b5b6111088482856110bf565b509392505050565b600082601f83011261112557611124611009565b5b81356111358482602086016110ce565b91505092915050565b60008060006060848603121561115757611156610ba6565b5b600061116586828701610bd1565b935050602061117686828701610bd1565b925050604084013567ffffffffffffffff81111561119757611196610bab565b5b6111a386828701611110565b9150509250925092565b60008115159050919050565b6111c2816111ad565b81146111cd57600080fd5b50565b6000815190506111df816111b9565b92915050565b6000602082840312156111fb576111fa610ba6565b5b6000611209848285016111d0565b91505092915050565b7f6e6f7420616c6c6f776564000000000000000000000000000000000000000000600082015250565b6000611248600b83610f48565b915061125382611212565b602082019050919050565b600060208201905081810360008301526112778161123b565b9050919050565b7f496e76616c696420726571756573742069640000000000000000000000000000600082015250565b60006112b4601283610f48565b91506112bf8261127e565b602082019050919050565b600060208201905081810360008301526112e3816112a7565b9050919050565b7f5265717565737420616c72656164792063616e63656c65640000000000000000600082015250565b6000611320601883610f48565b915061132b826112ea565b602082019050919050565b6000602082019050818103600083015261134f81611313565b9050919050565b7f6e6f742072657175657374206f776e6572000000000000000000000000000000600082015250565b600061138c601183610f48565b915061139782611356565b602082019050919050565b600060208201905081810360008301526113bb8161137f565b9050919050565b7f6e6f7420706f737369626c6520746f2063616e63656c6c656400000000000000600082015250565b60006113f8601983610f48565b9150611403826113c2565b602082019050919050565b60006020820190508181036000830152611427816113eb565b9050919050565b7f4e487b7100000000000000000000000000000000000000000000000000000000600052602260045260246000fd5b6000600282049050600182168061147557607f821691505b6020821081036114885761148761142e565b5b50919050565b7f6f6e6c7920766172696566696564207573657220616c6c6f7765000000000000600082015250565b60006114c4601a83610f48565b91506114cf8261148e565b602082019050919050565b600060208201905081810360008301526114f3816114b7565b9050919050565b7f706c6561736520696e736572742076616c696420656e657267795f726571756960008201527f7265000000000000000000000000000000000000000000000000000000000000602082015250565b6000611556602283610f48565b9150611561826114fa565b604082019050919050565b6000602082019050818103600083015261158581611549565b9050919050565b7f706c6561736520656e746572207468652076616c696420656e65726779000000600082015250565b60006115c2601d83610f48565b91506115cd8261158c565b602082019050919050565b600060208201905081810360008301526115f1816115b5565b9050919050565b7f4e487b7100000000000000000000000000000000000000000000000000000000600052601160045260246000fd5b600061163282610bb0565b91507fffffffffffffffffffffffffffffffffffffffffffffffffffffffffffffffff8203611664576116636115f8565b5b600182019050919050565b60008190508160005260206000209050919050565b60006020601f8301049050919050565b600082821b905092915050565b6000600883026116d17fffffffffffffffffffffffffffffffffffffffffffffffffffffffffffffffff82611694565b6116db8683611694565b95508019841693508086168417925050509392505050565b600061170e61170961170484610bb0565b610cfe565b610bb0565b9050919050565b6000819050919050565b611728836116f3565b61173c61173482611715565b8484546116a1565b825550505050565b600090565b611751611744565b61175c81848461171f565b505050565b5b8181101561178057611775600082611749565b600181019050611762565b5050565b601f8211156117c5576117968161166f565b61179f84611684565b810160208510156117ae578190505b6117c26117ba85611684565b830182611761565b50505b505050565b600082821c905092915050565b60006117e8600019846008026117ca565b1980831691505092915050565b600061180183836117d7565b9150826002028217905092915050565b61181a82610d96565b67ffffffffffffffff81111561183357611832611013565b5b61183d825461145d565b611848828285611784565b600060209050601f83116001811461187b5760008415611869578287015190505b61187385826117f5565b8655506118db565b601f1984166118898661166f565b60005b828110156118b15784890151825560018201915060208501945060208101905061188c565b868310156118ce57848901516118ca601f8916826117d7565b8355505b6001600288020188555050505b50505050505056fea26469706673582212206e3c6c95b847cc218bfe4fb0f7f33bdcc1705732b5e4a4cdf64b705c12bbb92a64736f6c634300081c0033",
  "linkReferences": {},
  "deployedLinkReferences": {}
}