{
  "_format": "hh-sol-artifact-1",
  "contractName": "charging_request",
  "sourceName": "contracts/ChargingRequest.sol",
  "abi": [
    {
      "inputs": [
        {
          "internalType": "address",
          "name": "_registry",
          "type": "address"
        }
      ],
      "stateMutability": "nonpayable",
      "type": "constructor"
    },
    {
      "anonymous": false,
      "inputs": [
        {
          "indexed": true,
          "internalType": "uint256",
          "name": "requestId",
          "type": "uint256"
        },
        {
          "indexed": true,
          "internalType": "address",
          "name": "receiver",
          "type": "address"
        }
      ],
      "name": "RequestCreated",
      "type": "event"
    },
    {
      "anonymous": false,
      "inputs": [
        {
          "indexed": true,
          "internalType": "uint256",
          "name": "request_id",
          "type": "uint256"
        }
      ],
      "name": "requestcancelled",
      "type": "event"
    },
    {
      "inputs": [
        {
          "internalType": "uint256",
          "name": "_requisted_id",
          "type": "uint256"
        }
      ],
      "name": "canceled_request",
      "outputs": [],
      "stateMutability": "nonpayable",
      "type": "function"
    },
    {
      "inputs": [
        {
          "internalType": "uint256",
          "name": "energy_required",
          "type": "uint256"
        },
        {
          "internalType": "uint256",
          "name": "priceofenergyperkph",
          "type": "uint256"
        },
        {
          "internalType": "string",
          "name": "_location",
          "type": "string"
        }
      ],
      "name": "createrequest",
      "outputs": [],
      "stateMutability": "nonpayable",
      "type": "function"
    },
    {
      "inputs": [
        {
          "internalType": "uint256",
          "name": "_id",
          "type": "uint256"
        }
      ],
      "name": "getRequest",
      "outputs": [
        {
          "components": [
            {
              "internalType": "uint256",
              "name": "id",
              "type": "uint256"
            },
            {
              "internalType": "address",
              "name": "reciever",
              "type": "address"
            },
            {
              "internalType": "uint256",
              "name": "energyrequired",
              "type": "uint256"
            },
            {
              "internalType": "uint256",
              "name": "priceperkilo",
              "type": "uint256"
            },
            {
              "internalType": "string",
              "name": "location",
              "type": "string"
            },
            {
              "internalType": "enum charging_request.Status",
              "name": "status",
              "type": "uint8"
            }
          ],
          "internalType": "struct charging_request.Request",
          "name": "",
          "type": "tuple"
        }
      ],
      "stateMutability": "view",
      "type": "function"
    },
    {
      "inputs": [],
      "name": "registry",
      "outputs": [
        {
          "internalType": "contract IUserregistry",
          "name": "",
          "type": "address"
        }
      ],
      "stateMutability": "view",
      "type": "function"
    },
    {
      "inputs": [
        {
          "internalType": "uint256",
          "name": "",
          "type": "uint256"
        }
      ],
      "name": "request",
      "outputs": [
        {
          "internalType": "uint256",
          "name": "id",
          "type": "uint256"
        },
        {
          "internalType": "address",
          "name": "reciever",
          "type": "address"
        },
        {
          "internalType": "uint256",
          "name": "energyrequired",
          "type": "uint256"
        },
        {
          "internalType": "uint256",
          "name": "priceperkilo",
          "type": "uint256"
        },
        {
          "internalType": "string",
          "name": "location",
          "type": "string"
        },
        {
          "internalType": "enum charging_request.Status",
          "name": "status",
          "type": "uint8"
        }
      ],
      "stateMutability": "view",
      "type": "function"
    },
    {
      "inputs": [],
      "name": "requestCount",
      "outputs": [
        {
          "internalType": "uint256",
          "name": "",
          "type": "uint256"
        }
      ],
      "stateMutability": "view",
      "type": "function"
    }
  ],
  "bytecode": "0x608060405234801561001057600080fd5b5060405161156e38038061156e833981810160405281019061003291906100db565b806000806101000a81548173ffffffffffffffffffffffffffffffffffffffff021916908373ffffffffffffffffffffffffffffffffffffffff16021790555050610108565b600080fd5b600073ffffffffffffffffffffffffffffffffffffffff82169050919050565b60006100a88261007d565b9050919050565b6100b88161009d565b81146100c357600080fd5b50565b6000815190506100d5816100af565b92915050565b6000602082840312156100f1576100f0610078565b5b60006100ff848285016100c6565b91505092915050565b611457806101176000396000f3fe608060405234801561001057600080fd5b50600436106100625760003560e01c80635badbe4c1461006757806367a6c5a4146100855780637b103999146100a1578063c58343ef146100bf578063d845a4b3146100ef578063e37b5ada14610124575b600080fd5b61006f610140565b60405161007c919061089c565b60405180910390f35b61009f600480360381019061009a91906108f7565b610146565b005b6100a96102c5565b6040516100b691906109a3565b60405180910390f35b6100d960048036038101906100d491906108f7565b6102e9565b6040516100e69190610b7e565b60405180910390f35b610109600480360381019061010491906108f7565b610457565b60405161011b96959493929190610c08565b60405180910390f35b61013e60048036038101906101399190610da5565b610548565b005b60025481565b60006001600083815260200190815260200160002090503373ffffffffffffffffffffffffffffffffffffffff168160010160009054906101000a900473ffffffffffffffffffffffffffffffffffffffff1673ffffffffffffffffffffffffffffffffffffffff16146101ef576040517f08c379a00000000000000000000000000000000000000000000000000000000081526004016101e690610e60565b60405180910390fd5b6000600381111561020357610202610a7e565b5b8160050160009054906101000a900460ff16600381111561022757610226610a7e565b5b14610267576040517f08c379a000000000000000000000000000000000000000000000000000000000815260040161025e90610ecc565b60405180910390fd5b60038160050160006101000a81548160ff0219169083600381111561028f5761028e610a7e565b5b0217905550817f4e8e8604bc9eee5474f6abde861f4c91e4f14cf6a05426647d604c4fcb7833fa60405160405180910390a25050565b60008054906101000a900473ffffffffffffffffffffffffffffffffffffffff1681565b6102f1610825565b600160008381526020019081526020016000206040518060c0016040529081600082015481526020016001820160009054906101000a900473ffffffffffffffffffffffffffffffffffffffff1673ffffffffffffffffffffffffffffffffffffffff1673ffffffffffffffffffffffffffffffffffffffff168152602001600282015481526020016003820154815260200160048201805461039390610f1b565b80601f01602080910402602001604051908101604052809291908181526020018280546103bf90610f1b565b801561040c5780601f106103e15761010080835404028352916020019161040c565b820191906000526020600020905b8154815290600101906020018083116103ef57829003601f168201915b505050505081526020016005820160009054906101000a900460ff16600381111561043a57610439610a7e565b5b600381111561044c5761044b610a7e565b5b815250509050919050565b60016020528060005260406000206000915090508060000154908060010160009054906101000a900473ffffffffffffffffffffffffffffffffffffffff16908060020154908060030154908060040180546104b290610f1b565b80601f01602080910402602001604051908101604052809291908181526020018280546104de90610f1b565b801561052b5780601f106105005761010080835404028352916020019161052b565b820191906000526020600020905b81548152906001019060200180831161050e57829003601f168201915b5050505050908060050160009054906101000a900460ff16905086565b60008054906101000a900473ffffffffffffffffffffffffffffffffffffffff1673ffffffffffffffffffffffffffffffffffffffff1663ba3d5939336040518263ffffffff1660e01b81526004016105a19190610f4c565b602060405180830381865afa1580156105be573d6000803e3d6000fd5b505050506040513d601f19601f820116820180604052508101906105e29190610f9f565b610621576040517f08c379a000000000000000000000000000000000000000000000000000000000815260040161061890611018565b60405180910390fd5b60008311610664576040517f08c379a000000000000000000000000000000000000000000000000000000000815260040161065b906110aa565b60405180910390fd5b600082116106a7576040517f08c379a000000000000000000000000000000000000000000000000000000000815260040161069e90611116565b60405180910390fd5b600260008154809291906106ba90611165565b91905055506040518060c0016040528060025481526020013373ffffffffffffffffffffffffffffffffffffffff1681526020018481526020018381526020018281526020016000600381111561071457610713610a7e565b5b8152506001600060025481526020019081526020016000206000820151816000015560208201518160010160006101000a81548173ffffffffffffffffffffffffffffffffffffffff021916908373ffffffffffffffffffffffffffffffffffffffff160217905550604082015181600201556060820151816003015560808201518160040190816107a6919061134f565b5060a08201518160050160006101000a81548160ff021916908360038111156107d2576107d1610a7e565b5b02179055509050503373ffffffffffffffffffffffffffffffffffffffff166002547f233bb55fd57b21b8a3d15c9ad8fbbab435fe4cf2865cc654f6a57d9d4d8cda5460405160405180910390a3505050565b6040518060c0016040528060008152602001600073ffffffffffffffffffffffffffffffffffffffff1681526020016000815260200160008152602001606081526020016000600381111561087d5761087c610a7e565b5b81525090565b6000819050919050565b61089681610883565b82525050565b60006020820190506108b1600083018461088d565b92915050565b6000604051905090565b600080fd5b600080fd5b6108d481610883565b81146108df57600080fd5b50565b6000813590506108f1816108cb565b92915050565b60006020828403121561090d5761090c6108c1565b5b600061091b848285016108e2565b91505092915050565b600073ffffffffffffffffffffffffffffffffffffffff82169050919050565b6000819050919050565b600061096961096461095f84610924565b610944565b610924565b9050919050565b600061097b8261094e565b9050919050565b600061098d82610970565b9050919050565b61099d81610982565b82525050565b60006020820190506109b86000830184610994565b92915050565b6109c781610883565b82525050565b60006109d882610924565b9050919050565b6109e8816109cd565b82525050565b600081519050919050565b600082825260208201905092915050565b60005b83811015610a28578082015181840152602081019050610a0d565b60008484015250505050565b6000601f19601f8301169050919050565b6000610a50826109ee565b610a5a81856109f9565b9350610a6a818560208601610a0a565b610a7381610a34565b840191505092915050565b7f4e487b7100000000000000000000000000000000000000000000000000000000600052602160045260246000fd5b60048110610abe57610abd610a7e565b5b50565b6000819050610acf82610aad565b919050565b6000610adf82610ac1565b9050919050565b610aef81610ad4565b82525050565b600060c083016000830151610b0d60008601826109be565b506020830151610b2060208601826109df565b506040830151610b3360408601826109be565b506060830151610b4660608601826109be565b5060808301518482036080860152610b5e8282610a45565b91505060a0830151610b7360a0860182610ae6565b508091505092915050565b60006020820190508181036000830152610b988184610af5565b905092915050565b610ba9816109cd565b82525050565b600082825260208201905092915050565b6000610bcb826109ee565b610bd58185610baf565b9350610be5818560208601610a0a565b610bee81610a34565b840191505092915050565b610c0281610ad4565b82525050565b600060c082019050610c1d600083018961088d565b610c2a6020830188610ba0565b610c37604083018761088d565b610c44606083018661088d565b8181036080830152610c568185610bc0565b9050610c6560a0830184610bf9565b979650505050505050565b600080fd5b600080fd5b7f4e487b7100000000000000000000000000000000000000000000000000000000600052604160045260246000fd5b610cb282610a34565b810181811067ffffffffffffffff82111715610cd157610cd0610c7a565b5b80604052505050565b6000610ce46108b7565b9050610cf08282610ca9565b919050565b600067ffffffffffffffff821115610d1057610d0f610c7a565b5b610d1982610a34565b9050602081019050919050565b82818337600083830152505050565b6000610d48610d4384610cf5565b610cda565b905082815260208101848484011115610d6457610d63610c75565b5b610d6f848285610d26565b509392505050565b600082601f830112610d8c57610d8b610c70565b5b8135610d9c848260208601610d35565b91505092915050565b600080600060608486031215610dbe57610dbd6108c1565b5b6000610dcc868287016108e2565b9350506020610ddd868287016108e2565b925050604084013567ffffffffffffffff811115610dfe57610dfd6108c6565b5b610e0a86828701610d77565b9150509250925092565b7f6e6f742072657175657374206f776e6572000000000000000000000000000000600082015250565b6000610e4a601183610baf565b9150610e5582610e14565b602082019050919050565b60006020820190508181036000830152610e7981610e3d565b9050919050565b7f6e6f7420706f737369626c6520746f2063616e63656c6c656400000000000000600082015250565b6000610eb6601983610baf565b9150610ec182610e80565b602082019050919050565b60006020820190508181036000830152610ee581610ea9565b9050919050565b7f4e487b7100000000000000000000000000000000000000000000000000000000600052602260045260246000fd5b60006002820490506001821680610f3357607f821691505b602082108103610f4657610f45610eec565b5b50919050565b6000602082019050610f616000830184610ba0565b92915050565b60008115159050919050565b610f7c81610f67565b8114610f8757600080fd5b50565b600081519050610f9981610f73565b92915050565b600060208284031215610fb557610fb46108c1565b5b6000610fc384828501610f8a565b91505092915050565b7f6f6e6c7920766172696566696564207573657220616c6c6f7765000000000000600082015250565b6000611002601a83610baf565b915061100d82610fcc565b602082019050919050565b6000602082019050818103600083015261103181610ff5565b9050919050565b7f706c6561736520696e736572742076616c696420656e657267795f726571756960008201527f7265000000000000000000000000000000000000000000000000000000000000602082015250565b6000611094602283610baf565b915061109f82611038565b604082019050919050565b600060208201905081810360008301526110c381611087565b9050919050565b7f706c6561736520656e746572207468652076616c696420656e65726779000000600082015250565b6000611100601d83610baf565b915061110b826110ca565b602082019050919050565b6000602082019050818103600083015261112f816110f3565b9050919050565b7f4e487b7100000000000000000000000000000000000000000000000000000000600052601160045260246000fd5b600061117082610883565b91507fffffffffffffffffffffffffffffffffffffffffffffffffffffffffffffffff82036111a2576111a1611136565b5b600182019050919050565b60008190508160005260206000209050919050565b60006020601f8301049050919050565b600082821b905092915050565b60006008830261120f7fffffffffffffffffffffffffffffffffffffffffffffffffffffffffffffffff826111d2565b61121986836111d2565b95508019841693508086168417925050509392505050565b600061124c61124761124284610883565b610944565b610883565b9050919050565b6000819050919050565b61126683611231565b61127a61127282611253565b8484546111df565b825550505050565b600090565b61128f611282565b61129a81848461125d565b505050565b5b818110156112be576112b3600082611287565b6001810190506112a0565b5050565b601f821115611303576112d4816111ad565b6112dd846111c2565b810160208510156112ec578190505b6113006112f8856111c2565b83018261129f565b50505b505050565b600082821c905092915050565b600061132660001984600802611308565b1980831691505092915050565b600061133f8383611315565b9150826002028217905092915050565b611358826109ee565b67ffffffffffffffff81111561137157611370610c7a565b5b61137b8254610f1b565b6113868282856112c2565b600060209050601f8311600181146113b957600084156113a7578287015190505b6113b18582611333565b865550611419565b601f1984166113c7866111ad565b60005b828110156113ef578489015182556001820191506020850194506020810190506113ca565b8683101561140c5784890151611408601f891682611315565b8355505b6001600288020188555050505b50505050505056fea2646970667358221220a625cdb7717926b260deeeabbca15b3b5402c827c519936d81a3dcd68d12b7ca64736f6c634300081c0033",
  "linkReferences": {},
  "deployedLinkReferences": {}
}