{
  "_format": "hh-sol-artifact-1",
  "contractName": "charging_request",
  "sourceName": "contracts/ChargingRequest.sol",
  "abi": [
    {
      "inputs": [
        {
          "internalType": "address",
          "name": "_registry",
          "type": "address"
        },
        {
          "internalType": "address",
          "name": "_validator",
          "type": "address"
        }
      ],
      "stateMutability": "nonpayable",
      "type": "constructor"
    },
    {
      "anonymous": false,
      "inputs": [
        {
          "indexed": true,
          "internalType": "uint256",
          "name": "requestId",
          "type": "uint256"
        },
        {
          "indexed": true,
          "internalType": "address",
          "name": "receiver",
          "type": "address"
        }
      ],
      "name": "RequestCreated",
      "type": "event"
    },
    {
      "anonymous": false,
      "inputs": [
        {
          "indexed": true,
          "internalType": "uint256",
          "name": "request_id",
          "type": "uint256"
        }
      ],
      "name": "requestcancelled",
      "type": "event"
    },
    {
      "inputs": [
        {
          "internalType": "uint256",
          "name": "_requisted_id",
          "type": "uint256"
        }
      ],
      "name": "canceled_request",
      "outputs": [],
      "stateMutability": "nonpayable",
      "type": "function"
    },
    {
      "inputs": [
        {
          "internalType": "uint256",
          "name": "energy_required",
          "type": "uint256"
        },
        {
          "internalType": "uint256",
          "name": "priceofenergyperkph",
          "type": "uint256"
        },
        {
          "internalType": "string",
          "name": "_location",
          "type": "string"
        }
      ],
      "name": "createrequest",
      "outputs": [],
      "stateMutability": "nonpayable",
      "type": "function"
    },
    {
      "inputs": [
        {
          "internalType": "uint256",
          "name": "_id",
          "type": "uint256"
        }
      ],
      "name": "getRequest",
      "outputs": [
        {
          "components": [
            {
              "internalType": "uint256",
              "name": "id",
              "type": "uint256"
            },
            {
              "internalType": "address",
              "name": "reciever",
              "type": "address"
            },
            {
              "internalType": "uint256",
              "name": "energyrequired",
              "type": "uint256"
            },
            {
              "internalType": "uint256",
              "name": "priceperkilo",
              "type": "uint256"
            },
            {
              "internalType": "string",
              "name": "location",
              "type": "string"
            },
            {
              "internalType": "enum charging_request.Status",
              "name": "status",
              "type": "uint8"
            }
          ],
          "internalType": "struct charging_request.Request",
          "name": "",
          "type": "tuple"
        }
      ],
      "stateMutability": "view",
      "type": "function"
    },
    {
      "inputs": [],
      "name": "registry",
      "outputs": [
        {
          "internalType": "contract IUserregistry",
          "name": "",
          "type": "address"
        }
      ],
      "stateMutability": "view",
      "type": "function"
    },
    {
      "inputs": [
        {
          "internalType": "uint256",
          "name": "",
          "type": "uint256"
        }
      ],
      "name": "request",
      "outputs": [
        {
          "internalType": "uint256",
          "name": "id",
          "type": "uint256"
        },
        {
          "internalType": "address",
          "name": "reciever",
          "type": "address"
        },
        {
          "internalType": "uint256",
          "name": "energyrequired",
          "type": "uint256"
        },
        {
          "internalType": "uint256",
          "name": "priceperkilo",
          "type": "uint256"
        },
        {
          "internalType": "string",
          "name": "location",
          "type": "string"
        },
        {
          "internalType": "enum charging_request.Status",
          "name": "status",
          "type": "uint8"
        }
      ],
      "stateMutability": "view",
      "type": "function"
    },
    {
      "inputs": [],
      "name": "requestCount",
      "outputs": [
        {
          "internalType": "uint256",
          "name": "",
          "type": "uint256"
        }
      ],
      "stateMutability": "view",
      "type": "function"
    },
    {
      "inputs": [
        {
          "internalType": "uint256",
          "name": "_id",
          "type": "uint256"
        },
        {
          "internalType": "enum charging_request.Status",
          "name": "_status",
          "type": "uint8"
        }
      ],
      "name": "updatestatus",
      "outputs": [],
      "stateMutability": "nonpayable",
      "type": "function"
    },
    {
      "inputs": [],
      "name": "validator",
      "outputs": [
        {
          "internalType": "address",
          "name": "",
          "type": "address"
        }
      ],
      "stateMutability": "view",
      "type": "function"
    }
  ],
  "bytecode": "0x608060405234801561001057600080fd5b50604051611a33380380611a338339818101604052810190610032919061011d565b816000806101000a81548173ffffffffffffffffffffffffffffffffffffffff021916908373ffffffffffffffffffffffffffffffffffffffff16021790555080600160006101000a81548173ffffffffffffffffffffffffffffffffffffffff021916908373ffffffffffffffffffffffffffffffffffffffff160217905550505061015d565b600080fd5b600073ffffffffffffffffffffffffffffffffffffffff82169050919050565b60006100ea826100bf565b9050919050565b6100fa816100df565b811461010557600080fd5b50565b600081519050610117816100f1565b92915050565b60008060408385031215610134576101336100ba565b5b600061014285828601610108565b925050602061015385828601610108565b9150509250929050565b6118c78061016c6000396000f3fe608060405234801561001057600080fd5b50600436106100885760003560e01c80637b1039991161005b5780637b10399914610101578063c58343ef1461011f578063d845a4b31461014f578063e37b5ada1461018457610088565b80633864fd2c1461008d5780633a5381b5146100a95780635badbe4c146100c757806367a6c5a4146100e5575b600080fd5b6100a760048036038101906100a29190610bb9565b6101a0565b005b6100b16103e1565b6040516100be9190610c3a565b60405180910390f35b6100cf610407565b6040516100dc9190610c64565b60405180910390f35b6100ff60048036038101906100fa9190610c7f565b61040d565b005b61010961058c565b6040516101169190610d0b565b60405180910390f35b61013960048036038101906101349190610c7f565b6105b0565b6040516101469190610ed4565b60405180910390f35b61016960048036038101906101649190610c7f565b61071e565b60405161017b96959493929190610f4f565b60405180910390f35b61019e600480360381019061019991906110ec565b61080f565b005b60008054906101000a900473ffffffffffffffffffffffffffffffffffffffff1673ffffffffffffffffffffffffffffffffffffffff1663ba3d5939336040518263ffffffff1660e01b81526004016101f99190610c3a565b602060405180830381865afa158015610216573d6000803e3d6000fd5b505050506040513d601f19601f8201168201806040525081019061023a9190611193565b806102925750600160009054906101000a900473ffffffffffffffffffffffffffffffffffffffff1673ffffffffffffffffffffffffffffffffffffffff163373ffffffffffffffffffffffffffffffffffffffff16145b6102d1576040517f08c379a00000000000000000000000000000000000000000000000000000000081526004016102c89061120c565b60405180910390fd5b6000821180156102e357506003548211155b610322576040517f08c379a000000000000000000000000000000000000000000000000000000000815260040161031990611278565b60405180910390fd5b600060026000848152602001908152602001600020905060038081111561034c5761034b610dd4565b5b8160050160009054906101000a900460ff1660038111156103705761036f610dd4565b5b036103b0576040517f08c379a00000000000000000000000000000000000000000000000000000000081526004016103a7906112e4565b60405180910390fd5b818160050160006101000a81548160ff021916908360038111156103d7576103d6610dd4565b5b0217905550505050565b600160009054906101000a900473ffffffffffffffffffffffffffffffffffffffff1681565b60035481565b60006002600083815260200190815260200160002090503373ffffffffffffffffffffffffffffffffffffffff168160010160009054906101000a900473ffffffffffffffffffffffffffffffffffffffff1673ffffffffffffffffffffffffffffffffffffffff16146104b6576040517f08c379a00000000000000000000000000000000000000000000000000000000081526004016104ad90611350565b60405180910390fd5b600060038111156104ca576104c9610dd4565b5b8160050160009054906101000a900460ff1660038111156104ee576104ed610dd4565b5b1461052e576040517f08c379a0000000000000000000000000000000000000000000000000000000008152600401610525906113bc565b60405180910390fd5b60038160050160006101000a81548160ff0219169083600381111561055657610555610dd4565b5b0217905550817f4e8e8604bc9eee5474f6abde861f4c91e4f14cf6a05426647d604c4fcb7833fa60405160405180910390a25050565b60008054906101000a900473ffffffffffffffffffffffffffffffffffffffff1681565b6105b8610aec565b600260008381526020019081526020016000206040518060c0016040529081600082015481526020016001820160009054906101000a900473ffffffffffffffffffffffffffffffffffffffff1673ffffffffffffffffffffffffffffffffffffffff1673ffffffffffffffffffffffffffffffffffffffff168152602001600282015481526020016003820154815260200160048201805461065a9061140b565b80601f01602080910402602001604051908101604052809291908181526020018280546106869061140b565b80156106d35780601f106106a8576101008083540402835291602001916106d3565b820191906000526020600020905b8154815290600101906020018083116106b657829003601f168201915b505050505081526020016005820160009054906101000a900460ff16600381111561070157610700610dd4565b5b600381111561071357610712610dd4565b5b815250509050919050565b60026020528060005260406000206000915090508060000154908060010160009054906101000a900473ffffffffffffffffffffffffffffffffffffffff16908060020154908060030154908060040180546107799061140b565b80601f01602080910402602001604051908101604052809291908181526020018280546107a59061140b565b80156107f25780601f106107c7576101008083540402835291602001916107f2565b820191906000526020600020905b8154815290600101906020018083116107d557829003601f168201915b5050505050908060050160009054906101000a900460ff16905086565b60008054906101000a900473ffffffffffffffffffffffffffffffffffffffff1673ffffffffffffffffffffffffffffffffffffffff1663ba3d5939336040518263ffffffff1660e01b81526004016108689190610c3a565b602060405180830381865afa158015610885573d6000803e3d6000fd5b505050506040513d601f19601f820116820180604052508101906108a99190611193565b6108e8576040517f08c379a00000000000000000000000000000000000000000000000000000000081526004016108df90611488565b60405180910390fd5b6000831161092b576040517f08c379a00000000000000000000000000000000000000000000000000000000081526004016109229061151a565b60405180910390fd5b6000821161096e576040517f08c379a000000000000000000000000000000000000000000000000000000000815260040161096590611586565b60405180910390fd5b60036000815480929190610981906115d5565b91905055506040518060c0016040528060035481526020013373ffffffffffffffffffffffffffffffffffffffff168152602001848152602001838152602001828152602001600060038111156109db576109da610dd4565b5b8152506002600060035481526020019081526020016000206000820151816000015560208201518160010160006101000a81548173ffffffffffffffffffffffffffffffffffffffff021916908373ffffffffffffffffffffffffffffffffffffffff16021790555060408201518160020155606082015181600301556080820151816004019081610a6d91906117bf565b5060a08201518160050160006101000a81548160ff02191690836003811115610a9957610a98610dd4565b5b02179055509050503373ffffffffffffffffffffffffffffffffffffffff166003547f233bb55fd57b21b8a3d15c9ad8fbbab435fe4cf2865cc654f6a57d9d4d8cda5460405160405180910390a3505050565b6040518060c0016040528060008152602001600073ffffffffffffffffffffffffffffffffffffffff16815260200160008152602001600081526020016060815260200160006003811115610b4457610b43610dd4565b5b81525090565b6000604051905090565b600080fd5b600080fd5b6000819050919050565b610b7181610b5e565b8114610b7c57600080fd5b50565b600081359050610b8e81610b68565b92915050565b60048110610ba157600080fd5b50565b600081359050610bb381610b94565b92915050565b60008060408385031215610bd057610bcf610b54565b5b6000610bde85828601610b7f565b9250506020610bef85828601610ba4565b9150509250929050565b600073ffffffffffffffffffffffffffffffffffffffff82169050919050565b6000610c2482610bf9565b9050919050565b610c3481610c19565b82525050565b6000602082019050610c4f6000830184610c2b565b92915050565b610c5e81610b5e565b82525050565b6000602082019050610c796000830184610c55565b92915050565b600060208284031215610c9557610c94610b54565b5b6000610ca384828501610b7f565b91505092915050565b6000819050919050565b6000610cd1610ccc610cc784610bf9565b610cac565b610bf9565b9050919050565b6000610ce382610cb6565b9050919050565b6000610cf582610cd8565b9050919050565b610d0581610cea565b82525050565b6000602082019050610d206000830184610cfc565b92915050565b610d2f81610b5e565b82525050565b610d3e81610c19565b82525050565b600081519050919050565b600082825260208201905092915050565b60005b83811015610d7e578082015181840152602081019050610d63565b60008484015250505050565b6000601f19601f8301169050919050565b6000610da682610d44565b610db08185610d4f565b9350610dc0818560208601610d60565b610dc981610d8a565b840191505092915050565b7f4e487b7100000000000000000000000000000000000000000000000000000000600052602160045260246000fd5b60048110610e1457610e13610dd4565b5b50565b6000819050610e2582610e03565b919050565b6000610e3582610e17565b9050919050565b610e4581610e2a565b82525050565b600060c083016000830151610e636000860182610d26565b506020830151610e766020860182610d35565b506040830151610e896040860182610d26565b506060830151610e9c6060860182610d26565b5060808301518482036080860152610eb48282610d9b565b91505060a0830151610ec960a0860182610e3c565b508091505092915050565b60006020820190508181036000830152610eee8184610e4b565b905092915050565b600082825260208201905092915050565b6000610f1282610d44565b610f1c8185610ef6565b9350610f2c818560208601610d60565b610f3581610d8a565b840191505092915050565b610f4981610e2a565b82525050565b600060c082019050610f646000830189610c55565b610f716020830188610c2b565b610f7e6040830187610c55565b610f8b6060830186610c55565b8181036080830152610f9d8185610f07565b9050610fac60a0830184610f40565b979650505050505050565b600080fd5b600080fd5b7f4e487b7100000000000000000000000000000000000000000000000000000000600052604160045260246000fd5b610ff982610d8a565b810181811067ffffffffffffffff8211171561101857611017610fc1565b5b80604052505050565b600061102b610b4a565b90506110378282610ff0565b919050565b600067ffffffffffffffff82111561105757611056610fc1565b5b61106082610d8a565b9050602081019050919050565b82818337600083830152505050565b600061108f61108a8461103c565b611021565b9050828152602081018484840111156110ab576110aa610fbc565b5b6110b684828561106d565b509392505050565b600082601f8301126110d3576110d2610fb7565b5b81356110e384826020860161107c565b91505092915050565b60008060006060848603121561110557611104610b54565b5b600061111386828701610b7f565b935050602061112486828701610b7f565b925050604084013567ffffffffffffffff81111561114557611144610b59565b5b611151868287016110be565b9150509250925092565b60008115159050919050565b6111708161115b565b811461117b57600080fd5b50565b60008151905061118d81611167565b92915050565b6000602082840312156111a9576111a8610b54565b5b60006111b78482850161117e565b91505092915050565b7f6e6f7420616c6c6f776564000000000000000000000000000000000000000000600082015250565b60006111f6600b83610ef6565b9150611201826111c0565b602082019050919050565b60006020820190508181036000830152611225816111e9565b9050919050565b7f496e76616c696420726571756573742069640000000000000000000000000000600082015250565b6000611262601283610ef6565b915061126d8261122c565b602082019050919050565b6000602082019050818103600083015261129181611255565b9050919050565b7f5265717565737420616c72656164792063616e63656c65640000000000000000600082015250565b60006112ce601883610ef6565b91506112d982611298565b602082019050919050565b600060208201905081810360008301526112fd816112c1565b9050919050565b7f6e6f742072657175657374206f776e6572000000000000000000000000000000600082015250565b600061133a601183610ef6565b915061134582611304565b602082019050919050565b600060208201905081810360008301526113698161132d565b9050919050565b7f6e6f7420706f737369626c6520746f2063616e63656c6c656400000000000000600082015250565b60006113a6601983610ef6565b91506113b182611370565b602082019050919050565b600060208201905081810360008301526113d581611399565b9050919050565b7f4e487b7100000000000000000000000000000000000000000000000000000000600052602260045260246000fd5b6000600282049050600182168061142357607f821691505b602082108103611436576114356113dc565b5b50919050565b7f6f6e6c7920766172696566696564207573657220616c6c6f7765000000000000600082015250565b6000611472601a83610ef6565b915061147d8261143c565b602082019050919050565b600060208201905081810360008301526114a181611465565b9050919050565b7f706c6561736520696e736572742076616c696420656e657267795f726571756960008201527f7265000000000000000000000000000000000000000000000000000000000000602082015250565b6000611504602283610ef6565b915061150f826114a8565b604082019050919050565b60006020820190508181036000830152611533816114f7565b9050919050565b7f706c6561736520656e746572207468652076616c696420656e65726779000000600082015250565b6000611570601d83610ef6565b915061157b8261153a565b602082019050919050565b6000602082019050818103600083015261159f81611563565b9050919050565b7f4e487b7100000000000000000000000000000000000000000000000000000000600052601160045260246000fd5b60006115e082610b5e565b91507fffffffffffffffffffffffffffffffffffffffffffffffffffffffffffffffff8203611612576116116115a6565b5b600182019050919050565b60008190508160005260206000209050919050565b60006020601f8301049050919050565b600082821b905092915050565b60006008830261167f7fffffffffffffffffffffffffffffffffffffffffffffffffffffffffffffffff82611642565b6116898683611642565b95508019841693508086168417925050509392505050565b60006116bc6116b76116b284610b5e565b610cac565b610b5e565b9050919050565b6000819050919050565b6116d6836116a1565b6116ea6116e2826116c3565b84845461164f565b825550505050565b600090565b6116ff6116f2565b61170a8184846116cd565b505050565b5b8181101561172e576117236000826116f7565b600181019050611710565b5050565b601f821115611773576117448161161d565b61174d84611632565b8101602085101561175c578190505b61177061176885611632565b83018261170f565b50505b505050565b600082821c905092915050565b600061179660001984600802611778565b1980831691505092915050565b60006117af8383611785565b9150826002028217905092915050565b6117c882610d44565b67ffffffffffffffff8111156117e1576117e0610fc1565b5b6117eb825461140b565b6117f6828285611732565b600060209050601f8311600181146118295760008415611817578287015190505b61182185826117a3565b865550611889565b601f1984166118378661161d565b60005b8281101561185f5784890151825560018201915060208501945060208101905061183a565b8683101561187c5784890151611878601f891682611785565b8355505b6001600288020188555050505b50505050505056fea2646970667358221220f77f54acf285d03e47ba384fb5dbc2411f094afd4c8cde0b7cefdc8295d1fc6f64736f6c634300081c0033",
  "linkReferences": {},
  "deployedLinkReferences": {}
}