{
  "_format": "hh-sol-artifact-1",
  "contractName": "Userregistry",
  "sourceName": "contracts/VehicleRegistry.sol",
  "abi": [
    {
      "inputs": [],
      "stateMutability": "nonpayable",
      "type": "constructor"
    },
    {
      "inputs": [],
      "name": "AccessControlBadConfirmation",
      "type": "error"
    },
    {
      "inputs": [
        {
          "internalType": "address",
          "name": "account",
          "type": "address"
        },
        {
          "internalType": "bytes32",
          "name": "neededRole",
          "type": "bytes32"
        }
      ],
      "name": "AccessControlUnauthorizedAccount",
      "type": "error"
    },
    {
      "inputs": [],
      "name": "AlreadyRegistered",
      "type": "error"
    },
    {
      "inputs": [],
      "name": "AlreadyVerified",
      "type": "error"
    },
    {
      "inputs": [],
      "name": "Blacklisted",
      "type": "error"
    },
    {
      "inputs": [],
      "name": "InvalidRole",
      "type": "error"
    },
    {
      "inputs": [],
      "name": "NotBlacklisted",
      "type": "error"
    },
    {
      "inputs": [],
      "name": "NotRegistered",
      "type": "error"
    },
    {
      "anonymous": false,
      "inputs": [
        {
          "indexed": true,
          "internalType": "address",
          "name": "user",
          "type": "address"
        },
        {
          "indexed": false,
          "internalType": "uint256",
          "name": "newReputation",
          "type": "uint256"
        }
      ],
      "name": "ReputationUpdated",
      "type": "event"
    },
    {
      "anonymous": false,
      "inputs": [
        {
          "indexed": true,
          "internalType": "bytes32",
          "name": "role",
          "type": "bytes32"
        },
        {
          "indexed": true,
          "internalType": "bytes32",
          "name": "previousAdminRole",
          "type": "bytes32"
        },
        {
          "indexed": true,
          "internalType": "bytes32",
          "name": "newAdminRole",
          "type": "bytes32"
        }
      ],
      "name": "RoleAdminChanged",
      "type": "event"
    },
    {
      "anonymous": false,
      "inputs": [
        {
          "indexed": true,
          "internalType": "bytes32",
          "name": "role",
          "type": "bytes32"
        },
        {
          "indexed": true,
          "internalType": "address",
          "name": "account",
          "type": "address"
        },
        {
          "indexed": true,
          "internalType": "address",
          "name": "sender",
          "type": "address"
        }
      ],
      "name": "RoleGranted",
      "type": "event"
    },
    {
      "anonymous": false,
      "inputs": [
        {
          "indexed": true,
          "internalType": "bytes32",
          "name": "role",
          "type": "bytes32"
        },
        {
          "indexed": true,
          "internalType": "address",
          "name": "account",
          "type": "address"
        },
        {
          "indexed": true,
          "internalType": "address",
          "name": "sender",
          "type": "address"
        }
      ],
      "name": "RoleRevoked",
      "type": "event"
    },
    {
      "anonymous": false,
      "inputs": [
        {
          "indexed": true,
          "internalType": "address",
          "name": "user",
          "type": "address"
        },
        {
          "indexed": false,
          "internalType": "enum Userregistry.Role",
          "name": "role",
          "type": "uint8"
        }
      ],
      "name": "RoleUpdated",
      "type": "event"
    },
    {
      "anonymous": false,
      "inputs": [
        {
          "indexed": true,
          "internalType": "address",
          "name": "user",
          "type": "address"
        }
      ],
      "name": "UserBlacklisted",
      "type": "event"
    },
    {
      "anonymous": false,
      "inputs": [
        {
          "indexed": true,
          "internalType": "address",
          "name": "user",
          "type": "address"
        }
      ],
      "name": "UserRegistered",
      "type": "event"
    },
    {
      "anonymous": false,
      "inputs": [
        {
          "indexed": true,
          "internalType": "address",
          "name": "user",
          "type": "address"
        }
      ],
      "name": "UserUnblacklisted",
      "type": "event"
    },
    {
      "anonymous": false,
      "inputs": [
        {
          "indexed": true,
          "internalType": "address",
          "name": "user",
          "type": "address"
        }
      ],
      "name": "UserVerified",
      "type": "event"
    },
    {
      "inputs": [],
      "name": "ADMIN_ROLE",
      "outputs": [
        {
          "internalType": "bytes32",
          "name": "",
          "type": "bytes32"
        }
      ],
      "stateMutability": "view",
      "type": "function"
    },
    {
      "inputs": [],
      "name": "DEFAULT_ADMIN_ROLE",
      "outputs": [
        {
          "internalType": "bytes32",
          "name": "",
          "type": "bytes32"
        }
      ],
      "stateMutability": "view",
      "type": "function"
    },
    {
      "inputs": [],
      "name": "VERIFIER_ROLE",
      "outputs": [
        {
          "internalType": "bytes32",
          "name": "",
          "type": "bytes32"
        }
      ],
      "stateMutability": "view",
      "type": "function"
    },
    {
      "inputs": [],
      "name": "admin",
      "outputs": [
        {
          "internalType": "address",
          "name": "",
          "type": "address"
        }
      ],
      "stateMutability": "view",
      "type": "function"
    },
    {
      "inputs": [
        {
          "internalType": "address[]",
          "name": "users",
          "type": "address[]"
        }
      ],
      "name": "batchVerify",
      "outputs": [],
      "stateMutability": "nonpayable",
      "type": "function"
    },
    {
      "inputs": [
        {
          "internalType": "address",
          "name": "",
          "type": "address"
        }
      ],
      "name": "blacklisted",
      "outputs": [
        {
          "internalType": "bool",
          "name": "",
          "type": "bool"
        }
      ],
      "stateMutability": "view",
      "type": "function"
    },
    {
      "inputs": [
        {
          "internalType": "address",
          "name": "_user",
          "type": "address"
        },
        {
          "internalType": "uint256",
          "name": "amount",
          "type": "uint256"
        }
      ],
      "name": "decreaseReputation",
      "outputs": [],
      "stateMutability": "nonpayable",
      "type": "function"
    },
    {
      "inputs": [
        {
          "internalType": "address",
          "name": "_user",
          "type": "address"
        }
      ],
      "name": "getReputation",
      "outputs": [
        {
          "internalType": "uint256",
          "name": "",
          "type": "uint256"
        }
      ],
      "stateMutability": "view",
      "type": "function"
    },
    {
      "inputs": [
        {
          "internalType": "bytes32",
          "name": "role",
          "type": "bytes32"
        }
      ],
      "name": "getRoleAdmin",
      "outputs": [
        {
          "internalType": "bytes32",
          "name": "",
          "type": "bytes32"
        }
      ],
      "stateMutability": "view",
      "type": "function"
    },
    {
      "inputs": [
        {
          "internalType": "address",
          "name": "_user",
          "type": "address"
        }
      ],
      "name": "getuser",
      "outputs": [
        {
          "components": [
            {
              "internalType": "address",
              "name": "wallet",
              "type": "address"
            },
            {
              "internalType": "string",
              "name": "evmode",
              "type": "string"
            },
            {
              "internalType": "uint256",
              "name": "batterycapacity",
              "type": "uint256"
            },
            {
              "internalType": "bool",
              "name": "isRegister",
              "type": "bool"
            },
            {
              "internalType": "bool",
              "name": "isvarified",
              "type": "bool"
            },
            {
              "internalType": "enum Userregistry.Role",
              "name": "role",
              "type": "uint8"
            },
            {
              "internalType": "uint256",
              "name": "reputation",
              "type": "uint256"
            }
          ],
          "internalType": "struct Userregistry.User",
          "name": "",
          "type": "tuple"
        }
      ],
      "stateMutability": "view",
      "type": "function"
    },
    {
      "inputs": [
        {
          "internalType": "bytes32",
          "name": "role",
          "type": "bytes32"
        },
        {
          "internalType": "address",
          "name": "account",
          "type": "address"
        }
      ],
      "name": "grantRole",
      "outputs": [],
      "stateMutability": "nonpayable",
      "type": "function"
    },
    {
      "inputs": [
        {
          "internalType": "bytes32",
          "name": "role",
          "type": "bytes32"
        },
        {
          "internalType": "address",
          "name": "account",
          "type": "address"
        }
      ],
      "name": "hasRole",
      "outputs": [
        {
          "internalType": "bool",
          "name": "",
          "type": "bool"
        }
      ],
      "stateMutability": "view",
      "type": "function"
    },
    {
      "inputs": [
        {
          "internalType": "address",
          "name": "_user",
          "type": "address"
        },
        {
          "internalType": "uint256",
          "name": "amount",
          "type": "uint256"
        }
      ],
      "name": "increaseReputation",
      "outputs": [],
      "stateMutability": "nonpayable",
      "type": "function"
    },
    {
      "inputs": [
        {
          "internalType": "address",
          "name": "_user",
          "type": "address"
        }
      ],
      "name": "isRegistered",
      "outputs": [
        {
          "internalType": "bool",
          "name": "",
          "type": "bool"
        }
      ],
      "stateMutability": "view",
      "type": "function"
    },
    {
      "inputs": [
        {
          "internalType": "address",
          "name": "_user",
          "type": "address"
        }
      ],
      "name": "isvarifieduser",
      "outputs": [
        {
          "internalType": "bool",
          "name": "",
          "type": "bool"
        }
      ],
      "stateMutability": "view",
      "type": "function"
    },
    {
      "inputs": [
        {
          "internalType": "string",
          "name": "model_ev",
          "type": "string"
        },
        {
          "internalType": "uint256",
          "name": "_battarycapacity",
          "type": "uint256"
        },
        {
          "internalType": "enum Userregistry.Role",
          "name": "_role",
          "type": "uint8"
        }
      ],
      "name": "register_user",
      "outputs": [],
      "stateMutability": "nonpayable",
      "type": "function"
    },
    {
      "inputs": [
        {
          "internalType": "address",
          "name": "_user",
          "type": "address"
        }
      ],
      "name": "removeFromBlocklist",
      "outputs": [],
      "stateMutability": "nonpayable",
      "type": "function"
    },
    {
      "inputs": [
        {
          "internalType": "bytes32",
          "name": "role",
          "type": "bytes32"
        },
        {
          "internalType": "address",
          "name": "callerConfirmation",
          "type": "address"
        }
      ],
      "name": "renounceRole",
      "outputs": [],
      "stateMutability": "nonpayable",
      "type": "function"
    },
    {
      "inputs": [
        {
          "internalType": "bytes32",
          "name": "role",
          "type": "bytes32"
        },
        {
          "internalType": "address",
          "name": "account",
          "type": "address"
        }
      ],
      "name": "revokeRole",
      "outputs": [],
      "stateMutability": "nonpayable",
      "type": "function"
    },
    {
      "inputs": [
        {
          "internalType": "bytes4",
          "name": "interfaceId",
          "type": "bytes4"
        }
      ],
      "name": "supportsInterface",
      "outputs": [
        {
          "internalType": "bool",
          "name": "",
          "type": "bool"
        }
      ],
      "stateMutability": "view",
      "type": "function"
    },
    {
      "inputs": [
        {
          "internalType": "enum Userregistry.Role",
          "name": "_role",
          "type": "uint8"
        }
      ],
      "name": "update_role",
      "outputs": [],
      "stateMutability": "nonpayable",
      "type": "function"
    },
    {
      "inputs": [
        {
          "internalType": "address",
          "name": "_user",
          "type": "address"
        }
      ],
      "name": "userblocklist",
      "outputs": [],
      "stateMutability": "nonpayable",
      "type": "function"
    },
    {
      "inputs": [
        {
          "internalType": "address",
          "name": "_user",
          "type": "address"
        }
      ],
      "name": "varifyuser",
      "outputs": [],
      "stateMutability": "nonpayable",
      "type": "function"
    }
  ],
  "bytecode": "0x608060405234801561000f575f5ffd5b50600180546001600160a01b03191633908117909155610030905f9061008c565b5061005b7fa49807205ce4d355092ef5a8a18f56e8913cf4a201fbe287825b095693c217753361008c565b506100867f0ce23c3e399818cfee81a7ab0880f714e53d7672b08df0fa62f2843416e1ea093361008c565b50610135565b5f828152602081815260408083206001600160a01b038516845290915281205460ff1661012c575f838152602081815260408083206001600160a01b03861684529091529020805460ff191660011790556100e43390565b6001600160a01b0316826001600160a01b0316847f2f8788117e7eff1d82e926ec794901d17c78024a50270940304540a733656f0d60405160405180910390a450600161012f565b505f5b92915050565b6114c9806101425f395ff3fe608060405234801561000f575f5ffd5b5060043610610148575f3560e01c8063ba3d5939116100bf578063dbac26e911610079578063dbac26e914610318578063ded86d681461033a578063e3f9fd981461034d578063e7705db614610360578063ed9fa61b14610387578063f851a4401461039a575f5ffd5b8063ba3d59391461025e578063c033190514610291578063c3c5a547146102a4578063c4b86384146102d2578063cd571874146102e5578063d547741f14610305575f5ffd5b80633e736a50116101105780633e736a50146101df578063592ca850146101f257806375b238fc1461020557806391d14854146102195780639c89a0e21461022c578063a217fddf14610257575f5ffd5b806301ffc9a71461014c5780630b53210914610174578063248a9ca3146101895780632f2ff15d146101b957806336568abe146101cc575b5f5ffd5b61015f61015a366004610fc6565b6103c5565b60405190151581526020015b60405180910390f35b61018761018236600461101b565b6103fb565b005b6101ab6101973660046110e4565b5f9081526020819052604090206001015490565b60405190815260200161016b565b6101876101c7366004611111565b6105b4565b6101876101da366004611111565b6105de565b6101876101ed36600461113b565b610616565b6101876102003660046111ac565b61080a565b6101ab5f5160206114745f395f51905f5281565b61015f610227366004611111565b6108a2565b6101ab61023a3660046111ac565b6001600160a01b03165f9081526002602052604090206004015490565b6101ab5f81565b61015f61026c3660046111ac565b6001600160a01b03165f90815260026020526040902060030154610100900460ff1690565b61018761029f3660046111ac565b6108ca565b61015f6102b23660046111ac565b6001600160a01b03165f9081526002602052604090206003015460ff1690565b6101876102e03660046111c5565b6109d3565b6102f86102f33660046111ac565b610ab5565b60405161016b9190611212565b610187610313366004611111565b610c17565b61015f6103263660046111ac565b60036020525f908152604090205460ff1681565b6101876103483660046112b1565b610c3b565b61018761035b3660046111ac565b610d11565b6101ab7f0ce23c3e399818cfee81a7ab0880f714e53d7672b08df0fa62f2843416e1ea0981565b6101876103953660046112b1565b610d74565b6001546103ad906001600160a01b031681565b6040516001600160a01b03909116815260200161016b565b5f6001600160e01b03198216637965db0b60e01b14806103f557506301ffc9a760e01b6001600160e01b03198316145b92915050565b335f9081526003602052604090205460ff161561042b576040516309550c7760e01b815260040160405180910390fd5b335f9081526002602052604090206003015460ff161561045e57604051630ea075bf60e21b815260040160405180910390fd5b5f816003811115610471576104716111de565b0361048f57604051636caa20b560e11b815260040160405180910390fd5b6040805160e08101825233815260208101859052908101839052600160608201525f608082015260a081018260038111156104cc576104cc6111de565b81525f60209182018190523381526002825260409020825181546001600160a01b0319166001600160a01b03909116178155908201516001820190610511908261135c565b5060408201516002820155606082015160038083018054608086015115156101000261ff00199415159490941661ffff19909116179290921780835560a0850151929162ff0000199091169062010000908490811115610573576105736111de565b021790555060c0919091015160049091015560405133907f54db7a5cb4735e1aac1f53db512d3390390bb6637bd30ad4bf9fc98667d9b9b9905f90a2505050565b5f828152602081905260409020600101546105ce81610e84565b6105d88383610e91565b50505050565b6001600160a01b03811633146106075760405163334bd91960e11b815260040160405180910390fd5b6106118282610f20565b505050565b61062d5f5160206114745f395f51905f52336108a2565b158015610661575061065f7f0ce23c3e399818cfee81a7ab0880f714e53d7672b08df0fa62f2843416e1ea09336108a2565b155b156106995760405163e2517d3f60e01b81523360048201525f5160206114745f395f51905f5260248201526044015b60405180910390fd5b5f5b818110156106115760025f8484848181106106b8576106b8611417565b90506020020160208101906106cd91906111ac565b6001600160a01b0316815260208101919091526040015f206003015460ff168015610743575060025f84848481811061070857610708611417565b905060200201602081019061071d91906111ac565b6001600160a01b0316815260208101919091526040015f2060030154610100900460ff16155b1561080257600160025f85858581811061075f5761075f611417565b905060200201602081019061077491906111ac565b6001600160a01b0316815260208101919091526040015f2060030180549115156101000261ff00199092169190911790558282828181106107b7576107b7611417565b90506020020160208101906107cc91906111ac565b6001600160a01b03167fa6625d2d26e786e2f473111bea4b2fcdbbf1863d883a2359989ce3a103d2972a60405160405180910390a25b60010161069b565b5f5160206114745f395f51905f5261082181610e84565b6001600160a01b0382165f9081526003602052604090205460ff16610859576040516314afda6d60e31b815260040160405180910390fd5b6001600160a01b0382165f81815260036020526040808220805460ff19169055517f0e8627d8a3ba37f2a00b3ae4503c200e696f351225f168df1d3e84eed8009ff99190a25050565b5f918252602082815260408084206001600160a01b0393909316845291905290205460ff1690565b6108e15f5160206114745f395f51905f52336108a2565b15801561091557506109137f0ce23c3e399818cfee81a7ab0880f714e53d7672b08df0fa62f2843416e1ea09336108a2565b155b156109485760405163e2517d3f60e01b81523360048201525f5160206114745f395f51905f526024820152604401610690565b6001600160a01b0381165f9081526002602052604090206003015460ff166109835760405163aba4733960e01b815260040160405180910390fd5b6001600160a01b0381165f81815260026020526040808220600301805461ff001916610100179055517fa6625d2d26e786e2f473111bea4b2fcdbbf1863d883a2359989ce3a103d2972a9190a250565b335f9081526002602052604090206003015460ff16610a055760405163aba4733960e01b815260040160405180910390fd5b5f816003811115610a1857610a186111de565b03610a3657604051636caa20b560e11b815260040160405180910390fd5b335f90815260026020526040902060039081018054839262ff0000199091169062010000908490811115610a6c57610a6c6111de565b0217905550336001600160a01b03167fc3f8f61911a1537261f77e2703626e158e299a98e341024ecaa26bbd1d884c6482604051610aaa919061142b565b60405180910390a250565b6040805160e080820183525f808352606060208085018290528486018390529084018290526080840182905260a0840182905260c084018290526001600160a01b03868116835260028252918590208551938401909552845490911682526001840180549394929391840191610b2a906112d9565b80601f0160208091040260200160405190810160405280929190818152602001828054610b56906112d9565b8015610ba15780601f10610b7857610100808354040283529160200191610ba1565b820191905f5260205f20905b815481529060010190602001808311610b8457829003601f168201915b50505091835250506002820154602082015260038083015460ff808216151560408501526101008204811615156060850152608090930192620100009091041690811115610bf157610bf16111de565b6003811115610c0257610c026111de565b81526020016004820154815250509050919050565b5f82815260208190526040902060010154610c3181610e84565b6105d88383610f20565b5f5160206114745f395f51905f52610c5281610e84565b6001600160a01b0383165f9081526002602052604090206003015460ff16610c8d5760405163aba4733960e01b815260040160405180910390fd5b6001600160a01b0383165f9081526002602052604081206004018054849290610cb790849061144d565b90915550506001600160a01b0383165f818152600260209081526040918290206004015491519182527ffc577563f1b9a0461e24abef1e1fcc0d33d3d881f20b5df6dda59de4aae2c82191015b60405180910390a2505050565b5f5160206114745f395f51905f52610d2881610e84565b6001600160a01b0382165f81815260036020526040808220805460ff19166001179055517f7f8b7dc89dae85811a7a85800b892b5816ad5d381c856f1b56490f8fc470c9cb9190a25050565b5f5160206114745f395f51905f52610d8b81610e84565b6001600160a01b0383165f9081526002602052604090206003015460ff16610dc65760405163aba4733960e01b815260040160405180910390fd5b6001600160a01b0383165f908152600260205260409020600401548211610e1c576001600160a01b0383165f9081526002602052604081206004018054849290610e11908490611460565b90915550610e389050565b6001600160a01b0383165f908152600260205260408120600401555b6001600160a01b0383165f818152600260209081526040918290206004015491519182527ffc577563f1b9a0461e24abef1e1fcc0d33d3d881f20b5df6dda59de4aae2c8219101610d04565b610e8e8133610f89565b50565b5f610e9c83836108a2565b610f19575f838152602081815260408083206001600160a01b03861684529091529020805460ff19166001179055610ed13390565b6001600160a01b0316826001600160a01b0316847f2f8788117e7eff1d82e926ec794901d17c78024a50270940304540a733656f0d60405160405180910390a45060016103f5565b505f6103f5565b5f610f2b83836108a2565b15610f19575f838152602081815260408083206001600160a01b0386168085529252808320805460ff1916905551339286917ff6391f5c32d9c69d2a47ea670b442974b53935d1edc7fd64eb21e047a839171b9190a45060016103f5565b610f9382826108a2565b610fc25760405163e2517d3f60e01b81526001600160a01b038216600482015260248101839052604401610690565b5050565b5f60208284031215610fd6575f5ffd5b81356001600160e01b031981168114610fed575f5ffd5b9392505050565b634e487b7160e01b5f52604160045260245ffd5b803560048110611016575f5ffd5b919050565b5f5f5f6060848603121561102d575f5ffd5b833567ffffffffffffffff811115611043575f5ffd5b8401601f81018613611053575f5ffd5b803567ffffffffffffffff81111561106d5761106d610ff4565b604051601f8201601f19908116603f0116810167ffffffffffffffff8111828210171561109c5761109c610ff4565b6040528181528282016020018810156110b3575f5ffd5b816020840160208301375f6020928201830152945085013592506110db905060408501611008565b90509250925092565b5f602082840312156110f4575f5ffd5b5035919050565b80356001600160a01b0381168114611016575f5ffd5b5f5f60408385031215611122575f5ffd5b82359150611132602084016110fb565b90509250929050565b5f5f6020838503121561114c575f5ffd5b823567ffffffffffffffff811115611162575f5ffd5b8301601f81018513611172575f5ffd5b803567ffffffffffffffff811115611188575f5ffd5b8560208260051b840101111561119c575f5ffd5b6020919091019590945092505050565b5f602082840312156111bc575f5ffd5b610fed826110fb565b5f602082840312156111d5575f5ffd5b610fed82611008565b634e487b7160e01b5f52602160045260245ffd5b6004811061120e57634e487b7160e01b5f52602160045260245ffd5b9052565b602080825282516001600160a01b0316828201528281015160e06040840152805161010084018190525f928190830161012086015e5f6101208286010152604085015160608501526060850151915061126f608085018315159052565b608085015180151560a0860152915060a0850151915061129260c08501836111f2565b60c0949094015160e08401525050610120601f909201601f1916010190565b5f5f604083850312156112c2575f5ffd5b6112cb836110fb565b946020939093013593505050565b600181811c908216806112ed57607f821691505b60208210810361130b57634e487b7160e01b5f52602260045260245ffd5b50919050565b601f82111561061157805f5260205f20601f840160051c810160208510156113365750805b601f840160051c820191505b81811015611355575f8155600101611342565b5050505050565b815167ffffffffffffffff81111561137657611376610ff4565b61138a8161138484546112d9565b84611311565b6020601f8211600181146113bc575f83156113a55750848201515b5f19600385901b1c1916600184901b178455611355565b5f84815260208120601f198516915b828110156113eb57878501518255602094850194600190920191016113cb565b508482101561140857868401515f19600387901b60f8161c191681555b50505050600190811b01905550565b634e487b7160e01b5f52603260045260245ffd5b602081016103f582846111f2565b634e487b7160e01b5f52601160045260245ffd5b808201808211156103f5576103f5611439565b818103818111156103f5576103f561143956fea49807205ce4d355092ef5a8a18f56e8913cf4a201fbe287825b095693c21775a2646970667358221220d47ce929deb1d7a7a95e39adc7280e3446fed94d76c96f7e194e2cf1b63314e464736f6c634300081c0033",
  "linkReferences": {},
  "deployedLinkReferences": {}
}