{
  "_format": "hh-sol-artifact-1",
  "contractName": "MatchingContract",
  "sourceName": "contracts/MatchingContract.sol",
  "abi": [
    {
      "inputs": [
        {
          "internalType": "address",
          "name": "_registry",
          "type": "address"
        },
        {
          "internalType": "address",
          "name": "_chargingcontract",
          "type": "address"
        }
      ],
      "stateMutability": "nonpayable",
      "type": "constructor"
    },
    {
      "anonymous": false,
      "inputs": [
        {
          "indexed": true,
          "internalType": "uint256",
          "name": "request_id",
          "type": "uint256"
        },
        {
          "indexed": true,
          "internalType": "address",
          "name": "receiver",
          "type": "address"
        }
      ],
      "name": "acceptedrequest",
      "type": "event"
    },
    {
      "inputs": [
        {
          "internalType": "uint256",
          "name": "_requestedid",
          "type": "uint256"
        }
      ],
      "name": "acceptrequest",
      "outputs": [],
      "stateMutability": "nonpayable",
      "type": "function"
    },
    {
      "inputs": [],
      "name": "chargingcontract",
      "outputs": [
        {
          "internalType": "contract Ichargingrequest",
          "name": "",
          "type": "address"
        }
      ],
      "stateMutability": "view",
      "type": "function"
    },
    {
      "inputs": [
        {
          "internalType": "uint256",
          "name": "_requestId",
          "type": "uint256"
        }
      ],
      "name": "getMatch",
      "outputs": [
        {
          "components": [
            {
              "internalType": "uint256",
              "name": "requestid",
              "type": "uint256"
            },
            {
              "internalType": "address",
              "name": "reciever",
              "type": "address"
            },
            {
              "internalType": "address",
              "name": "donor",
              "type": "address"
            },
            {
              "internalType": "bool",
              "name": "active",
              "type": "bool"
            }
          ],
          "internalType": "struct MatchingContract.Match",
          "name": "",
          "type": "tuple"
        }
      ],
      "stateMutability": "view",
      "type": "function"
    },
    {
      "inputs": [
        {
          "internalType": "uint256",
          "name": "",
          "type": "uint256"
        }
      ],
      "name": "matching",
      "outputs": [
        {
          "internalType": "uint256",
          "name": "requestid",
          "type": "uint256"
        },
        {
          "internalType": "address",
          "name": "reciever",
          "type": "address"
        },
        {
          "internalType": "address",
          "name": "donor",
          "type": "address"
        },
        {
          "internalType": "bool",
          "name": "active",
          "type": "bool"
        }
      ],
      "stateMutability": "view",
      "type": "function"
    },
    {
      "inputs": [],
      "name": "registry",
      "outputs": [
        {
          "internalType": "contract IuserRegistry",
          "name": "",
          "type": "address"
        }
      ],
      "stateMutability": "view",
      "type": "function"
    },
    {
      "inputs": [
        {
          "internalType": "uint256",
          "name": "",
          "type": "uint256"
        }
      ],
      "name": "requestDonor",
      "outputs": [
        {
          "internalType": "address",
          "name": "",
          "type": "address"
        }
      ],
      "stateMutability": "view",
      "type": "function"
    }
  ],
  "bytecode": "0x608060405234801561001057600080fd5b506040516110a33803806110a38339818101604052810190610032919061011d565b816000806101000a81548173ffffffffffffffffffffffffffffffffffffffff021916908373ffffffffffffffffffffffffffffffffffffffff16021790555080600160006101000a81548173ffffffffffffffffffffffffffffffffffffffff021916908373ffffffffffffffffffffffffffffffffffffffff160217905550505061015d565b600080fd5b600073ffffffffffffffffffffffffffffffffffffffff82169050919050565b60006100ea826100bf565b9050919050565b6100fa816100df565b811461010557600080fd5b50565b600081519050610117816100f1565b92915050565b60008060408385031215610134576101336100ba565b5b600061014285828601610108565b925050602061015385828601610108565b9150509250929050565b610f378061016c6000396000f3fe608060405234801561001057600080fd5b50600436106100625760003560e01c80632415d692146100675780633d092b3d1461009a5780633e583d52146100ca5780637b103999146100e85780637d73056314610106578063b09666d314610136575b600080fd5b610081600480360381019061007c91906107e8565b610152565b6040516100919493929190610880565b60405180910390f35b6100b460048036038101906100af91906107e8565b6101cf565b6040516100c19190610947565b60405180910390f35b6100d26102cd565b6040516100df91906109c1565b60405180910390f35b6100f06102f3565b6040516100fd91906109fd565b60405180910390f35b610120600480360381019061011b91906107e8565b610317565b60405161012d9190610a18565b60405180910390f35b610150600480360381019061014b91906107e8565b61034a565b005b60026020528060005260406000206000915090508060000154908060010160009054906101000a900473ffffffffffffffffffffffffffffffffffffffff16908060020160009054906101000a900473ffffffffffffffffffffffffffffffffffffffff16908060020160149054906101000a900460ff16905084565b6101d7610748565b60026000838152602001908152602001600020604051806080016040529081600082015481526020016001820160009054906101000a900473ffffffffffffffffffffffffffffffffffffffff1673ffffffffffffffffffffffffffffffffffffffff1673ffffffffffffffffffffffffffffffffffffffff1681526020016002820160009054906101000a900473ffffffffffffffffffffffffffffffffffffffff1673ffffffffffffffffffffffffffffffffffffffff1673ffffffffffffffffffffffffffffffffffffffff1681526020016002820160149054906101000a900460ff1615151515815250509050919050565b600160009054906101000a900473ffffffffffffffffffffffffffffffffffffffff1681565b60008054906101000a900473ffffffffffffffffffffffffffffffffffffffff1681565b60036020528060005260406000206000915054906101000a900473ffffffffffffffffffffffffffffffffffffffff1681565b60008054906101000a900473ffffffffffffffffffffffffffffffffffffffff1673ffffffffffffffffffffffffffffffffffffffff1663ba3d5939336040518263ffffffff1660e01b81526004016103a39190610a18565b602060405180830381865afa1580156103c0573d6000803e3d6000fd5b505050506040513d601f19601f820116820180604052508101906103e49190610a5f565b610423576040517f08c379a000000000000000000000000000000000000000000000000000000000815260040161041a90610ae9565b60405180910390fd5b6000600160009054906101000a900473ffffffffffffffffffffffffffffffffffffffff1673ffffffffffffffffffffffffffffffffffffffff1663c58343ef836040518263ffffffff1660e01b81526004016104809190610b09565b600060405180830381865afa15801561049d573d6000803e3d6000fd5b505050506040513d6000823e3d601f19601f820116820180604052508101906104c69190610db1565b905060008160000151905060008260200151905060008360a00151905060008303610526576040517f08c379a000000000000000000000000000000000000000000000000000000000815260040161051d90610e46565b60405180910390fd5b6000600381111561053a57610539610e66565b5b81600381111561054d5761054c610e66565b5b1461058d576040517f08c379a000000000000000000000000000000000000000000000000000000000815260040161058490610ee1565b60405180910390fd5b336003600087815260200190815260200160002060006101000a81548173ffffffffffffffffffffffffffffffffffffffff021916908373ffffffffffffffffffffffffffffffffffffffff16021790555060405180608001604052808681526020018373ffffffffffffffffffffffffffffffffffffffff1681526020013373ffffffffffffffffffffffffffffffffffffffff16815260200160011515815250600260008781526020019081526020016000206000820151816000015560208201518160010160006101000a81548173ffffffffffffffffffffffffffffffffffffffff021916908373ffffffffffffffffffffffffffffffffffffffff16021790555060408201518160020160006101000a81548173ffffffffffffffffffffffffffffffffffffffff021916908373ffffffffffffffffffffffffffffffffffffffff16021790555060608201518160020160146101000a81548160ff0219169083151502179055509050503373ffffffffffffffffffffffffffffffffffffffff16857fb84313ad78425f3d01af3d1a405cfb83077f075a02c4ccd85035b90633e6186560405160405180910390a35050505050565b604051806080016040528060008152602001600073ffffffffffffffffffffffffffffffffffffffff168152602001600073ffffffffffffffffffffffffffffffffffffffff1681526020016000151581525090565b6000604051905090565b600080fd5b600080fd5b6000819050919050565b6107c5816107b2565b81146107d057600080fd5b50565b6000813590506107e2816107bc565b92915050565b6000602082840312156107fe576107fd6107a8565b5b600061080c848285016107d3565b91505092915050565b61081e816107b2565b82525050565b600073ffffffffffffffffffffffffffffffffffffffff82169050919050565b600061084f82610824565b9050919050565b61085f81610844565b82525050565b60008115159050919050565b61087a81610865565b82525050565b60006080820190506108956000830187610815565b6108a26020830186610856565b6108af6040830185610856565b6108bc6060830184610871565b95945050505050565b6108ce816107b2565b82525050565b6108dd81610844565b82525050565b6108ec81610865565b82525050565b60808201600082015161090860008501826108c5565b50602082015161091b60208501826108d4565b50604082015161092e60408501826108d4565b50606082015161094160608501826108e3565b50505050565b600060808201905061095c60008301846108f2565b92915050565b6000819050919050565b600061098761098261097d84610824565b610962565b610824565b9050919050565b60006109998261096c565b9050919050565b60006109ab8261098e565b9050919050565b6109bb816109a0565b82525050565b60006020820190506109d660008301846109b2565b92915050565b60006109e78261098e565b9050919050565b6109f7816109dc565b82525050565b6000602082019050610a1260008301846109ee565b92915050565b6000602082019050610a2d6000830184610856565b92915050565b610a3c81610865565b8114610a4757600080fd5b50565b600081519050610a5981610a33565b92915050565b600060208284031215610a7557610a746107a8565b5b6000610a8384828501610a4a565b91505092915050565b600082825260208201905092915050565b7f6f6e6c7920766172696669656420646f6e6f7220616c6c6f7765640000000000600082015250565b6000610ad3601b83610a8c565b9150610ade82610a9d565b602082019050919050565b60006020820190508181036000830152610b0281610ac6565b9050919050565b6000602082019050610b1e6000830184610815565b92915050565b600080fd5b6000601f19601f8301169050919050565b7f4e487b7100000000000000000000000000000000000000000000000000000000600052604160045260246000fd5b610b7282610b29565b810181811067ffffffffffffffff82111715610b9157610b90610b3a565b5b80604052505050565b6000610ba461079e565b9050610bb08282610b69565b919050565b600080fd5b600081519050610bc9816107bc565b92915050565b610bd881610844565b8114610be357600080fd5b50565b600081519050610bf581610bcf565b92915050565b600080fd5b600080fd5b600067ffffffffffffffff821115610c2057610c1f610b3a565b5b610c2982610b29565b9050602081019050919050565b60005b83811015610c54578082015181840152602081019050610c39565b60008484015250505050565b6000610c73610c6e84610c05565b610b9a565b905082815260208101848484011115610c8f57610c8e610c00565b5b610c9a848285610c36565b509392505050565b600082601f830112610cb757610cb6610bfb565b5b8151610cc7848260208601610c60565b91505092915050565b60048110610cdd57600080fd5b50565b600081519050610cef81610cd0565b92915050565b600060c08284031215610d0b57610d0a610b24565b5b610d1560c0610b9a565b90506000610d2584828501610bba565b6000830152506020610d3984828501610be6565b6020830152506040610d4d84828501610bba565b6040830152506060610d6184828501610bba565b606083015250608082015167ffffffffffffffff811115610d8557610d84610bb5565b5b610d9184828501610ca2565b60808301525060a0610da584828501610ce0565b60a08301525092915050565b600060208284031215610dc757610dc66107a8565b5b600082015167ffffffffffffffff811115610de557610de46107ad565b5b610df184828501610cf5565b91505092915050565b7f72657175657374206973206e6f7420666f756e64000000000000000000000000600082015250565b6000610e30601483610a8c565b9150610e3b82610dfa565b602082019050919050565b60006020820190508181036000830152610e5f81610e23565b9050919050565b7f4e487b7100000000000000000000000000000000000000000000000000000000600052602160045260246000fd5b7f72657175657374206973206e6f74206f70656e00000000000000000000000000600082015250565b6000610ecb601383610a8c565b9150610ed682610e95565b602082019050919050565b60006020820190508181036000830152610efa81610ebe565b905091905056fea2646970667358221220bc63cdb17996414f14b425b09d28ead78b7b2559fd3b070e453a1432783b1b2464736f6c634300081c0033",
  "linkReferences": {},
  "deployedLinkReferences": {}
}