{
  "_format": "hh-sol-artifact-1",
  "contractName": "EVChargingEscrow",
  "sourceName": "contracts/EVChargingEscrow.sol",
  "abi": [
    {
      "inputs": [
        {
          "internalType": "address",
          "name": "_registry",
          "type": "address"
        },
        {
          "internalType": "address",
          "name": "_validator",
          "type": "address"
        },
        {
          "internalType": "address",
          "name": "_feeReceiver",
          "type": "address"
        },
        {
          "internalType": "uint256",
          "name": "_feeBps",
          "type": "uint256"
        }
      ],
      "stateMutability": "nonpayable",
      "type": "constructor"
    },
    {
      "inputs": [],
      "name": "AcceptExpired",
      "type": "error"
    },
    {
      "inputs": [],
      "name": "AccessControlBadConfirmation",
      "type": "error"
    },
    {
      "inputs": [
        {
          "internalType": "address",
          "name": "account",
          "type": "address"
        },
        {
          "internalType": "bytes32",
          "name": "neededRole",
          "type": "bytes32"
        }
      ],
      "name": "AccessControlUnauthorizedAccount",
      "type": "error"
    },
    {
      "inputs": [],
      "name": "BadMinDelivery",
      "type": "error"
    },
    {
      "inputs": [],
      "name": "BadTimeout",
      "type": "error"
    },
    {
      "inputs": [],
      "name": "ContractPaused",
      "type": "error"
    },
    {
      "inputs": [],
      "name": "DisputeWindowClosed",
      "type": "error"
    },
    {
      "inputs": [],
      "name": "ECDSAInvalidSignature",
      "type": "error"
    },
    {
      "inputs": [
        {
          "internalType": "uint256",
          "name": "length",
          "type": "uint256"
        }
      ],
      "name": "ECDSAInvalidSignatureLength",
      "type": "error"
    },
    {
      "inputs": [
        {
          "internalType": "bytes32",
          "name": "s",
          "type": "bytes32"
        }
      ],
      "name": "ECDSAInvalidSignatureS",
      "type": "error"
    },
    {
      "inputs": [],
      "name": "FeeTooHigh",
      "type": "error"
    },
    {
      "inputs": [],
      "name": "InvalidSignature",
      "type": "error"
    },
    {
      "inputs": [
        {
          "internalType": "enum EVChargingEscrow.Status",
          "name": "current",
          "type": "uint8"
        },
        {
          "internalType": "enum EVChargingEscrow.Status",
          "name": "expected",
          "type": "uint8"
        }
      ],
      "name": "InvalidStatus",
      "type": "error"
    },
    {
      "inputs": [],
      "name": "NoDonor",
      "type": "error"
    },
    {
      "inputs": [],
      "name": "NoEscrow",
      "type": "error"
    },
    {
      "inputs": [],
      "name": "NotDisputable",
      "type": "error"
    },
    {
      "inputs": [],
      "name": "NotInDispute",
      "type": "error"
    },
    {
      "inputs": [],
      "name": "NotRequestOwner",
      "type": "error"
    },
    {
      "inputs": [],
      "name": "NotVerified",
      "type": "error"
    },
    {
      "inputs": [],
      "name": "NothingToWithdraw",
      "type": "error"
    },
    {
      "inputs": [],
      "name": "ReceiverCannotAccept",
      "type": "error"
    },
    {
      "inputs": [],
      "name": "ReentrancyGuardReentrantCall",
      "type": "error"
    },
    {
      "inputs": [],
      "name": "RequestNotFound",
      "type": "error"
    },
    {
      "inputs": [],
      "name": "SignatureRequired",
      "type": "error"
    },
    {
      "inputs": [],
      "name": "TransferFailed",
      "type": "error"
    },
    {
      "inputs": [],
      "name": "ZeroAddress",
      "type": "error"
    },
    {
      "inputs": [],
      "name": "ZeroAmount",
      "type": "error"
    },
    {
      "anonymous": false,
      "inputs": [
        {
          "indexed": true,
          "internalType": "uint256",
          "name": "id",
          "type": "uint256"
        }
      ],
      "name": "Canceled",
      "type": "event"
    },
    {
      "anonymous": false,
      "inputs": [
        {
          "indexed": true,
          "internalType": "uint256",
          "name": "id",
          "type": "uint256"
        },
        {
          "indexed": false,
          "internalType": "uint256",
          "name": "energyDelivered",
          "type": "uint256"
        },
        {
          "indexed": false,
          "internalType": "bool",
          "name": "signatureVerified",
          "type": "bool"
        }
      ],
      "name": "ChargingCompleted",
      "type": "event"
    },
    {
      "anonymous": false,
      "inputs": [
        {
          "indexed": true,
          "internalType": "uint256",
          "name": "id",
          "type": "uint256"
        },
        {
          "indexed": true,
          "internalType": "address",
          "name": "validator",
          "type": "address"
        }
      ],
      "name": "ChargingStarted",
      "type": "event"
    },
    {
      "anonymous": false,
      "inputs": [
        {
          "indexed": true,
          "internalType": "uint256",
          "name": "id",
          "type": "uint256"
        },
        {
          "indexed": true,
          "internalType": "address",
          "name": "opener",
          "type": "address"
        }
      ],
      "name": "DisputeOpened",
      "type": "event"
    },
    {
      "anonymous": false,
      "inputs": [
        {
          "indexed": true,
          "internalType": "uint256",
          "name": "id",
          "type": "uint256"
        },
        {
          "indexed": false,
          "internalType": "bool",
          "name": "favorReceiver",
          "type": "bool"
        }
      ],
      "name": "DisputeResolved",
      "type": "event"
    },
    {
      "anonymous": false,
      "inputs": [
        {
          "indexed": true,
          "internalType": "address",
          "name": "by",
          "type": "address"
        }
      ],
      "name": "EmergencyPaused",
      "type": "event"
    },
    {
      "anonymous": false,
      "inputs": [
        {
          "indexed": true,
          "internalType": "address",
          "name": "by",
          "type": "address"
        },
        {
          "indexed": false,
          "internalType": "uint256",
          "name": "amount",
          "type": "uint256"
        }
      ],
      "name": "EmergencyWithdraw",
      "type": "event"
    },
    {
      "anonymous": false,
      "inputs": [
        {
          "indexed": true,
          "internalType": "uint256",
          "name": "id",
          "type": "uint256"
        },
        {
          "indexed": false,
          "internalType": "uint256",
          "name": "energyRequired",
          "type": "uint256"
        },
        {
          "indexed": false,
          "internalType": "uint256",
          "name": "energyDelivered",
          "type": "uint256"
        },
        {
          "indexed": false,
          "internalType": "uint256",
          "name": "minRequired",
          "type": "uint256"
        }
      ],
      "name": "EnergyValidationFailed",
      "type": "event"
    },
    {
      "anonymous": false,
      "inputs": [
        {
          "indexed": true,
          "internalType": "address",
          "name": "feeReceiver",
          "type": "address"
        },
        {
          "indexed": false,
          "internalType": "uint256",
          "name": "feeBps",
          "type": "uint256"
        }
      ],
      "name": "FeeUpdated",
      "type": "event"
    },
    {
      "anonymous": false,
      "inputs": [
        {
          "indexed": false,
          "internalType": "uint256",
          "name": "minDeliveryBps",
          "type": "uint256"
        }
      ],
      "name": "MinDeliveryUpdated",
      "type": "event"
    },
    {
      "anonymous": false,
      "inputs": [
        {
          "indexed": true,
          "internalType": "uint256",
          "name": "id",
          "type": "uint256"
        },
        {
          "indexed": true,
          "internalType": "address",
          "name": "donor",
          "type": "address"
        },
        {
          "indexed": false,
          "internalType": "uint256",
          "name": "donorAmount",
          "type": "uint256"
        },
        {
          "indexed": false,
          "internalType": "uint256",
          "name": "feeAmount",
          "type": "uint256"
        }
      ],
      "name": "PaidOut",
      "type": "event"
    },
    {
      "anonymous": false,
      "inputs": [
        {
          "indexed": true,
          "internalType": "uint256",
          "name": "id",
          "type": "uint256"
        },
        {
          "indexed": true,
          "internalType": "address",
          "name": "donor",
          "type": "address"
        },
        {
          "indexed": false,
          "internalType": "uint256",
          "name": "donorAmount",
          "type": "uint256"
        },
        {
          "indexed": false,
          "internalType": "uint256",
          "name": "feeAmount",
          "type": "uint256"
        },
        {
          "indexed": false,
          "internalType": "uint256",
          "name": "receiverRefund",
          "type": "uint256"
        }
      ],
      "name": "PartialPayout",
      "type": "event"
    },
    {
      "anonymous": false,
      "inputs": [
        {
          "indexed": true,
          "internalType": "uint256",
          "name": "id",
          "type": "uint256"
        },
        {
          "indexed": true,
          "internalType": "address",
          "name": "receiver",
          "type": "address"
        },
        {
          "indexed": false,
          "internalType": "uint256",
          "name": "amount",
          "type": "uint256"
        }
      ],
      "name": "Refunded",
      "type": "event"
    },
    {
      "anonymous": false,
      "inputs": [
        {
          "indexed": true,
          "internalType": "uint256",
          "name": "id",
          "type": "uint256"
        },
        {
          "indexed": true,
          "internalType": "address",
          "name": "donor",
          "type": "address"
        }
      ],
      "name": "RequestAccepted",
      "type": "event"
    },
    {
      "anonymous": false,
      "inputs": [
        {
          "indexed": true,
          "internalType": "uint256",
          "name": "id",
          "type": "uint256"
        },
        {
          "indexed": true,
          "internalType": "address",
          "name": "receiver",
          "type": "address"
        },
        {
          "indexed": false,
          "internalType": "uint256",
          "name": "escrowAmount",
          "type": "uint256"
        }
      ],
      "name": "RequestCreated",
      "type": "event"
    },
    {
      "anonymous": false,
      "inputs": [
        {
          "indexed": true,
          "internalType": "bytes32",
          "name": "role",
          "type": "bytes32"
        },
        {
          "indexed": true,
          "internalType": "bytes32",
          "name": "previousAdminRole",
          "type": "bytes32"
        },
        {
          "indexed": true,
          "internalType": "bytes32",
          "name": "newAdminRole",
          "type": "bytes32"
        }
      ],
      "name": "RoleAdminChanged",
      "type": "event"
    },
    {
      "anonymous": false,
      "inputs": [
        {
          "indexed": true,
          "internalType": "bytes32",
          "name": "role",
          "type": "bytes32"
        },
        {
          "indexed": true,
          "internalType": "address",
          "name": "account",
          "type": "address"
        },
        {
          "indexed": true,
          "internalType": "address",
          "name": "sender",
          "type": "address"
        }
      ],
      "name": "RoleGranted",
      "type": "event"
    },
    {
      "anonymous": false,
      "inputs": [
        {
          "indexed": true,
          "internalType": "bytes32",
          "name": "role",
          "type": "bytes32"
        },
        {
          "indexed": true,
          "internalType": "address",
          "name": "account",
          "type": "address"
        },
        {
          "indexed": true,
          "internalType": "address",
          "name": "sender",
          "type": "address"
        }
      ],
      "name": "RoleRevoked",
      "type": "event"
    },
    {
      "anonymous": false,
      "inputs": [
        {
          "indexed": false,
          "internalType": "bool",
          "name": "required",
          "type": "bool"
        }
      ],
      "name": "SignatureRequirementUpdated",
      "type": "event"
    },
    {
      "anonymous": false,
      "inputs": [
        {
          "indexed": false,
          "internalType": "uint256",
          "name": "acceptTimeout",
          "type": "uint256"
        },
        {
          "indexed": false,
          "internalType": "uint256",
          "name": "chargingTimeout",
          "type": "uint256"
        },
        {
          "indexed": false,
          "internalType": "uint256",
          "name": "disputeWindow",
          "type": "uint256"
        }
      ],
      "name": "TimeoutsUpdated",
      "type": "event"
    },
    {
      "anonymous": false,
      "inputs": [
        {
          "indexed": true,
          "internalType": "address",
          "name": "by",
          "type": "address"
        }
      ],
      "name": "Unpaused",
      "type": "event"
    },
    {
      "anonymous": false,
      "inputs": [
        {
          "indexed": true,
          "internalType": "address",
          "name": "validator",
          "type": "address"
        }
      ],
      "name": "ValidatorAdded",
      "type": "event"
    },
    {
      "anonymous": false,
      "inputs": [
        {
          "indexed": true,
          "internalType": "address",
          "name": "validator",
          "type": "address"
        }
      ],
      "name": "ValidatorRemoved",
      "type": "event"
    },
    {
      "inputs": [],
      "name": "DEFAULT_ADMIN_ROLE",
      "outputs": [
        {
          "internalType": "bytes32",
          "name": "",
          "type": "bytes32"
        }
      ],
      "stateMutability": "view",
      "type": "function"
    },
    {
      "inputs": [],
      "name": "EMERGENCY_ROLE",
      "outputs": [
        {
          "internalType": "bytes32",
          "name": "",
          "type": "bytes32"
        }
      ],
      "stateMutability": "view",
      "type": "function"
    },
    {
      "inputs": [],
      "name": "VALIDATOR_ROLE",
      "outputs": [
        {
          "internalType": "bytes32",
          "name": "",
          "type": "bytes32"
        }
      ],
      "stateMutability": "view",
      "type": "function"
    },
    {
      "inputs": [
        {
          "internalType": "uint256",
          "name": "id",
          "type": "uint256"
        }
      ],
      "name": "acceptRequest",
      "outputs": [],
      "stateMutability": "nonpayable",
      "type": "function"
    },
    {
      "inputs": [],
      "name": "acceptTimeout",
      "outputs": [
        {
          "internalType": "uint256",
          "name": "",
          "type": "uint256"
        }
      ],
      "stateMutability": "view",
      "type": "function"
    },
    {
      "inputs": [
        {
          "internalType": "address",
          "name": "_validator",
          "type": "address"
        }
      ],
      "name": "addValidator",
      "outputs": [],
      "stateMutability": "nonpayable",
      "type": "function"
    },
    {
      "inputs": [
        {
          "internalType": "uint256",
          "name": "id",
          "type": "uint256"
        }
      ],
      "name": "cancelOpen",
      "outputs": [],
      "stateMutability": "nonpayable",
      "type": "function"
    },
    {
      "inputs": [],
      "name": "chargingTimeout",
      "outputs": [
        {
          "internalType": "uint256",
          "name": "",
          "type": "uint256"
        }
      ],
      "stateMutability": "view",
      "type": "function"
    },
    {
      "inputs": [
        {
          "internalType": "uint256",
          "name": "id",
          "type": "uint256"
        },
        {
          "internalType": "uint256",
          "name": "energyDelivered",
          "type": "uint256"
        },
        {
          "internalType": "bytes",
          "name": "signature",
          "type": "bytes"
        }
      ],
      "name": "completeCharging",
      "outputs": [],
      "stateMutability": "nonpayable",
      "type": "function"
    },
    {
      "inputs": [
        {
          "internalType": "uint256",
          "name": "id",
          "type": "uint256"
        },
        {
          "internalType": "uint256",
          "name": "energyDelivered",
          "type": "uint256"
        }
      ],
      "name": "completeCharging",
      "outputs": [],
      "stateMutability": "nonpayable",
      "type": "function"
    },
    {
      "inputs": [
        {
          "internalType": "uint256",
          "name": "energyRequired",
          "type": "uint256"
        },
        {
          "internalType": "uint256",
          "name": "pricePerUnitWei",
          "type": "uint256"
        },
        {
          "internalType": "string",
          "name": "location",
          "type": "string"
        }
      ],
      "name": "createRequest",
      "outputs": [
        {
          "internalType": "uint256",
          "name": "id",
          "type": "uint256"
        }
      ],
      "stateMutability": "payable",
      "type": "function"
    },
    {
      "inputs": [],
      "name": "disputeWindow",
      "outputs": [
        {
          "internalType": "uint256",
          "name": "",
          "type": "uint256"
        }
      ],
      "stateMutability": "view",
      "type": "function"
    },
    {
      "inputs": [],
      "name": "emergencyPause",
      "outputs": [],
      "stateMutability": "nonpayable",
      "type": "function"
    },
    {
      "inputs": [
        {
          "internalType": "uint256",
          "name": "id",
          "type": "uint256"
        }
      ],
      "name": "emergencyRefund",
      "outputs": [],
      "stateMutability": "nonpayable",
      "type": "function"
    },
    {
      "inputs": [],
      "name": "emergencyWithdraw",
      "outputs": [],
      "stateMutability": "nonpayable",
      "type": "function"
    },
    {
      "inputs": [
        {
          "internalType": "uint256",
          "name": "",
          "type": "uint256"
        }
      ],
      "name": "escrowBalance",
      "outputs": [
        {
          "internalType": "uint256",
          "name": "",
          "type": "uint256"
        }
      ],
      "stateMutability": "view",
      "type": "function"
    },
    {
      "inputs": [],
      "name": "feeBps",
      "outputs": [
        {
          "internalType": "uint256",
          "name": "",
          "type": "uint256"
        }
      ],
      "stateMutability": "view",
      "type": "function"
    },
    {
      "inputs": [],
      "name": "feeReceiver",
      "outputs": [
        {
          "internalType": "address",
          "name": "",
          "type": "address"
        }
      ],
      "stateMutability": "view",
      "type": "function"
    },
    {
      "inputs": [
        {
          "internalType": "uint256",
          "name": "from",
          "type": "uint256"
        },
        {
          "internalType": "uint256",
          "name": "to",
          "type": "uint256"
        }
      ],
      "name": "getActiveRequests",
      "outputs": [
        {
          "components": [
            {
              "internalType": "uint256",
              "name": "id",
              "type": "uint256"
            },
            {
              "internalType": "address",
              "name": "receiver",
              "type": "address"
            },
            {
              "internalType": "address",
              "name": "donor",
              "type": "address"
            },
            {
              "internalType": "uint256",
              "name": "energyRequired",
              "type": "uint256"
            },
            {
              "internalType": "uint256",
              "name": "pricePerUnitWei",
              "type": "uint256"
            },
            {
              "internalType": "uint256",
              "name": "createdAt",
              "type": "uint256"
            },
            {
              "internalType": "uint256",
              "name": "acceptedAt",
              "type": "uint256"
            },
            {
              "internalType": "uint256",
              "name": "startedAt",
              "type": "uint256"
            },
            {
              "internalType": "uint256",
              "name": "completedAt",
              "type": "uint256"
            },
            {
              "internalType": "uint256",
              "name": "energyDelivered",
              "type": "uint256"
            },
            {
              "internalType": "string",
              "name": "location",
              "type": "string"
            },
            {
              "internalType": "enum EVChargingEscrow.Status",
              "name": "status",
              "type": "uint8"
            },
            {
              "internalType": "bool",
              "name": "disputed",
              "type": "bool"
            },
            {
              "internalType": "bool",
              "name": "signatureVerified",
              "type": "bool"
            }
          ],
          "internalType": "struct EVChargingEscrow.Request[]",
          "name": "",
          "type": "tuple[]"
        }
      ],
      "stateMutability": "view",
      "type": "function"
    },
    {
      "inputs": [
        {
          "internalType": "uint256",
          "name": "id",
          "type": "uint256"
        }
      ],
      "name": "getRequest",
      "outputs": [
        {
          "components": [
            {
              "internalType": "uint256",
              "name": "id",
              "type": "uint256"
            },
            {
              "internalType": "address",
              "name": "receiver",
              "type": "address"
            },
            {
              "internalType": "address",
              "name": "donor",
              "type": "address"
            },
            {
              "internalType": "uint256",
              "name": "energyRequired",
              "type": "uint256"
            },
            {
              "internalType": "uint256",
              "name": "pricePerUnitWei",
              "type": "uint256"
            },
            {
              "internalType": "uint256",
              "name": "createdAt",
              "type": "uint256"
            },
            {
              "internalType": "uint256",
              "name": "acceptedAt",
              "type": "uint256"
            },
            {
              "internalType": "uint256",
              "name": "startedAt",
              "type": "uint256"
            },
            {
              "internalType": "uint256",
              "name": "completedAt",
              "type": "uint256"
            },
            {
              "internalType": "uint256",
              "name": "energyDelivered",
              "type": "uint256"
            },
            {
              "internalType": "string",
              "name": "location",
              "type": "string"
            },
            {
              "internalType": "enum EVChargingEscrow.Status",
              "name": "status",
              "type": "uint8"
            },
            {
              "internalType": "bool",
              "name": "disputed",
              "type": "bool"
            },
            {
              "internalType": "bool",
              "name": "signatureVerified",
              "type": "bool"
            }
          ],
          "internalType": "struct EVChargingEscrow.Request",
          "name": "",
          "type": "tuple"
        }
      ],
      "stateMutability": "view",
      "type": "function"
    },
    {
      "inputs": [
        {
          "internalType": "bytes32",
          "name": "role",
          "type": "bytes32"
        }
      ],
      "name": "getRoleAdmin",
      "outputs": [
        {
          "internalType": "bytes32",
          "name": "",
          "type": "bytes32"
        }
      ],
      "stateMutability": "view",
      "type": "function"
    },
    {
      "inputs": [],
      "name": "getStats",
      "outputs": [
        {
          "components": [
            {
              "internalType": "uint256",
              "name": "totalSessions",
              "type": "uint256"
            },
            {
              "internalType": "uint256",
              "name": "completedSessions",
              "type": "uint256"
            },
            {
              "internalType": "uint256",
              "name": "failedSessions",
              "type": "uint256"
            },
            {
              "internalType": "uint256",
              "name": "disputedSessions",
              "type": "uint256"
            },
            {
              "internalType": "uint256",
              "name": "totalEnergyTraded",
              "type": "uint256"
            },
            {
              "internalType": "uint256",
              "name": "totalVolumeWei",
              "type": "uint256"
            },
            {
              "internalType": "uint256",
              "name": "totalFeesCollected",
              "type": "uint256"
            }
          ],
          "internalType": "struct EVChargingEscrow.PlatformStats",
          "name": "",
          "type": "tuple"
        }
      ],
      "stateMutability": "view",
      "type": "function"
    },
    {
      "inputs": [
        {
          "internalType": "address",
          "name": "_user",
          "type": "address"
        }
      ],
      "name": "getUserStats",
      "outputs": [
        {
          "internalType": "uint256",
          "name": "totalSessions",
          "type": "uint256"
        },
        {
          "internalType": "uint256",
          "name": "completedSessions",
          "type": "uint256"
        },
        {
          "internalType": "uint256",
          "name": "totalEnergyTraded",
          "type": "uint256"
        }
      ],
      "stateMutability": "view",
      "type": "function"
    },
    {
      "inputs": [
        {
          "internalType": "bytes32",
          "name": "role",
          "type": "bytes32"
        },
        {
          "internalType": "address",
          "name": "account",
          "type": "address"
        }
      ],
      "name": "grantRole",
      "outputs": [],
      "stateMutability": "nonpayable",
      "type": "function"
    },
    {
      "inputs": [
        {
          "internalType": "bytes32",
          "name": "role",
          "type": "bytes32"
        },
        {
          "internalType": "address",
          "name": "account",
          "type": "address"
        }
      ],
      "name": "hasRole",
      "outputs": [
        {
          "internalType": "bool",
          "name": "",
          "type": "bool"
        }
      ],
      "stateMutability": "view",
      "type": "function"
    },
    {
      "inputs": [
        {
          "internalType": "address",
          "name": "",
          "type": "address"
        }
      ],
      "name": "isValidator",
      "outputs": [
        {
          "internalType": "bool",
          "name": "",
          "type": "bool"
        }
      ],
      "stateMutability": "view",
      "type": "function"
    },
    {
      "inputs": [],
      "name": "minDeliveryBps",
      "outputs": [
        {
          "internalType": "uint256",
          "name": "",
          "type": "uint256"
        }
      ],
      "stateMutability": "view",
      "type": "function"
    },
    {
      "inputs": [
        {
          "internalType": "uint256",
          "name": "id",
          "type": "uint256"
        }
      ],
      "name": "openDispute",
      "outputs": [],
      "stateMutability": "nonpayable",
      "type": "function"
    },
    {
      "inputs": [],
      "name": "paused",
      "outputs": [
        {
          "internalType": "bool",
          "name": "",
          "type": "bool"
        }
      ],
      "stateMutability": "view",
      "type": "function"
    },
    {
      "inputs": [
        {
          "internalType": "uint256",
          "name": "energyRequired",
          "type": "uint256"
        },
        {
          "internalType": "uint256",
          "name": "pricePerUnitWei",
          "type": "uint256"
        }
      ],
      "name": "quoteEscrow",
      "outputs": [
        {
          "internalType": "uint256",
          "name": "",
          "type": "uint256"
        }
      ],
      "stateMutability": "pure",
      "type": "function"
    },
    {
      "inputs": [
        {
          "internalType": "uint256",
          "name": "id",
          "type": "uint256"
        }
      ],
      "name": "refundExpired",
      "outputs": [],
      "stateMutability": "nonpayable",
      "type": "function"
    },
    {
      "inputs": [],
      "name": "registry",
      "outputs": [
        {
          "internalType": "contract IUserregistry",
          "name": "",
          "type": "address"
        }
      ],
      "stateMutability": "view",
      "type": "function"
    },
    {
      "inputs": [
        {
          "internalType": "address",
          "name": "_validator",
          "type": "address"
        }
      ],
      "name": "removeValidator",
      "outputs": [],
      "stateMutability": "nonpayable",
      "type": "function"
    },
    {
      "inputs": [
        {
          "internalType": "bytes32",
          "name": "role",
          "type": "bytes32"
        },
        {
          "internalType": "address",
          "name": "callerConfirmation",
          "type": "address"
        }
      ],
      "name": "renounceRole",
      "outputs": [],
      "stateMutability": "nonpayable",
      "type": "function"
    },
    {
      "inputs": [],
      "name": "requestCount",
      "outputs": [
        {
          "internalType": "uint256",
          "name": "",
          "type": "uint256"
        }
      ],
      "stateMutability": "view",
      "type": "function"
    },
    {
      "inputs": [
        {
          "internalType": "uint256",
          "name": "",
          "type": "uint256"
        }
      ],
      "name": "requests",
      "outputs": [
        {
          "internalType": "uint256",
          "name": "id",
          "type": "uint256"
        },
        {
          "internalType": "address",
          "name": "receiver",
          "type": "address"
        },
        {
          "internalType": "address",
          "name": "donor",
          "type": "address"
        },
        {
          "internalType": "uint256",
          "name": "energyRequired",
          "type": "uint256"
        },
        {
          "internalType": "uint256",
          "name": "pricePerUnitWei",
          "type": "uint256"
        },
        {
          "internalType": "uint256",
          "name": "createdAt",
          "type": "uint256"
        },
        {
          "internalType": "uint256",
          "name": "acceptedAt",
          "type": "uint256"
        },
        {
          "internalType": "uint256",
          "name": "startedAt",
          "type": "uint256"
        },
        {
          "internalType": "uint256",
          "name": "completedAt",
          "type": "uint256"
        },
        {
          "internalType": "uint256",
          "name": "energyDelivered",
          "type": "uint256"
        },
        {
          "internalType": "string",
          "name": "location",
          "type": "string"
        },
        {
          "internalType": "enum EVChargingEscrow.Status",
          "name": "status",
          "type": "uint8"
        },
        {
          "internalType": "bool",
          "name": "disputed",
          "type": "bool"
        },
        {
          "internalType": "bool",
          "name": "signatureVerified",
          "type": "bool"
        }
      ],
      "stateMutability": "view",
      "type": "function"
    },
    {
      "inputs": [],
      "name": "requireSignature",
      "outputs": [
        {
          "internalType": "bool",
          "name": "",
          "type": "bool"
        }
      ],
      "stateMutability": "view",
      "type": "function"
    },
    {
      "inputs": [
        {
          "internalType": "uint256",
          "name": "id",
          "type": "uint256"
        },
        {
          "internalType": "bool",
          "name": "favorReceiver",
          "type": "bool"
        }
      ],
      "name": "resolveDispute",
      "outputs": [],
      "stateMutability": "nonpayable",
      "type": "function"
    },
    {
      "inputs": [
        {
          "internalType": "bytes32",
          "name": "role",
          "type": "bytes32"
        },
        {
          "internalType": "address",
          "name": "account",
          "type": "address"
        }
      ],
      "name": "revokeRole",
      "outputs": [],
      "stateMutability": "nonpayable",
      "type": "function"
    },
    {
      "inputs": [
        {
          "internalType": "address",
          "name": "_feeReceiver",
          "type": "address"
        },
        {
          "internalType": "uint256",
          "name": "_feeBps",
          "type": "uint256"
        }
      ],
      "name": "setFee",
      "outputs": [],
      "stateMutability": "nonpayable",
      "type": "function"
    },
    {
      "inputs": [
        {
          "internalType": "uint256",
          "name": "_minDeliveryBps",
          "type": "uint256"
        }
      ],
      "name": "setMinDelivery",
      "outputs": [],
      "stateMutability": "nonpayable",
      "type": "function"
    },
    {
      "inputs": [
        {
          "internalType": "bool",
          "name": "_required",
          "type": "bool"
        }
      ],
      "name": "setRequireSignature",
      "outputs": [],
      "stateMutability": "nonpayable",
      "type": "function"
    },
    {
      "inputs": [
        {
          "internalType": "uint256",
          "name": "_acceptTimeout",
          "type": "uint256"
        },
        {
          "internalType": "uint256",
          "name": "_chargingTimeout",
          "type": "uint256"
        },
        {
          "internalType": "uint256",
          "name": "_disputeWindow",
          "type": "uint256"
        }
      ],
      "name": "setTimeouts",
      "outputs": [],
      "stateMutability": "nonpayable",
      "type": "function"
    },
    {
      "inputs": [
        {
          "internalType": "uint256",
          "name": "id",
          "type": "uint256"
        }
      ],
      "name": "startCharging",
      "outputs": [],
      "stateMutability": "nonpayable",
      "type": "function"
    },
    {
      "inputs": [],
      "name": "stats",
      "outputs": [
        {
          "internalType": "uint256",
          "name": "totalSessions",
          "type": "uint256"
        },
        {
          "internalType": "uint256",
          "name": "completedSessions",
          "type": "uint256"
        },
        {
          "internalType": "uint256",
          "name": "failedSessions",
          "type": "uint256"
        },
        {
          "internalType": "uint256",
          "name": "disputedSessions",
          "type": "uint256"
        },
        {
          "internalType": "uint256",
          "name": "totalEnergyTraded",
          "type": "uint256"
        },
        {
          "internalType": "uint256",
          "name": "totalVolumeWei",
          "type": "uint256"
        },
        {
          "internalType": "uint256",
          "name": "totalFeesCollected",
          "type": "uint256"
        }
      ],
      "stateMutability": "view",
      "type": "function"
    },
    {
      "inputs": [
        {
          "internalType": "bytes4",
          "name": "interfaceId",
          "type": "bytes4"
        }
      ],
      "name": "supportsInterface",
      "outputs": [
        {
          "internalType": "bool",
          "name": "",
          "type": "bool"
        }
      ],
      "stateMutability": "view",
      "type": "function"
    },
    {
      "inputs": [],
      "name": "unpause",
      "outputs": [],
      "stateMutability": "nonpayable",
      "type": "function"
    },
    {
      "inputs": [
        {
          "internalType": "address",
          "name": "",
          "type": "address"
        }
      ],
      "name": "userCompletedSessions",
      "outputs": [
        {
          "internalType": "uint256",
          "name": "",
          "type": "uint256"
        }
      ],
      "stateMutability": "view",
      "type": "function"
    },
    {
      "inputs": [
        {
          "internalType": "address",
          "name": "",
          "type": "address"
        }
      ],
      "name": "userTotalEnergyTraded",
      "outputs": [
        {
          "internalType": "uint256",
          "name": "",
          "type": "uint256"
        }
      ],
      "stateMutability": "view",
      "type": "function"
    },
    {
      "inputs": [
        {
          "internalType": "address",
          "name": "",
          "type": "address"
        }
      ],
      "name": "userTotalSessions",
      "outputs": [
        {
          "internalType": "uint256",
          "name": "",
          "type": "uint256"
        }
      ],
      "stateMutability": "view",
      "type": "function"
    },
    {
      "inputs": [],
      "name": "validatorCount",
      "outputs": [
        {
          "internalType": "uint256",
          "name": "",
          "type": "uint256"
        }
      ],
      "stateMutability": "view",
      "type": "function"
    },
    {
      "stateMutability": "payable",
      "type": "receive"
    }
  ],
  "bytecode": "0x6080604052610708600755610e10600855610e10600955612328600a55348015610027575f5ffd5b506040516143c33803806143c3833981016040819052610046916102f0565b60017f9b779b17422d0df92223018b32b4d1fa46e071723d6817e2486d003becc55f00556001600160a01b0384166100915760405163d92e233d60e01b815260040160405180910390fd5b6001600160a01b0383166100b85760405163d92e233d60e01b815260040160405180910390fd5b600180546001600160a01b0319166001600160a01b03868116919091179091558216156100e557816100e7565b335b600280546001600160a01b0319166001600160a01b039290921691909117905561011081610158565b61011a5f33610180565b506101457fbf233dd2aafeb4d50879c4aa5c81e96d92f6e6945c906a58f9f2d1c1631b4b2633610180565b5061014f83610229565b50505050610338565b6103e881111561017b5760405163cd4e616760e01b815260040160405180910390fd5b600355565b5f828152602081815260408083206001600160a01b038516845290915281205460ff16610220575f838152602081815260408083206001600160a01b03861684529091529020805460ff191660011790556101d83390565b6001600160a01b0316826001600160a01b0316847f2f8788117e7eff1d82e926ec794901d17c78024a50270940304540a733656f0d60405160405180910390a4506001610223565b505f5b92915050565b6001600160a01b0381165f908152600c602052604090205460ff166102d2576001600160a01b0381165f908152600c60205260409020805460ff191660011790556102947f21702c8af46127c7fa207f89d0b0a8441bb32959a0ac7df790e9ab1a25c9892682610180565b50600b805460010190556040516001600160a01b038216907fe366c1c0452ed8eec96861e9e54141ebff23c9ec89fe27b996b45f5ec3884987905f90a25b50565b80516001600160a01b03811681146102eb575f5ffd5b919050565b5f5f5f5f60808587031215610303575f5ffd5b61030c856102d5565b935061031a602086016102d5565b9250610328604086016102d5565b6060959095015193969295505050565b61407e806103455f395ff3fe6080604052600436106102dc575f3560e01c80635c975abb11610189578063b5282800116100d8578063d547741f11610092578063e2100d301161006d578063e2100d30146109c0578063e55156b5146109d5578063e715487e146109f4578063facd743b14610a09575f5ffd5b8063d547741f1461092a578063d80528ae14610949578063db2e21bc146109ac575f5ffd5b8063b528280014610816578063bb099ee314610835578063bc9d8e6f14610860578063c49baebe14610875578063c58343ef14610895578063c59d4847146108c1575f5ffd5b806381d12c581161014357806391d148541161011e57806391d148541461079a578063a217fddf146107b9578063a450d5d7146107cc578063b3f00674146107f7575f5ffd5b806381d12c5814610716578063825771691461074f5780638f1ac2691461076e575f5ffd5b80635c975abb14610639578063707dc18214610657578063709d140a1461068257806370e5deb9146106a15780637b103999146106c0578063806762a0146106f7575f5ffd5b80632f2ff15d116102455780634ba1f098116101ff57806351858e27116101da57806351858e27146105c657806355692b43146105da578063590ecaac146105f95780635badbe4c14610624575f5ffd5b80634ba1f098146105225780634d238c8e146105415780634e43603a14610560575f5ffd5b80632f2ff15d1461047357806334b25ee2146104925780633541c6f7146104b157806336568abe146104d05780633f4ba83a146104ef57806340a141ff14610503575f5ffd5b80631c38c0d8116102965780631c38c0d8146103ac57806320df4359146103bf57806322d8df12146103f2578063248a9ca31461041157806324a9d8531461043f57806327d00fb014610454575f5ffd5b806301ffc9a7146102e757806306a39f6b1461031b5780630f43a6771461033c5780630fc4ff121461035f578063117f5f92146103785780631402b17a1461038d575f5ffd5b366102e357005b5f5ffd5b3480156102f2575f5ffd5b50610306610301366004613986565b610a37565b60405190151581526020015b60405180910390f35b348015610326575f5ffd5b5061033a6103353660046139ad565b610a6d565b005b348015610347575f5ffd5b50610351600b5481565b604051908152602001610312565b34801561036a575f5ffd5b50600d546103069060ff1681565b348015610383575f5ffd5b5061035160095481565b348015610398575f5ffd5b5061033a6103a73660046139d6565b610b51565b6103516103ba366004613a32565b610d15565b3480156103ca575f5ffd5b506103517fbf233dd2aafeb4d50879c4aa5c81e96d92f6e6945c906a58f9f2d1c1631b4b2681565b3480156103fd575f5ffd5b5061033a61040c3660046139d6565b6110b3565b34801561041c575f5ffd5b5061035161042b3660046139d6565b5f9081526020819052604090206001015490565b34801561044a575f5ffd5b5061035160035481565b34801561045f575f5ffd5b5061033a61046e3660046139d6565b6111ad565b34801561047e575f5ffd5b5061033a61048d366004613a9c565b611334565b34801561049d575f5ffd5b5061033a6104ac366004613ad3565b61135e565b3480156104bc575f5ffd5b5061033a6104cb366004613a32565b611635565b3480156104db575f5ffd5b5061033a6104ea366004613a9c565b611ae1565b3480156104fa575f5ffd5b5061033a611b14565b34801561050e575f5ffd5b5061033a61051d366004613b01565b611b56565b34801561052d575f5ffd5b5061033a61053c3660046139d6565b611c0f565b34801561054c575f5ffd5b5061033a61055b366004613b01565b611e0c565b34801561056b575f5ffd5b506105ab61057a366004613b01565b6001600160a01b03165f90815260156020908152604080832054601683528184205460179093529220549192909190565b60408051938452602084019290925290820152606001610312565b3480156105d1575f5ffd5b5061033a611e4a565b3480156105e5575f5ffd5b5061033a6105f43660046139d6565b611f05565b348015610604575f5ffd5b50610351610613366004613b01565b60176020525f908152604090205481565b34801561062f575f5ffd5b5061035160045481565b348015610644575f5ffd5b50600d5461030690610100900460ff1681565b348015610662575f5ffd5b50610351610671366004613b01565b60156020525f908152604090205481565b34801561068d575f5ffd5b5061035161069c366004613b1a565b611f78565b3480156106ac575f5ffd5b5061033a6106bb3660046139d6565b611f8a565b3480156106cb575f5ffd5b506001546106df906001600160a01b031681565b6040516001600160a01b039091168152602001610312565b348015610702575f5ffd5b5061033a6107113660046139d6565b6120eb565b348015610721575f5ffd5b506107356107303660046139d6565b612214565b6040516103129e9d9c9b9a99989796959493929190613b9c565b34801561075a575f5ffd5b5061033a610769366004613b1a565b61231d565b348015610779575f5ffd5b5061078d610788366004613b1a565b61276c565b6040516103129190613d19565b3480156107a5575f5ffd5b506103066107b4366004613a9c565b612acb565b3480156107c4575f5ffd5b506103515f81565b3480156107d7575f5ffd5b506103516107e6366004613b01565b60166020525f908152604090205481565b348015610802575f5ffd5b506002546106df906001600160a01b031681565b348015610821575f5ffd5b5061033a610830366004613d7c565b612af3565b348015610840575f5ffd5b5061035161084f3660046139d6565b60066020525f908152604090205481565b34801561086b575f5ffd5b5061035160075481565b348015610880575f5ffd5b506103515f5160206140095f395f51905f5281565b3480156108a0575f5ffd5b506108b46108af3660046139d6565b612b3e565b6040516103129190613d97565b3480156108cc575f5ffd5b506108d5612cc8565b60405161031291905f60e082019050825182526020830151602083015260408301516040830152606083015160608301526080830151608083015260a083015160a083015260c083015160c083015292915050565b348015610935575f5ffd5b5061033a610944366004613a9c565b612d46565b348015610954575f5ffd5b50600e54600f546010546011546012546013546014546109779695949392919087565b604080519788526020880196909652948601939093526060850191909152608084015260a083015260c082015260e001610312565b3480156109b7575f5ffd5b5061033a612d6a565b3480156109cb575f5ffd5b50610351600a5481565b3480156109e0575f5ffd5b5061033a6109ef366004613da9565b612e5f565b3480156109ff575f5ffd5b5061035160085481565b348015610a14575f5ffd5b50610306610a23366004613b01565b600c6020525f908152604090205460ff1681565b5f6001600160e01b03198216637965db0b60e01b1480610a6757506301ffc9a760e01b6001600160e01b03198316145b92915050565b5f610a7781612eef565b61012c841080610a89575062093a8084115b15610aa757604051630802474160e01b815260040160405180910390fd5b61012c831080610ab9575062093a8083115b15610ad757604051630802474160e01b815260040160405180910390fd5b62093a80821115610afb57604051630802474160e01b815260040160405180910390fd5b60078490556008839055600982905560408051858152602081018590529081018390527f8d1ab236a12088dc5023a46058a7ba848b593cf0a6083e60de6b49d55d47170a9060600160405180910390a150505050565b600d54610100900460ff1615610b7a5760405163ab35696f60e01b815260040160405180910390fd5b610b82612ef9565b5f8181526005602052604081208054909103610bb157604051632589d98f60e11b815260040160405180910390fd5b60018101546001600160a01b03163314610bde5760405163517907dd60e01b815260040160405180910390fd5b5f600b82015460ff166007811115610bf857610bf8613b68565b03610c4c576007548160050154610c0f9190613de5565b4211610c2e57604051634d8fee1b60e11b815260040160405180910390fd5b600b8101805460ff19166005179055610c4682612f14565b50610cfc565b6001600b82015460ff166007811115610c6757610c67613b68565b03610c9d576008548160060154610c7e9190613de5565b4211610c2e57604051630802474160e01b815260040160405180910390fd5b6002600b82015460ff166007811115610cb857610cb8613b68565b03610ccf576008548160070154610c7e9190613de5565b600b81015460405163f924664d60e01b8152610cf39160ff16905f90600401613df8565b60405180910390fd5b610d1260015f5160206140295f395f51905f5255565b50565b600d545f90610100900460ff1615610d405760405163ab35696f60e01b815260040160405180910390fd5b60015460405163ba3d593960e01b81523360048201526001600160a01b039091169063ba3d593990602401602060405180830381865afa158015610d86573d5f5f3e3d5ffd5b505050506040513d601f19601f82011682018060405250810190610daa9190613e13565b610dc75760405163a95362b560e01b815260040160405180910390fd5b610dcf612ef9565b845f03610def57604051631f2a200560e01b815260040160405180910390fd5b835f03610e0f57604051631f2a200560e01b815260040160405180910390fd5b5f610e1a8686611f78565b9050803414610e3c57604051631f2a200560e01b815260040160405180910390fd5b60045f8154600101919050819055506004549150604051806101c00160405280838152602001336001600160a01b031681526020015f6001600160a01b031681526020018781526020018681526020014281526020015f81526020015f81526020015f81526020015f815260200185858080601f0160208091040260200160405190810160405280939291908181526020018383808284375f92018290525093855250506020909201915081525f6020808301829052604092830182905285825260058082529183902084518155908401516001820180546001600160a01b03199081166001600160a01b039384161790915593850151600283018054909516911617909255606083015160038301556080830151600483015560a08301519082015560c0820151600682015560e0820151600782015561010082015160088201556101208201516009820155610140820151600a820190610f9e9082613ebe565b50610160820151600b8201805460ff19166001836007811115610fc357610fc3613b68565b0217905550610180820151600b90910180546101a0909301511515620100000262ff000019921515610100029290921662ffff0019909316929092171790555f828152600660205260408120349055600e80549161102083613f79565b919050555034600e6005015f8282546110399190613de5565b9091555050335f90815260156020526040812080549161105883613f79565b9091555050604051348152339083907f0f07843fcc5047a6c0a2af35eec5eab563fa21efdc4473efb2303d6c2f8ec6f89060200160405180910390a3506110ab60015f5160206140295f395f51905f5255565b949350505050565b600d54610100900460ff16156110dc5760405163ab35696f60e01b815260040160405180910390fd5b5f5160206140095f395f51905f526110f381612eef565b5f828152600560205260408120805490910361112257604051632589d98f60e11b815260040160405180910390fd5b6001600b82015460ff16600781111561113d5761113d613b68565b1461116757600b81015460405163f924664d60e01b8152610cf39160ff1690600190600401613df8565b426007820155600b8101805460ff19166002179055604051339084907f04c74a1ebf5653f7233f5e02b0b89a45a44fd921932ee18fce5bd8ba4375761d905f90a3505050565b600d54610100900460ff16156111d65760405163ab35696f60e01b815260040160405180910390fd5b5f818152600560205260408120805490910361120557604051632589d98f60e11b815260040160405180910390fd5b6003600b82015460ff16600781111561122057611220613b68565b1415801561124757506006600b82015460ff16600781111561124457611244613b68565b14155b156112655760405163fd57cf8f60e01b815260040160405180910390fd5b60018101546001600160a01b0316331480159061128f575060028101546001600160a01b03163314155b156112ad5760405163517907dd60e01b815260040160405180910390fd5b60095481600801546112bf9190613de5565b4211156112df576040516321ad1e7f60e11b815260040160405180910390fd5b600b8101805461ffff191661010717905560118054905f6112ff83613f79565b9091555050604051339083907f44f3c3ed15c708331582bc379d28659a58f183a563abe41aa4c8889db469f71c905f90a35050565b5f8281526020819052604090206001015461134e81612eef565b611358838361301c565b50505050565b5f61136881612eef565b611370612ef9565b5f838152600560205260408120805490910361139f57604051632589d98f60e11b815260040160405180910390fd5b6007600b82015460ff1660078111156113ba576113ba613b68565b146113d8576040516349dfe70360e01b815260040160405180910390fd5b5f848152600660205260409020548380156113f257505f81115b15611537575f85815260066020526040808220829055600b8401805460ff19166005179055600184015490516001600160a01b039091169083908381818185875af1925050503d805f8114611462576040519150601f19603f3d011682016040523d82523d5f602084013e611467565b606091505b5050905080611489576040516312171d8360e31b815260040160405180910390fd5b60018301546040518381526001600160a01b039091169087907f7ca5472b7ea78c2c0141c5a12ee6d170cf4ce8ed06be3d22c8252ddfc7a6a2c49060200160405180910390a3600154600284015460405163ed9fa61b60e01b81526001600160a01b039283169263ed9fa61b9261150892911690600a90600401613f91565b5f604051808303815f87803b15801561151f575f5ffd5b505af1925050508015611530575060015b50506115dc565b8315801561154457505f81115b156115cc57600b8201805460ff19166003179055611561856130ab565b600180549083015460405163ed9fa61b60e01b81526001600160a01b039283169263ed9fa61b9261159a92911690600590600401613f91565b5f604051808303815f87803b1580156115b1575f5ffd5b505af19250505080156115c2575060015b156115dc576115dc565b600b8201805460ff191660031790555b847f5a87909bff68caaaaf0b3fd9c74eeccc928832f879315e5c6fb7a73612f26c0c85604051611610911515815260200190565b60405180910390a2505061163060015f5160206140295f395f51905f5255565b505050565b600d54610100900460ff161561165e5760405163ab35696f60e01b815260040160405180910390fd5b5f5160206140095f395f51905f5261167581612eef565b61167d612ef9565b5f85815260056020526040812080549091036116ac57604051632589d98f60e11b815260040160405180910390fd5b6002600b82015460ff1660078111156116c7576116c7613b68565b146116f157600b81015460405163f924664d60e01b8152610cf39160ff1690600290600401613df8565b60028101546001600160a01b031661171c5760405163ca17563360e01b815260040160405180910390fd5b600d5460ff1615611786575f8390036117485760405163229bfb1f60e01b815260040160405180910390fd5b611755868686863361325a565b61177257604051638baa579f60e01b815260040160405180910390fd5b600b8101805462ff00001916620100001790555b42600882015560098101859055600a5460038201545f91612710916117ab9190613faa565b6117b59190613fd5565b90508086101561189b57600b8201805460ff1916600617905560108054905f6117dd83613f79565b909155505060038201546040805191825260208201889052810182905287907f9db862ead7f380235b75339f21e3ffe5f140f792f894049dcb09cd8c545a750f9060600160405180910390a2600154600283015460405163ed9fa61b60e01b81526001600160a01b039283169263ed9fa61b9261186292911690600590600401613f91565b5f604051808303815f87803b158015611879575f5ffd5b505af192505050801561188a575060015b5061189487612f14565b5050611ac4565b600b8201805460ff19166003179055600f8054905f6118b983613f79565b919050555085600e6004015f8282546118d29190613de5565b909155505060018201546001600160a01b03165f9081526016602052604081208054916118fe83613f79565b909155505060028201546001600160a01b03165f90815260166020526040812080549161192a83613f79565b909155505060018201546001600160a01b03165f908152601760205260408120805488929061195a908490613de5565b909155505060028201546001600160a01b03165f908152601760205260408120805488929061198a908490613de5565b9091555050600b820154604080518881526201000090920460ff161515602083015288917f9b162bfbe3781e89486b0f370cdeb873335064d4db12a24be939cd709d69c01e910160405180910390a26001546002830154604051631bdb0dad60e31b81526001600160a01b039283169263ded86d6892611a1292911690600a90600401613f91565b5f604051808303815f87803b158015611a29575f5ffd5b505af1925050508015611a3a575060015b506001805490830154604051631bdb0dad60e31b81526001600160a01b039283169263ded86d6892611a7492911690600590600401613f91565b5f604051808303815f87803b158015611a8b575f5ffd5b505af1925050508015611a9c575060015b508160030154861015611ab85761189487878460030154613328565b611ac1876130ab565b50505b611ada60015f5160206140295f395f51905f5255565b5050505050565b6001600160a01b0381163314611b0a5760405163334bd91960e11b815260040160405180910390fd5b611630828261358a565b5f611b1e81612eef565b600d805461ff001916905560405133907f5db9ee0a495bf2e6ff9c91a7834c1ba4fdd244a5e8aa4e537bd38aeae4b073aa905f90a250565b5f611b6081612eef565b6001600160a01b0382165f908152600c602052604090205460ff16611b985760405163d92e233d60e01b815260040160405180910390fd5b6001600160a01b0382165f908152600c60205260409020805460ff19169055611bce5f5160206140095f395f51905f528361358a565b50600b80545f190190556040516001600160a01b038316907fe1434e25d6611e0db941968fdc97811c982ac1602e951637d206f5fdda9dd8f1905f90a25050565b600d54610100900460ff1615611c385760405163ab35696f60e01b815260040160405180910390fd5b60015460405163ba3d593960e01b81523360048201526001600160a01b039091169063ba3d593990602401602060405180830381865afa158015611c7e573d5f5f3e3d5ffd5b505050506040513d601f19601f82011682018060405250810190611ca29190613e13565b611cbf5760405163a95362b560e01b815260040160405180910390fd5b5f8181526005602052604081208054909103611cee57604051632589d98f60e11b815260040160405180910390fd5b5f600b82015460ff166007811115611d0857611d08613b68565b14611d3157600b81015460405163f924664d60e01b8152610cf39160ff16905f90600401613df8565b6001810154336001600160a01b0390911603611d605760405163bbffd3e160e01b815260040160405180910390fd5b6007548160050154611d729190613de5565b421115611d9257604051634d8fee1b60e11b815260040160405180910390fd5b6002810180546001600160a01b03191633908117909155426006830155600b8201805460ff191660011790555f908152601560205260408120805491611dd783613f79565b9091555050604051339083907fa74a28866064b16e695ebbf53f8b0f9aa0bb93885dbbcc373004f1a052cc4248905f90a35050565b5f611e1681612eef565b6001600160a01b038216611e3d5760405163d92e233d60e01b815260040160405180910390fd5b611e46826135f3565b5050565b611e747fbf233dd2aafeb4d50879c4aa5c81e96d92f6e6945c906a58f9f2d1c1631b4b2633612acb565b158015611e885750611e865f33612acb565b155b15611eca57337fbf233dd2aafeb4d50879c4aa5c81e96d92f6e6945c906a58f9f2d1c1631b4b2660405163e2517d3f60e01b8152600401610cf3929190613f91565b600d805461ff00191661010017905560405133907fb8fad2fa0ed7a383e747c309ef2c4391d7b65592a48893e57ccc1fab70791456905f90a2565b5f611f0f81612eef565b811580611f1d575061271082115b15611f3b57604051631762664d60e31b815260040160405180910390fd5b600a8290556040518281527f8d980294d8a0b2adff58c5b6fc7d6afbcd032aa88611a69ab802198620aedf98906020015b60405180910390a15050565b5f611f838284613faa565b9392505050565b5f611f9481612eef565b611f9c612ef9565b5f8281526005602052604081208054909103611fcb57604051632589d98f60e11b815260040160405180910390fd5b5f8381526006602052604081205490819003611ffa5760405163769cabf160e01b815260040160405180910390fd5b5f84815260066020526040808220829055600b8401805460ff19166005179055600184015490516001600160a01b039091169083908381818185875af1925050503d805f8114612065576040519150601f19603f3d011682016040523d82523d5f602084013e61206a565b606091505b505090508061208c576040516312171d8360e31b815260040160405180910390fd5b60018301546040518381526001600160a01b039091169086907f7ca5472b7ea78c2c0141c5a12ee6d170cf4ce8ed06be3d22c8252ddfc7a6a2c49060200160405180910390a3505050611e4660015f5160206140295f395f51905f5255565b600d54610100900460ff16156121145760405163ab35696f60e01b815260040160405180910390fd5b61211c612ef9565b5f818152600560205260408120805490910361214b57604051632589d98f60e11b815260040160405180910390fd5b60018101546001600160a01b031633146121785760405163517907dd60e01b815260040160405180910390fd5b5f600b82015460ff16600781111561219257612192613b68565b146121bb57600b81015460405163f924664d60e01b8152610cf39160ff16905f90600401613df8565b600b8101805460ff1916600417905560405182907f829a8683c544ad289ce92d3ce06e9ebad69b18a6916e60ec766c2c217461d8e9905f90a26121fd82612f14565b50610d1260015f5160206140295f395f51905f5255565b600560208190525f918252604090912080546001820154600283015460038401546004850154958501546006860154600787015460088801546009890154600a8a018054999b6001600160a01b03998a169b999098169996989596949593949293919261228090613e42565b80601f01602080910402602001604051908101604052809291908181526020018280546122ac90613e42565b80156122f75780601f106122ce576101008083540402835291602001916122f7565b820191905f5260205f20905b8154815290600101906020018083116122da57829003601f168201915b505050600b909301549192505060ff80821691610100810482169162010000909104168e565b600d54610100900460ff16156123465760405163ab35696f60e01b815260040160405180910390fd5b5f5160206140095f395f51905f5261235d81612eef565b612365612ef9565b600d5460ff16156123895760405163229bfb1f60e01b815260040160405180910390fd5b5f83815260056020526040812080549091036123b857604051632589d98f60e11b815260040160405180910390fd5b6002600b82015460ff1660078111156123d3576123d3613b68565b146123fd57600b81015460405163f924664d60e01b8152610cf39160ff1690600290600401613df8565b60028101546001600160a01b03166124285760405163ca17563360e01b815260040160405180910390fd5b42600882015560098101839055600a5460038201545f916127109161244d9190613faa565b6124579190613fd5565b90508084101561253d57600b8201805460ff1916600617905560108054905f61247f83613f79565b909155505060038201546040805191825260208201869052810182905285907f9db862ead7f380235b75339f21e3ffe5f140f792f894049dcb09cd8c545a750f9060600160405180910390a2600154600283015460405163ed9fa61b60e01b81526001600160a01b039283169263ed9fa61b9261250492911690600590600401613f91565b5f604051808303815f87803b15801561251b575f5ffd5b505af192505050801561252c575060015b5061253685612f14565b5050612756565b600b8201805460ff19166003179055600f8054905f61255b83613f79565b919050555083600e6004015f8282546125749190613de5565b909155505060018201546001600160a01b03165f9081526016602052604081208054916125a083613f79565b909155505060028201546001600160a01b03165f9081526016602052604081208054916125cc83613f79565b909155505060018201546001600160a01b03165f90815260176020526040812080548692906125fc908490613de5565b909155505060028201546001600160a01b03165f908152601760205260408120805486929061262c908490613de5565b9091555050604080518581525f602082015286917f9b162bfbe3781e89486b0f370cdeb873335064d4db12a24be939cd709d69c01e910160405180910390a26001546002830154604051631bdb0dad60e31b81526001600160a01b039283169263ded86d68926126a492911690600a90600401613f91565b5f604051808303815f87803b1580156126bb575f5ffd5b505af19250505080156126cc575060015b506001805490830154604051631bdb0dad60e31b81526001600160a01b039283169263ded86d689261270692911690600590600401613f91565b5f604051808303815f87803b15801561271d575f5ffd5b505af192505050801561272e575060015b50816003015484101561274a5761253685858460030154613328565b612753856130ab565b50505b61163060015f5160206140295f395f51905f5255565b606060045482111561277e5760045491505b825f0361278a57600192505b5f835b83811161282c575f818152600560205260408120600b015460ff1660078111156127b9576127b9613b68565b14806127e9575060015f828152600560205260409020600b015460ff1660078111156127e7576127e7613b68565b145b80612818575060025f828152600560205260409020600b015460ff16600781111561281657612816613b68565b145b15612824578160010191505b60010161278d565b505f8167ffffffffffffffff81111561284757612847613e2e565b60405190808252806020026020018201604052801561288057816020015b61286d613900565b8152602001906001900390816128655790505b5090505f855b858111612ac0575f818152600560205260408120600b015460ff1660078111156128b2576128b2613b68565b14806128e2575060015f828152600560205260409020600b015460ff1660078111156128e0576128e0613b68565b145b80612911575060025f828152600560205260409020600b015460ff16600781111561290f5761290f613b68565b145b15612ab8575f8181526005602081815260409283902083516101c0810185528154815260018201546001600160a01b039081169382019390935260028201549092169382019390935260038301546060820152600483015460808201529082015460a0820152600682015460c0820152600782015460e082015260088201546101008201526009820154610120820152600a82018054919291610140840191906129ba90613e42565b80601f01602080910402602001604051908101604052809291908181526020018280546129e690613e42565b8015612a315780601f10612a0857610100808354040283529160200191612a31565b820191905f5260205f20905b815481529060010190602001808311612a1457829003601f168201915b5050509183525050600b82015460209091019060ff166007811115612a5857612a58613b68565b6007811115612a6957612a69613b68565b8152600b919091015460ff6101008204811615156020840152620100009091041615156040909101528351849084908110612aa657612aa6613ff4565b60200260200101819052508160010191505b600101612886565b509095945050505050565b5f918252602082815260408084206001600160a01b0393909316845291905290205460ff1690565b5f612afd81612eef565b600d805460ff19168315159081179091556040519081527f562f712a2a8452e5f4edf2922649bec7bc941f58c9b8fe619f87c210abcbcd2590602001611f6c565b612b46613900565b5f8281526005602081815260409283902083516101c0810185528154815260018201546001600160a01b039081169382019390935260028201549092169382019390935260038301546060820152600483015460808201529082015460a0820152600682015460c0820152600782015460e082015260088201546101008201526009820154610120820152600a8201805491929161014084019190612bea90613e42565b80601f0160208091040260200160405190810160405280929190818152602001828054612c1690613e42565b8015612c615780601f10612c3857610100808354040283529160200191612c61565b820191905f5260205f20905b815481529060010190602001808311612c4457829003601f168201915b5050509183525050600b82015460209091019060ff166007811115612c8857612c88613b68565b6007811115612c9957612c99613b68565b8152600b919091015460ff61010082048116151560208401526201000090910416151560409091015292915050565b612d016040518060e001604052805f81526020015f81526020015f81526020015f81526020015f81526020015f81526020015f81525090565b506040805160e081018252600e548152600f546020820152601054918101919091526011546060820152601254608082015260135460a082015260145460c082015290565b5f82815260208190526040902060010154612d6081612eef565b611358838361358a565b5f612d7481612eef565b600d54610100900460ff16612d9c5760405163ab35696f60e01b815260040160405180910390fd5b475f819003612dbe57604051630686827b60e51b815260040160405180910390fd5b6040515f90339083908381818185875af1925050503d805f8114612dfd576040519150601f19603f3d011682016040523d82523d5f602084013e612e02565b606091505b5050905080612e24576040516312171d8360e31b815260040160405180910390fd5b60405182815233907f5fafa99d0643513820be26656b45130b01e1c03062e1266bf36f88cbd3bd9695906020015b60405180910390a2505050565b5f612e6981612eef565b6001600160a01b038316612e905760405163d92e233d60e01b815260040160405180910390fd5b600280546001600160a01b0319166001600160a01b038516179055612eb48261368b565b826001600160a01b03167f6f0eaf2c2f89fb4cfe96a1dee5e764d60b52c7f48aaa590f0850e308aa1b953a83604051612e5291815260200190565b610d1281336136b3565b612f016136de565b60025f5160206140295f395f51905f5255565b5f8181526006602052604081205490819003612f435760405163769cabf160e01b815260040160405180910390fd5b5f82815260066020908152604080832083905560059091528082206001015490516001600160a01b039091169190829084908381818185875af1925050503d805f8114612fab576040519150601f19603f3d011682016040523d82523d5f602084013e612fb0565b606091505b5050905080612fd2576040516312171d8360e31b815260040160405180910390fd5b816001600160a01b0316847f7ca5472b7ea78c2c0141c5a12ee6d170cf4ce8ed06be3d22c8252ddfc7a6a2c48560405161300e91815260200190565b60405180910390a350505050565b5f6130278383612acb565b6130a4575f838152602081815260408083206001600160a01b03861684529091529020805460ff1916600117905561305c3390565b6001600160a01b0316826001600160a01b0316847f2f8788117e7eff1d82e926ec794901d17c78024a50270940304540a733656f0d60405160405180910390a4506001610a67565b505f610a67565b5f81815260066020526040812054908190036130da5760405163769cabf160e01b815260040160405180910390fd5b5f82815260066020908152604080832083905560059091529020600354612710908302048083038115613193576002546040515f916001600160a01b03169084908381818185875af1925050503d805f8114613151576040519150601f19603f3d011682016040523d82523d5f602084013e613156565b606091505b5050905080613178576040516312171d8360e31b815260040160405180910390fd5b82600e6006015f82825461318c9190613de5565b9091555050505b60028301546040515f916001600160a01b03169083908381818185875af1925050503d805f81146131df576040519150601f19603f3d011682016040523d82523d5f602084013e6131e4565b606091505b5050905080613206576040516312171d8360e31b815260040160405180910390fd5b600284015460408051848152602081018690526001600160a01b039092169188917f8ce0a554918cb74f15c8c71b1050e99638b7b01fa5e3c67f29dc06100c47565f910160405180910390a3505050505050565b5f5f8686604051602001613278929190918252602082015260400190565b6040516020818303038152906040528051906020012090505f6132c7827f19457468657265756d205369676e6564204d6573736167653a0a3332000000005f908152601c91909152603c902090565b90505f61330b87878080601f0160208091040260200160405190810160405280939291908181526020018383808284375f92019190915250869392505061370f9050565b6001600160a01b0390811690861614935050505095945050505050565b5f83815260066020526040812054908190036133575760405163769cabf160e01b815260040160405180910390fd5b5f8481526006602090815260408083208390556005909152812090808080868689028161338657613386613fc1565b04935083860392506127106003548502816133a3576133a3613fc1565b04915050808303811561343c576002546040515f916001600160a01b03169084908381818185875af1925050503d805f81146133fa576040519150601f19603f3d011682016040523d82523d5f602084013e6133ff565b606091505b5050905080613421576040516312171d8360e31b815260040160405180910390fd5b82600e6006015f8282546134359190613de5565b9091555050505b60028501546040515f916001600160a01b03169083908381818185875af1925050503d805f8114613488576040519150601f19603f3d011682016040523d82523d5f602084013e61348d565b606091505b50509050806134af576040516312171d8360e31b815260040160405180910390fd5b831561352a5760018601546040515f916001600160a01b03169086908381818185875af1925050503d805f8114613501576040519150601f19603f3d011682016040523d82523d5f602084013e613506565b606091505b5050905080613528576040516312171d8360e31b815260040160405180910390fd5b505b600286015460408051848152602081018690529081018690526001600160a01b03909116908b907f4bc18386f083e6baa080071c292a655737ffe7994cb2132c07e61d8ed5996d099060600160405180910390a350505050505050505050565b5f6135958383612acb565b156130a4575f838152602081815260408083206001600160a01b0386168085529252808320805460ff1916905551339286917ff6391f5c32d9c69d2a47ea670b442974b53935d1edc7fd64eb21e047a839171b9190a4506001610a67565b6001600160a01b0381165f908152600c602052604090205460ff16610d12576001600160a01b0381165f908152600c60205260409020805460ff1916600117905561364b5f5160206140095f395f51905f528261301c565b50600b805460010190556040516001600160a01b038216907fe366c1c0452ed8eec96861e9e54141ebff23c9ec89fe27b996b45f5ec3884987905f90a250565b6103e88111156136ae5760405163cd4e616760e01b815260040160405180910390fd5b600355565b6136bd8282612acb565b611e4657808260405163e2517d3f60e01b8152600401610cf3929190613f91565b5f5160206140295f395f51905f525460020361370d57604051633ee5aeb560e01b815260040160405180910390fd5b565b5f5f5f5f61371d8686613737565b92509250925061372d8282613780565b5090949350505050565b5f5f5f835160410361376e576020840151604085015160608601515f1a61376088828585613838565b955095509550505050613779565b505081515f91506002905b9250925092565b5f82600381111561379357613793613b68565b0361379c575050565b60018260038111156137b0576137b0613b68565b036137ce5760405163f645eedf60e01b815260040160405180910390fd5b60028260038111156137e2576137e2613b68565b036138035760405163fce698f760e01b815260048101829052602401610cf3565b600382600381111561381757613817613b68565b03611e46576040516335e2f38360e21b815260048101829052602401610cf3565b5f80807f7fffffffffffffffffffffffffffffff5d576e7357a4501ddfe92f46681b20a084111561387157505f915060039050826138f6565b604080515f808252602082018084528a905260ff891692820192909252606081018790526080810186905260019060a0016020604051602081039080840390855afa1580156138c2573d5f5f3e3d5ffd5b5050604051601f1901519150506001600160a01b0381166138ed57505f9250600191508290506138f6565b92505f91508190505b9450945094915050565b604051806101c001604052805f81526020015f6001600160a01b031681526020015f6001600160a01b031681526020015f81526020015f81526020015f81526020015f81526020015f81526020015f81526020015f8152602001606081526020015f600781111561397357613973613b68565b81525f6020820181905260409091015290565b5f60208284031215613996575f5ffd5b81356001600160e01b031981168114611f83575f5ffd5b5f5f5f606084860312156139bf575f5ffd5b505081359360208301359350604090920135919050565b5f602082840312156139e6575f5ffd5b5035919050565b5f5f83601f8401126139fd575f5ffd5b50813567ffffffffffffffff811115613a14575f5ffd5b602083019150836020828501011115613a2b575f5ffd5b9250929050565b5f5f5f5f60608587031215613a45575f5ffd5b8435935060208501359250604085013567ffffffffffffffff811115613a69575f5ffd5b613a75878288016139ed565b95989497509550505050565b80356001600160a01b0381168114613a97575f5ffd5b919050565b5f5f60408385031215613aad575f5ffd5b82359150613abd60208401613a81565b90509250929050565b8015158114610d12575f5ffd5b5f5f60408385031215613ae4575f5ffd5b823591506020830135613af681613ac6565b809150509250929050565b5f60208284031215613b11575f5ffd5b611f8382613a81565b5f5f60408385031215613b2b575f5ffd5b50508035926020909101359150565b5f81518084528060208401602086015e5f602082860101526020601f19601f83011685010191505092915050565b634e487b7160e01b5f52602160045260245ffd5b60088110613b9857634e487b7160e01b5f52602160045260245ffd5b9052565b8e81526001600160a01b038e811660208301528d1660408201528b60608201528a60808201528960a08201528860c08201528760e082015286610100820152856101208201526101c06101408201525f613bfa6101c0830187613b3a565b9050613c0a610160830186613b7c565b9215156101808201529015156101a0909101529c9b505050505050505050505050565b805182525f6020820151613c4c60208501826001600160a01b03169052565b506040820151613c6760408501826001600160a01b03169052565b50606082015160608401526080820151608084015260a082015160a084015260c082015160c084015260e082015160e08401526101008201516101008401526101208201516101208401526101408201516101c0610140850152613ccf6101c0850182613b3a565b9050610160830151613ce5610160860182613b7c565b50610180830151613cfb61018086018215159052565b506101a0830151613d116101a086018215159052565b509392505050565b5f602082016020835280845180835260408501915060408160051b8601019250602086015f5b82811015613d7057603f19878603018452613d5b858351613c2d565b94506020938401939190910190600101613d3f565b50929695505050505050565b5f60208284031215613d8c575f5ffd5b8135611f8381613ac6565b602081525f611f836020830184613c2d565b5f5f60408385031215613dba575f5ffd5b613dc383613a81565b946020939093013593505050565b634e487b7160e01b5f52601160045260245ffd5b80820180821115610a6757610a67613dd1565b60408101613e068285613b7c565b611f836020830184613b7c565b5f60208284031215613e23575f5ffd5b8151611f8381613ac6565b634e487b7160e01b5f52604160045260245ffd5b600181811c90821680613e5657607f821691505b602082108103613e7457634e487b7160e01b5f52602260045260245ffd5b50919050565b601f82111561163057805f5260205f20601f840160051c81016020851015613e9f5750805b601f840160051c820191505b81811015611ada575f8155600101613eab565b815167ffffffffffffffff811115613ed857613ed8613e2e565b613eec81613ee68454613e42565b84613e7a565b6020601f821160018114613f1e575f8315613f075750848201515b5f19600385901b1c1916600184901b178455611ada565b5f84815260208120601f198516915b82811015613f4d5787850151825560209485019460019092019101613f2d565b5084821015613f6a57868401515f19600387901b60f8161c191681555b50505050600190811b01905550565b5f60018201613f8a57613f8a613dd1565b5060010190565b6001600160a01b03929092168252602082015260400190565b8082028115828204841417610a6757610a67613dd1565b634e487b7160e01b5f52601260045260245ffd5b5f82613fef57634e487b7160e01b5f52601260045260245ffd5b500490565b634e487b7160e01b5f52603260045260245ffdfe21702c8af46127c7fa207f89d0b0a8441bb32959a0ac7df790e9ab1a25c989269b779b17422d0df92223018b32b4d1fa46e071723d6817e2486d003becc55f00a2646970667358221220a73561d98c827b89a04685f161d10922bf9d88c853f7fa322885e59536db8d6d64736f6c634300081c0033",
  "linkReferences": {},
  "deployedLinkReferences": {}
}