{
  "_format": "hh-sol-artifact-1",
  "contractName": "PlatformFee",
  "sourceName": "contracts/PlatformFee.sol",
  "abi": [
    {
      "inputs": [
        {
          "internalType": "uint256",
          "name": "_feePercent",
          "type": "uint256"
        }
      ],
      "stateMutability": "nonpayable",
      "type": "constructor"
    },
    {
      "anonymous": false,
      "inputs": [
        {
          "indexed": true,
          "internalType": "address",
          "name": "newEscrow",
          "type": "address"
        }
      ],
      "name": "EscrowUpdated",
      "type": "event"
    },
    {
      "anonymous": false,
      "inputs": [
        {
          "indexed": false,
          "internalType": "uint256",
          "name": "amount",
          "type": "uint256"
        }
      ],
      "name": "FeeCollected",
      "type": "event"
    },
    {
      "anonymous": false,
      "inputs": [
        {
          "indexed": false,
          "internalType": "uint256",
          "name": "newPercent",
          "type": "uint256"
        }
      ],
      "name": "FeePercentUpdated",
      "type": "event"
    },
    {
      "anonymous": false,
      "inputs": [
        {
          "indexed": true,
          "internalType": "address",
          "name": "owner",
          "type": "address"
        },
        {
          "indexed": false,
          "internalType": "uint256",
          "name": "amount",
          "type": "uint256"
        }
      ],
      "name": "Withdraw",
      "type": "event"
    },
    {
      "inputs": [
        {
          "internalType": "uint256",
          "name": "amount",
          "type": "uint256"
        }
      ],
      "name": "calculateFee",
      "outputs": [
        {
          "internalType": "uint256",
          "name": "",
          "type": "uint256"
        }
      ],
      "stateMutability": "view",
      "type": "function"
    },
    {
      "inputs": [],
      "name": "collectFee",
      "outputs": [],
      "stateMutability": "payable",
      "type": "function"
    },
    {
      "inputs": [],
      "name": "escrowContract",
      "outputs": [
        {
          "internalType": "address",
          "name": "",
          "type": "address"
        }
      ],
      "stateMutability": "view",
      "type": "function"
    },
    {
      "inputs": [],
      "name": "feePercent",
      "outputs": [
        {
          "internalType": "uint256",
          "name": "",
          "type": "uint256"
        }
      ],
      "stateMutability": "view",
      "type": "function"
    },
    {
      "inputs": [],
      "name": "owner",
      "outputs": [
        {
          "internalType": "address",
          "name": "",
          "type": "address"
        }
      ],
      "stateMutability": "view",
      "type": "function"
    },
    {
      "inputs": [
        {
          "internalType": "address",
          "name": "_escrow",
          "type": "address"
        }
      ],
      "name": "setEscrowContract",
      "outputs": [],
      "stateMutability": "nonpayable",
      "type": "function"
    },
    {
      "inputs": [
        {
          "internalType": "address",
          "name": "newOwner",
          "type": "address"
        }
      ],
      "name": "transferOwnership",
      "outputs": [],
      "stateMutability": "nonpayable",
      "type": "function"
    },
    {
      "inputs": [
        {
          "internalType": "uint256",
          "name": "_newPercent",
          "type": "uint256"
        }
      ],
      "name": "updateFeePercent",
      "outputs": [],
      "stateMutability": "nonpayable",
      "type": "function"
    },
    {
      "inputs": [],
      "name": "withdrawFees",
      "outputs": [],
      "stateMutability": "nonpayable",
      "type": "function"
    }
  ],
  "bytecode": "0x6080604052348015600f57600080fd5b50604051610eb8380380610eb88339818101604052810190602f919060b1565b336000806101000a81548173ffffffffffffffffffffffffffffffffffffffff021916908373ffffffffffffffffffffffffffffffffffffffff160217905550806002819055505060d9565b600080fd5b6000819050919050565b6091816080565b8114609b57600080fd5b50565b60008151905060ab81608a565b92915050565b60006020828403121560c45760c3607b565b5b600060d084828501609e565b91505092915050565b610dd0806100e86000396000f3fe6080604052600436106100865760003560e01c8063d4d5d32a11610059578063d4d5d32a14610135578063e42a96e71461013f578063f05c5fed1461016a578063f2fde38b14610193578063f42375b5146101bc57610086565b8063476343ee1461008b5780637fd6f15c146100a25780638da5cb5b146100cd57806399a5d747146100f8575b600080fd5b34801561009757600080fd5b506100a06101e5565b005b3480156100ae57600080fd5b506100b7610393565b6040516100c49190610902565b60405180910390f35b3480156100d957600080fd5b506100e2610399565b6040516100ef919061095e565b60405180910390f35b34801561010457600080fd5b5061011f600480360381019061011a91906109aa565b6103bd565b60405161012c9190610902565b60405180910390f35b61013d6103e0565b005b34801561014b57600080fd5b506101546104ec565b604051610161919061095e565b60405180910390f35b34801561017657600080fd5b50610191600480360381019061018c91906109aa565b610512565b005b34801561019f57600080fd5b506101ba60048036038101906101b59190610a03565b610625565b005b3480156101c857600080fd5b506101e360048036038101906101de9190610a03565b610765565b005b60008054906101000a900473ffffffffffffffffffffffffffffffffffffffff1673ffffffffffffffffffffffffffffffffffffffff163373ffffffffffffffffffffffffffffffffffffffff1614610273576040517f08c379a000000000000000000000000000000000000000000000000000000000815260040161026a90610a8d565b60405180910390fd5b6000479050600081116102bb576040517f08c379a00000000000000000000000000000000000000000000000000000000081526004016102b290610af9565b60405180910390fd5b60008054906101000a900473ffffffffffffffffffffffffffffffffffffffff1673ffffffffffffffffffffffffffffffffffffffff166108fc829081150290604051600060405180830381858888f19350505050158015610321573d6000803e3d6000fd5b5060008054906101000a900473ffffffffffffffffffffffffffffffffffffffff1673ffffffffffffffffffffffffffffffffffffffff167f884edad9ce6fa2440d8a54cc123490eb96d2768479d49ff9c7366125a9424364826040516103889190610902565b60405180910390a250565b60025481565b60008054906101000a900473ffffffffffffffffffffffffffffffffffffffff1681565b60006064600254836103cf9190610b48565b6103d99190610bb9565b9050919050565b600160009054906101000a900473ffffffffffffffffffffffffffffffffffffffff1673ffffffffffffffffffffffffffffffffffffffff163373ffffffffffffffffffffffffffffffffffffffff1614610470576040517f08c379a000000000000000000000000000000000000000000000000000000000815260040161046790610c36565b60405180910390fd5b600034116104b3576040517f08c379a00000000000000000000000000000000000000000000000000000000081526004016104aa90610ca2565b60405180910390fd5b7fc472cb3a7a659a876494d66b3063145f279701771d6150b9329c31611ed6405c346040516104e29190610902565b60405180910390a1565b600160009054906101000a900473ffffffffffffffffffffffffffffffffffffffff1681565b60008054906101000a900473ffffffffffffffffffffffffffffffffffffffff1673ffffffffffffffffffffffffffffffffffffffff163373ffffffffffffffffffffffffffffffffffffffff16146105a0576040517f08c379a000000000000000000000000000000000000000000000000000000000815260040161059790610a8d565b60405180910390fd5b600a8111156105e4576040517f08c379a00000000000000000000000000000000000000000000000000000000081526004016105db90610d0e565b60405180910390fd5b806002819055507f64d1887078a96d281ed60dd69ba75bfb6b5cd2cb4c2d2538b2eb7816a4c646ea8160405161061a9190610902565b60405180910390a150565b60008054906101000a900473ffffffffffffffffffffffffffffffffffffffff1673ffffffffffffffffffffffffffffffffffffffff163373ffffffffffffffffffffffffffffffffffffffff16146106b3576040517f08c379a00000000000000000000000000000000000000000000000000000000081526004016106aa90610a8d565b60405180910390fd5b600073ffffffffffffffffffffffffffffffffffffffff168173ffffffffffffffffffffffffffffffffffffffff1603610722576040517f08c379a000000000000000000000000000000000000000000000000000000000815260040161071990610d7a565b60405180910390fd5b806000806101000a81548173ffffffffffffffffffffffffffffffffffffffff021916908373ffffffffffffffffffffffffffffffffffffffff16021790555050565b60008054906101000a900473ffffffffffffffffffffffffffffffffffffffff1673ffffffffffffffffffffffffffffffffffffffff163373ffffffffffffffffffffffffffffffffffffffff16146107f3576040517f08c379a00000000000000000000000000000000000000000000000000000000081526004016107ea90610a8d565b60405180910390fd5b600073ffffffffffffffffffffffffffffffffffffffff168173ffffffffffffffffffffffffffffffffffffffff1603610862576040517f08c379a000000000000000000000000000000000000000000000000000000000815260040161085990610d7a565b60405180910390fd5b80600160006101000a81548173ffffffffffffffffffffffffffffffffffffffff021916908373ffffffffffffffffffffffffffffffffffffffff1602179055508073ffffffffffffffffffffffffffffffffffffffff167f43ab431641dd45dd0661cad4b820e826d7c526af92e3121e1242d721f82ab3ad60405160405180910390a250565b6000819050919050565b6108fc816108e9565b82525050565b600060208201905061091760008301846108f3565b92915050565b600073ffffffffffffffffffffffffffffffffffffffff82169050919050565b60006109488261091d565b9050919050565b6109588161093d565b82525050565b6000602082019050610973600083018461094f565b92915050565b600080fd5b610987816108e9565b811461099257600080fd5b50565b6000813590506109a48161097e565b92915050565b6000602082840312156109c0576109bf610979565b5b60006109ce84828501610995565b91505092915050565b6109e08161093d565b81146109eb57600080fd5b50565b6000813590506109fd816109d7565b92915050565b600060208284031215610a1957610a18610979565b5b6000610a27848285016109ee565b91505092915050565b600082825260208201905092915050565b7f4f6e6c79206f776e657220616c6c6f7765640000000000000000000000000000600082015250565b6000610a77601283610a30565b9150610a8282610a41565b602082019050919050565b60006020820190508181036000830152610aa681610a6a565b9050919050565b7f4e6f2062616c616e636500000000000000000000000000000000000000000000600082015250565b6000610ae3600a83610a30565b9150610aee82610aad565b602082019050919050565b60006020820190508181036000830152610b1281610ad6565b9050919050565b7f4e487b7100000000000000000000000000000000000000000000000000000000600052601160045260246000fd5b6000610b53826108e9565b9150610b5e836108e9565b9250828202610b6c816108e9565b91508282048414831517610b8357610b82610b19565b5b5092915050565b7f4e487b7100000000000000000000000000000000000000000000000000000000600052601260045260246000fd5b6000610bc4826108e9565b9150610bcf836108e9565b925082610bdf57610bde610b8a565b5b828204905092915050565b7f4f6e6c7920657363726f7720616c6c6f77656400000000000000000000000000600082015250565b6000610c20601383610a30565b9150610c2b82610bea565b602082019050919050565b60006020820190508181036000830152610c4f81610c13565b9050919050565b7f4e6f206665652073656e74000000000000000000000000000000000000000000600082015250565b6000610c8c600b83610a30565b9150610c9782610c56565b602082019050919050565b60006020820190508181036000830152610cbb81610c7f565b9050919050565b7f46656520746f6f20686967680000000000000000000000000000000000000000600082015250565b6000610cf8600c83610a30565b9150610d0382610cc2565b602082019050919050565b60006020820190508181036000830152610d2781610ceb565b9050919050565b7f496e76616c696420616464726573730000000000000000000000000000000000600082015250565b6000610d64600f83610a30565b9150610d6f82610d2e565b602082019050919050565b60006020820190508181036000830152610d9381610d57565b905091905056fea264697066735822122083aac4ac0674ec0c6e8560ad063bf5eaa070aef84507400332c1333c3755b6f164736f6c634300081c0033",
  "linkReferences": {},
  "deployedLinkReferences": {}
}