{
  "_format": "hh-sol-artifact-1",
  "contractName": "PlatformFee",
  "sourceName": "contracts/PlatformFee.sol",
  "abi": [
    {
      "inputs": [
        {
          "internalType": "uint256",
          "name": "_feePercent",
          "type": "uint256"
        }
      ],
      "stateMutability": "nonpayable",
      "type": "constructor"
    },
    {
      "anonymous": false,
      "inputs": [
        {
          "indexed": true,
          "internalType": "address",
          "name": "newEscrow",
          "type": "address"
        }
      ],
      "name": "EscrowUpdated",
      "type": "event"
    },
    {
      "anonymous": false,
      "inputs": [
        {
          "indexed": false,
          "internalType": "uint256",
          "name": "amount",
          "type": "uint256"
        }
      ],
      "name": "FeeCollected",
      "type": "event"
    },
    {
      "anonymous": false,
      "inputs": [
        {
          "indexed": false,
          "internalType": "uint256",
          "name": "newPercent",
          "type": "uint256"
        }
      ],
      "name": "FeePercentUpdated",
      "type": "event"
    },
    {
      "anonymous": false,
      "inputs": [
        {
          "indexed": true,
          "internalType": "address",
          "name": "owner",
          "type": "address"
        },
        {
          "indexed": false,
          "internalType": "uint256",
          "name": "amount",
          "type": "uint256"
        }
      ],
      "name": "Withdraw",
      "type": "event"
    },
    {
      "inputs": [
        {
          "internalType": "uint256",
          "name": "amount",
          "type": "uint256"
        }
      ],
      "name": "calculateFee",
      "outputs": [
        {
          "internalType": "uint256",
          "name": "",
          "type": "uint256"
        }
      ],
      "stateMutability": "view",
      "type": "function"
    },
    {
      "inputs": [],
      "name": "collectFee",
      "outputs": [],
      "stateMutability": "payable",
      "type": "function"
    },
    {
      "inputs": [],
      "name": "escrowContract",
      "outputs": [
        {
          "internalType": "address",
          "name": "",
          "type": "address"
        }
      ],
      "stateMutability": "view",
      "type": "function"
    },
    {
      "inputs": [],
      "name": "feePercent",
      "outputs": [
        {
          "internalType": "uint256",
          "name": "",
          "type": "uint256"
        }
      ],
      "stateMutability": "view",
      "type": "function"
    },
    {
      "inputs": [],
      "name": "owner",
      "outputs": [
        {
          "internalType": "address",
          "name": "",
          "type": "address"
        }
      ],
      "stateMutability": "view",
      "type": "function"
    },
    {
      "inputs": [
        {
          "internalType": "address",
          "name": "_escrow",
          "type": "address"
        }
      ],
      "name": "setEscrowContract",
      "outputs": [],
      "stateMutability": "nonpayable",
      "type": "function"
    },
    {
      "inputs": [
        {
          "internalType": "uint256",
          "name": "_newPercent",
          "type": "uint256"
        }
      ],
      "name": "updateFeePercent",
      "outputs": [],
      "stateMutability": "nonpayable",
      "type": "function"
    },
    {
      "inputs": [],
      "name": "withdrawFees",
      "outputs": [],
      "stateMutability": "nonpayable",
      "type": "function"
    }
  ],
  "bytecode": "0x6080604052348015600f57600080fd5b50604051610d44380380610d448339818101604052810190602f919060b1565b336000806101000a81548173ffffffffffffffffffffffffffffffffffffffff021916908373ffffffffffffffffffffffffffffffffffffffff160217905550806002819055505060d9565b600080fd5b6000819050919050565b6091816080565b8114609b57600080fd5b50565b60008151905060ab81608a565b92915050565b60006020828403121560c45760c3607b565b5b600060d084828501609e565b91505092915050565b610c5c806100e86000396000f3fe60806040526004361061007b5760003560e01c8063d4d5d32a1161004e578063d4d5d32a1461012a578063e42a96e714610134578063f05c5fed1461015f578063f42375b5146101885761007b565b8063476343ee146100805780637fd6f15c146100975780638da5cb5b146100c257806399a5d747146100ed575b600080fd5b34801561008c57600080fd5b506100956101b1565b005b3480156100a357600080fd5b506100ac61035f565b6040516100b9919061078e565b60405180910390f35b3480156100ce57600080fd5b506100d7610365565b6040516100e491906107ea565b60405180910390f35b3480156100f957600080fd5b50610114600480360381019061010f9190610836565b610389565b604051610121919061078e565b60405180910390f35b6101326103ac565b005b34801561014057600080fd5b506101496104b8565b60405161015691906107ea565b60405180910390f35b34801561016b57600080fd5b5061018660048036038101906101819190610836565b6104de565b005b34801561019457600080fd5b506101af60048036038101906101aa919061088f565b6105f1565b005b60008054906101000a900473ffffffffffffffffffffffffffffffffffffffff1673ffffffffffffffffffffffffffffffffffffffff163373ffffffffffffffffffffffffffffffffffffffff161461023f576040517f08c379a000000000000000000000000000000000000000000000000000000000815260040161023690610919565b60405180910390fd5b600047905060008111610287576040517f08c379a000000000000000000000000000000000000000000000000000000000815260040161027e90610985565b60405180910390fd5b60008054906101000a900473ffffffffffffffffffffffffffffffffffffffff1673ffffffffffffffffffffffffffffffffffffffff166108fc829081150290604051600060405180830381858888f193505050501580156102ed573d6000803e3d6000fd5b5060008054906101000a900473ffffffffffffffffffffffffffffffffffffffff1673ffffffffffffffffffffffffffffffffffffffff167f884edad9ce6fa2440d8a54cc123490eb96d2768479d49ff9c7366125a942436482604051610354919061078e565b60405180910390a250565b60025481565b60008054906101000a900473ffffffffffffffffffffffffffffffffffffffff1681565b600060646002548361039b91906109d4565b6103a59190610a45565b9050919050565b600160009054906101000a900473ffffffffffffffffffffffffffffffffffffffff1673ffffffffffffffffffffffffffffffffffffffff163373ffffffffffffffffffffffffffffffffffffffff161461043c576040517f08c379a000000000000000000000000000000000000000000000000000000000815260040161043390610ac2565b60405180910390fd5b6000341161047f576040517f08c379a000000000000000000000000000000000000000000000000000000000815260040161047690610b2e565b60405180910390fd5b7fc472cb3a7a659a876494d66b3063145f279701771d6150b9329c31611ed6405c346040516104ae919061078e565b60405180910390a1565b600160009054906101000a900473ffffffffffffffffffffffffffffffffffffffff1681565b60008054906101000a900473ffffffffffffffffffffffffffffffffffffffff1673ffffffffffffffffffffffffffffffffffffffff163373ffffffffffffffffffffffffffffffffffffffff161461056c576040517f08c379a000000000000000000000000000000000000000000000000000000000815260040161056390610919565b60405180910390fd5b600a8111156105b0576040517f08c379a00000000000000000000000000000000000000000000000000000000081526004016105a790610b9a565b60405180910390fd5b806002819055507f64d1887078a96d281ed60dd69ba75bfb6b5cd2cb4c2d2538b2eb7816a4c646ea816040516105e6919061078e565b60405180910390a150565b60008054906101000a900473ffffffffffffffffffffffffffffffffffffffff1673ffffffffffffffffffffffffffffffffffffffff163373ffffffffffffffffffffffffffffffffffffffff161461067f576040517f08c379a000000000000000000000000000000000000000000000000000000000815260040161067690610919565b60405180910390fd5b600073ffffffffffffffffffffffffffffffffffffffff168173ffffffffffffffffffffffffffffffffffffffff16036106ee576040517f08c379a00000000000000000000000000000000000000000000000000000000081526004016106e590610c06565b60405180910390fd5b80600160006101000a81548173ffffffffffffffffffffffffffffffffffffffff021916908373ffffffffffffffffffffffffffffffffffffffff1602179055508073ffffffffffffffffffffffffffffffffffffffff167f43ab431641dd45dd0661cad4b820e826d7c526af92e3121e1242d721f82ab3ad60405160405180910390a250565b6000819050919050565b61078881610775565b82525050565b60006020820190506107a3600083018461077f565b92915050565b600073ffffffffffffffffffffffffffffffffffffffff82169050919050565b60006107d4826107a9565b9050919050565b6107e4816107c9565b82525050565b60006020820190506107ff60008301846107db565b92915050565b600080fd5b61081381610775565b811461081e57600080fd5b50565b6000813590506108308161080a565b92915050565b60006020828403121561084c5761084b610805565b5b600061085a84828501610821565b91505092915050565b61086c816107c9565b811461087757600080fd5b50565b60008135905061088981610863565b92915050565b6000602082840312156108a5576108a4610805565b5b60006108b38482850161087a565b91505092915050565b600082825260208201905092915050565b7f4f6e6c79206f776e657220616c6c6f7765640000000000000000000000000000600082015250565b60006109036012836108bc565b915061090e826108cd565b602082019050919050565b60006020820190508181036000830152610932816108f6565b9050919050565b7f4e6f2062616c616e636500000000000000000000000000000000000000000000600082015250565b600061096f600a836108bc565b915061097a82610939565b602082019050919050565b6000602082019050818103600083015261099e81610962565b9050919050565b7f4e487b7100000000000000000000000000000000000000000000000000000000600052601160045260246000fd5b60006109df82610775565b91506109ea83610775565b92508282026109f881610775565b91508282048414831517610a0f57610a0e6109a5565b5b5092915050565b7f4e487b7100000000000000000000000000000000000000000000000000000000600052601260045260246000fd5b6000610a5082610775565b9150610a5b83610775565b925082610a6b57610a6a610a16565b5b828204905092915050565b7f4f6e6c7920657363726f7720616c6c6f77656400000000000000000000000000600082015250565b6000610aac6013836108bc565b9150610ab782610a76565b602082019050919050565b60006020820190508181036000830152610adb81610a9f565b9050919050565b7f4e6f206665652073656e74000000000000000000000000000000000000000000600082015250565b6000610b18600b836108bc565b9150610b2382610ae2565b602082019050919050565b60006020820190508181036000830152610b4781610b0b565b9050919050565b7f46656520746f6f20686967680000000000000000000000000000000000000000600082015250565b6000610b84600c836108bc565b9150610b8f82610b4e565b602082019050919050565b60006020820190508181036000830152610bb381610b77565b9050919050565b7f496e76616c696420616464726573730000000000000000000000000000000000600082015250565b6000610bf0600f836108bc565b9150610bfb82610bba565b602082019050919050565b60006020820190508181036000830152610c1f81610be3565b905091905056fea2646970667358221220edd48556b6f4435f87e868b167aefb9454be2bfc94fdc72bd7675f0d5a73ac1d64736f6c634300081c0033",
  "linkReferences": {},
  "deployedLinkReferences": {}
}