{
  "_format": "hh-sol-artifact-1",
  "contractName": "ReputationSystem",
  "sourceName": "contracts/ReputationSystem.sol",
  "abi": [
    {
      "inputs": [
        {
          "internalType": "address",
          "name": "_escrow",
          "type": "address"
        }
      ],
      "stateMutability": "nonpayable",
      "type": "constructor"
    },
    {
      "anonymous": false,
      "inputs": [
        {
          "indexed": true,
          "internalType": "uint256",
          "name": "requestId",
          "type": "uint256"
        },
        {
          "indexed": true,
          "internalType": "address",
          "name": "rater",
          "type": "address"
        },
        {
          "indexed": true,
          "internalType": "address",
          "name": "user",
          "type": "address"
        },
        {
          "indexed": false,
          "internalType": "uint256",
          "name": "rating",
          "type": "uint256"
        }
      ],
      "name": "UserRated",
      "type": "event"
    },
    {
      "inputs": [],
      "name": "escrow",
      "outputs": [
        {
          "internalType": "contract IEscrowPayment",
          "name": "",
          "type": "address"
        }
      ],
      "stateMutability": "view",
      "type": "function"
    },
    {
      "inputs": [
        {
          "internalType": "address",
          "name": "user",
          "type": "address"
        }
      ],
      "name": "getAverageRating",
      "outputs": [
        {
          "internalType": "uint256",
          "name": "",
          "type": "uint256"
        }
      ],
      "stateMutability": "view",
      "type": "function"
    },
    {
      "inputs": [
        {
          "internalType": "uint256",
          "name": "requestId",
          "type": "uint256"
        },
        {
          "internalType": "address",
          "name": "user",
          "type": "address"
        },
        {
          "internalType": "uint256",
          "name": "rating",
          "type": "uint256"
        }
      ],
      "name": "rateUser",
      "outputs": [],
      "stateMutability": "nonpayable",
      "type": "function"
    },
    {
      "inputs": [
        {
          "internalType": "uint256",
          "name": "",
          "type": "uint256"
        },
        {
          "internalType": "address",
          "name": "",
          "type": "address"
        }
      ],
      "name": "rated",
      "outputs": [
        {
          "internalType": "bool",
          "name": "",
          "type": "bool"
        }
      ],
      "stateMutability": "view",
      "type": "function"
    },
    {
      "inputs": [
        {
          "internalType": "address",
          "name": "",
          "type": "address"
        }
      ],
      "name": "reputations",
      "outputs": [
        {
          "internalType": "uint256",
          "name": "totalRating",
          "type": "uint256"
        },
        {
          "internalType": "uint256",
          "name": "ratingCount",
          "type": "uint256"
        }
      ],
      "stateMutability": "view",
      "type": "function"
    }
  ],
  "bytecode": "0x608060405234801561001057600080fd5b50604051610b9c380380610b9c833981810160405281019061003291906100db565b806000806101000a81548173ffffffffffffffffffffffffffffffffffffffff021916908373ffffffffffffffffffffffffffffffffffffffff16021790555050610108565b600080fd5b600073ffffffffffffffffffffffffffffffffffffffff82169050919050565b60006100a88261007d565b9050919050565b6100b88161009d565b81146100c357600080fd5b50565b6000815190506100d5816100af565b92915050565b6000602082840312156100f1576100f0610078565b5b60006100ff848285016100c6565b91505092915050565b610a85806101176000396000f3fe608060405234801561001057600080fd5b50600436106100575760003560e01c806306fa15a71461005c5780631a63c2641461008d578063a10543fc146100bd578063c8b67522146100d9578063e2fdcc1714610109575b600080fd5b610076600480360381019061007191906105e5565b610127565b60405161008492919061062b565b60405180910390f35b6100a760048036038101906100a29190610680565b61014b565b6040516100b491906106db565b60405180910390f35b6100d760048036038101906100d291906106f6565b61017a565b005b6100f360048036038101906100ee91906105e5565b6104c8565b6040516101009190610749565b60405180910390f35b61011161055e565b60405161011e91906107c3565b60405180910390f35b60016020528060005260406000206000915090508060000154908060010154905082565b60026020528160005260406000206020528060005260406000206000915091509054906101000a900460ff1681565b60008054906101000a900473ffffffffffffffffffffffffffffffffffffffff1673ffffffffffffffffffffffffffffffffffffffff1663c1522919846040518263ffffffff1660e01b81526004016101d39190610749565b602060405180830381865afa1580156101f0573d6000803e3d6000fd5b505050506040513d601f19601f82011682018060405250810190610214919061080a565b610253576040517f08c379a000000000000000000000000000000000000000000000000000000000815260040161024a90610894565b60405180910390fd5b60018110158015610265575060058111155b6102a4576040517f08c379a000000000000000000000000000000000000000000000000000000000815260040161029b90610900565b60405180910390fd5b6002600084815260200190815260200160002060003373ffffffffffffffffffffffffffffffffffffffff1673ffffffffffffffffffffffffffffffffffffffff16815260200190815260200160002060009054906101000a900460ff1615610342576040517f08c379a00000000000000000000000000000000000000000000000000000000081526004016103399061096c565b60405180910390fd5b80600160008473ffffffffffffffffffffffffffffffffffffffff1673ffffffffffffffffffffffffffffffffffffffff168152602001908152602001600020600001600082825461039491906109bb565b9250508190555060018060008473ffffffffffffffffffffffffffffffffffffffff1673ffffffffffffffffffffffffffffffffffffffff16815260200190815260200160002060010160008282546103ed91906109bb565b9250508190555060016002600085815260200190815260200160002060003373ffffffffffffffffffffffffffffffffffffffff1673ffffffffffffffffffffffffffffffffffffffff16815260200190815260200160002060006101000a81548160ff0219169083151502179055508173ffffffffffffffffffffffffffffffffffffffff163373ffffffffffffffffffffffffffffffffffffffff16847fabfdb5ca6197e86c57b31cffb45dac27a3eff08d7e825b6f1fb66c2c06fef6d7846040516104bb9190610749565b60405180910390a4505050565b600080600160008473ffffffffffffffffffffffffffffffffffffffff1673ffffffffffffffffffffffffffffffffffffffff1681526020019081526020016000206040518060400160405290816000820154815260200160018201548152505090506000816020015103610541576000915050610559565b806020015181600001516105559190610a1e565b9150505b919050565b60008054906101000a900473ffffffffffffffffffffffffffffffffffffffff1681565b600080fd5b600073ffffffffffffffffffffffffffffffffffffffff82169050919050565b60006105b282610587565b9050919050565b6105c2816105a7565b81146105cd57600080fd5b50565b6000813590506105df816105b9565b92915050565b6000602082840312156105fb576105fa610582565b5b6000610609848285016105d0565b91505092915050565b6000819050919050565b61062581610612565b82525050565b6000604082019050610640600083018561061c565b61064d602083018461061c565b9392505050565b61065d81610612565b811461066857600080fd5b50565b60008135905061067a81610654565b92915050565b6000806040838503121561069757610696610582565b5b60006106a58582860161066b565b92505060206106b6858286016105d0565b9150509250929050565b60008115159050919050565b6106d5816106c0565b82525050565b60006020820190506106f060008301846106cc565b92915050565b60008060006060848603121561070f5761070e610582565b5b600061071d8682870161066b565b935050602061072e868287016105d0565b925050604061073f8682870161066b565b9150509250925092565b600060208201905061075e600083018461061c565b92915050565b6000819050919050565b600061078961078461077f84610587565b610764565b610587565b9050919050565b600061079b8261076e565b9050919050565b60006107ad82610790565b9050919050565b6107bd816107a2565b82525050565b60006020820190506107d860008301846107b4565b92915050565b6107e7816106c0565b81146107f257600080fd5b50565b600081519050610804816107de565b92915050565b6000602082840312156108205761081f610582565b5b600061082e848285016107f5565b91505092915050565b600082825260208201905092915050565b7f5061796d656e74206e6f742072656c6561736564000000000000000000000000600082015250565b600061087e601483610837565b915061088982610848565b602082019050919050565b600060208201905081810360008301526108ad81610871565b9050919050565b7f526174696e67206d75737420626520312d350000000000000000000000000000600082015250565b60006108ea601283610837565b91506108f5826108b4565b602082019050919050565b60006020820190508181036000830152610919816108dd565b9050919050565b7f416c726561647920726174656400000000000000000000000000000000000000600082015250565b6000610956600d83610837565b915061096182610920565b602082019050919050565b6000602082019050818103600083015261098581610949565b9050919050565b7f4e487b7100000000000000000000000000000000000000000000000000000000600052601160045260246000fd5b60006109c682610612565b91506109d183610612565b92508282019050808211156109e9576109e861098c565b5b92915050565b7f4e487b7100000000000000000000000000000000000000000000000000000000600052601260045260246000fd5b6000610a2982610612565b9150610a3483610612565b925082610a4457610a436109ef565b5b82820490509291505056fea2646970667358221220ccd5c6a2dca88ab0152095bb592dab2f1577ede24ac06a9cc08043ef2a512bee64736f6c634300081c0033",
  "linkReferences": {},
  "deployedLinkReferences": {}
}