{
  "_format": "hh-sol-artifact-1",
  "contractName": "EscrowPayment",
  "sourceName": "contracts/EscrowPayment.sol",
  "abi": [
    {
      "inputs": [
        {
          "internalType": "address",
          "name": "_charging",
          "type": "address"
        },
        {
          "internalType": "address",
          "name": "_matching",
          "type": "address"
        }
      ],
      "stateMutability": "nonpayable",
      "type": "constructor"
    },
    {
      "anonymous": false,
      "inputs": [
        {
          "indexed": true,
          "internalType": "uint256",
          "name": "_requestid",
          "type": "uint256"
        },
        {
          "indexed": false,
          "internalType": "address",
          "name": "reciever",
          "type": "address"
        },
        {
          "indexed": false,
          "internalType": "uint256",
          "name": "amount",
          "type": "uint256"
        }
      ],
      "name": "Paymentdeposited",
      "type": "event"
    },
    {
      "anonymous": false,
      "inputs": [
        {
          "indexed": true,
          "internalType": "uint256",
          "name": "requestid",
          "type": "uint256"
        },
        {
          "indexed": false,
          "internalType": "address",
          "name": "donor",
          "type": "address"
        },
        {
          "indexed": false,
          "internalType": "uint256",
          "name": "amount",
          "type": "uint256"
        }
      ],
      "name": "Paymentrelease",
      "type": "event"
    },
    {
      "anonymous": false,
      "inputs": [
        {
          "indexed": true,
          "internalType": "uint256",
          "name": "_requestid",
          "type": "uint256"
        },
        {
          "indexed": false,
          "internalType": "address",
          "name": "reciever",
          "type": "address"
        },
        {
          "indexed": false,
          "internalType": "uint256",
          "name": "amount",
          "type": "uint256"
        }
      ],
      "name": "refundpayment",
      "type": "event"
    },
    {
      "inputs": [
        {
          "internalType": "uint256",
          "name": "",
          "type": "uint256"
        }
      ],
      "name": "Escrowbalance",
      "outputs": [
        {
          "internalType": "uint256",
          "name": "",
          "type": "uint256"
        }
      ],
      "stateMutability": "view",
      "type": "function"
    },
    {
      "inputs": [],
      "name": "admin",
      "outputs": [
        {
          "internalType": "address",
          "name": "",
          "type": "address"
        }
      ],
      "stateMutability": "view",
      "type": "function"
    },
    {
      "inputs": [],
      "name": "charging",
      "outputs": [
        {
          "internalType": "contract IChargingRequest",
          "name": "",
          "type": "address"
        }
      ],
      "stateMutability": "view",
      "type": "function"
    },
    {
      "inputs": [
        {
          "internalType": "uint256",
          "name": "_requestedid",
          "type": "uint256"
        }
      ],
      "name": "deposite",
      "outputs": [],
      "stateMutability": "payable",
      "type": "function"
    },
    {
      "inputs": [],
      "name": "matching",
      "outputs": [
        {
          "internalType": "contract IMatchingContract",
          "name": "",
          "type": "address"
        }
      ],
      "stateMutability": "view",
      "type": "function"
    },
    {
      "inputs": [
        {
          "internalType": "bool",
          "name": "status",
          "type": "bool"
        }
      ],
      "name": "pauseEscrow",
      "outputs": [],
      "stateMutability": "nonpayable",
      "type": "function"
    },
    {
      "inputs": [],
      "name": "paused",
      "outputs": [
        {
          "internalType": "bool",
          "name": "",
          "type": "bool"
        }
      ],
      "stateMutability": "view",
      "type": "function"
    },
    {
      "inputs": [
        {
          "internalType": "uint256",
          "name": "_requestedid",
          "type": "uint256"
        }
      ],
      "name": "paymentrelease",
      "outputs": [],
      "stateMutability": "nonpayable",
      "type": "function"
    },
    {
      "inputs": [
        {
          "internalType": "uint256",
          "name": "_requestedid",
          "type": "uint256"
        }
      ],
      "name": "refund",
      "outputs": [],
      "stateMutability": "nonpayable",
      "type": "function"
    }
  ],
  "bytecode": "0x608060405234801561001057600080fd5b5060405161173d38038061173d8339818101604052810190610032919061015e565b336000806101000a81548173ffffffffffffffffffffffffffffffffffffffff021916908373ffffffffffffffffffffffffffffffffffffffff16021790555081600160006101000a81548173ffffffffffffffffffffffffffffffffffffffff021916908373ffffffffffffffffffffffffffffffffffffffff16021790555080600260006101000a81548173ffffffffffffffffffffffffffffffffffffffff021916908373ffffffffffffffffffffffffffffffffffffffff160217905550505061019e565b600080fd5b600073ffffffffffffffffffffffffffffffffffffffff82169050919050565b600061012b82610100565b9050919050565b61013b81610120565b811461014657600080fd5b50565b60008151905061015881610132565b92915050565b60008060408385031215610175576101746100fb565b5b600061018385828601610149565b925050602061019485828601610149565b9150509250929050565b611590806101ad6000396000f3fe6080604052600436106100865760003560e01c80635c975abb116100595780635c975abb14610136578063ae5ec2e914610161578063b819e0db1461018c578063dbdbad46146101b7578063f851a440146101e057610086565b8063278ecde11461008b5780633104562b146100b4578063489fbc61146100d057806355c455031461010d575b600080fd5b34801561009757600080fd5b506100b260048036038101906100ad9190610b6a565b61020b565b005b6100ce60048036038101906100c99190610b6a565b610442565b005b3480156100dc57600080fd5b506100f760048036038101906100f29190610b6a565b6106e3565b6040516101049190610ba6565b60405180910390f35b34801561011957600080fd5b50610134600480360381019061012f9190610b6a565b6106fb565b005b34801561014257600080fd5b5061014b610a80565b6040516101589190610bdc565b60405180910390f35b34801561016d57600080fd5b50610176610a93565b6040516101839190610c76565b60405180910390f35b34801561019857600080fd5b506101a1610ab9565b6040516101ae9190610cb2565b60405180910390f35b3480156101c357600080fd5b506101de60048036038101906101d99190610cf9565b610adf565b005b3480156101ec57600080fd5b506101f5610afc565b6040516102029190610d47565b60405180910390f35b60008054906101000a900473ffffffffffffffffffffffffffffffffffffffff1673ffffffffffffffffffffffffffffffffffffffff163373ffffffffffffffffffffffffffffffffffffffff1614610299576040517f08c379a000000000000000000000000000000000000000000000000000000000815260040161029090610dbf565b60405180910390fd5b6000600160009054906101000a900473ffffffffffffffffffffffffffffffffffffffff1673ffffffffffffffffffffffffffffffffffffffff1663c58343ef836040518263ffffffff1660e01b81526004016102f69190610ba6565b600060405180830381865afa158015610313573d6000803e3d6000fd5b505050506040513d6000823e3d601f19601f8201168201806040525081019061033c919061106c565b9050600081602001519050600060036000858152602001908152602001600020549050600081116103a2576040517f08c379a000000000000000000000000000000000000000000000000000000000815260040161039990611101565b60405180910390fd5b600060036000868152602001908152602001600020819055508173ffffffffffffffffffffffffffffffffffffffff166108fc829081150290604051600060405180830381858888f19350505050158015610401573d6000803e3d6000fd5b50837feb34194328af37b8c74f604101f6595c7f17e9d638d063cd91f0c8d9987e1e0c8383604051610434929190611121565b60405180910390a250505050565b6000600160009054906101000a900473ffffffffffffffffffffffffffffffffffffffff1673ffffffffffffffffffffffffffffffffffffffff1663c58343ef836040518263ffffffff1660e01b815260040161049f9190610ba6565b600060405180830381865afa1580156104bc573d6000803e3d6000fd5b505050506040513d6000823e3d601f19601f820116820180604052508101906104e5919061106c565b905060008160200151905060008260400151905060008360600151905060008460a0015190508373ffffffffffffffffffffffffffffffffffffffff163373ffffffffffffffffffffffffffffffffffffffff1614610579576040517f08c379a000000000000000000000000000000000000000000000000000000000815260040161057090611196565b60405180910390fd5b6001600381111561058d5761058c6111b6565b5b8160038111156105a05761059f6111b6565b5b146105e0576040517f08c379a00000000000000000000000000000000000000000000000000000000081526004016105d790611231565b60405180910390fd5b6000600360008881526020019081526020016000205414610636576040517f08c379a000000000000000000000000000000000000000000000000000000000815260040161062d9061129d565b60405180910390fd5b6000828461064491906112ec565b9050803414610688576040517f08c379a000000000000000000000000000000000000000000000000000000000815260040161067f9061137a565b60405180910390fd5b346003600089815260200190815260200160002081905550867f173bf4ac0eaaaec87bb326448714d43b67677ad16372db4909bf169e27d1724933346040516106d2929190611121565b60405180910390a250505050505050565b60036020528060005260406000206000915090505481565b60008054906101000a900473ffffffffffffffffffffffffffffffffffffffff1673ffffffffffffffffffffffffffffffffffffffff163373ffffffffffffffffffffffffffffffffffffffff1614610789576040517f08c379a000000000000000000000000000000000000000000000000000000000815260040161078090610dbf565b60405180910390fd5b600080600260009054906101000a900473ffffffffffffffffffffffffffffffffffffffff1673ffffffffffffffffffffffffffffffffffffffff16633d092b3d846040518263ffffffff1660e01b81526004016107e79190610ba6565b608060405180830381865afa158015610804573d6000803e3d6000fd5b505050506040513d601f19601f8201168201806040525081019061082891906113af565b9350935050508061086e576040517f08c379a000000000000000000000000000000000000000000000000000000000815260040161086590611462565b60405180910390fd5b6000600160009054906101000a900473ffffffffffffffffffffffffffffffffffffffff1673ffffffffffffffffffffffffffffffffffffffff1663c58343ef856040518263ffffffff1660e01b81526004016108cb9190610ba6565b600060405180830381865afa1580156108e8573d6000803e3d6000fd5b505050506040513d6000823e3d601f19601f82011682018060405250810190610911919061106c565b905060008160a001519050600260038111156109305761092f6111b6565b5b816003811115610943576109426111b6565b5b14610983576040517f08c379a000000000000000000000000000000000000000000000000000000000815260040161097a906114ce565b60405180910390fd5b600060036000878152602001908152602001600020549050600081116109de576040517f08c379a00000000000000000000000000000000000000000000000000000000081526004016109d59061153a565b60405180910390fd5b600060036000888152602001908152602001600020819055508473ffffffffffffffffffffffffffffffffffffffff166108fc829081150290604051600060405180830381858888f19350505050158015610a3d573d6000803e3d6000fd5b50857f13a5eb17c1560ae1e84822b45fddb26458480a29914a7f2fa1561ebef952d91f8683604051610a70929190611121565b60405180910390a2505050505050565b600460009054906101000a900460ff1681565b600260009054906101000a900473ffffffffffffffffffffffffffffffffffffffff1681565b600160009054906101000a900473ffffffffffffffffffffffffffffffffffffffff1681565b80600460006101000a81548160ff02191690831515021790555050565b60008054906101000a900473ffffffffffffffffffffffffffffffffffffffff1681565b6000604051905090565b600080fd5b600080fd5b6000819050919050565b610b4781610b34565b8114610b5257600080fd5b50565b600081359050610b6481610b3e565b92915050565b600060208284031215610b8057610b7f610b2a565b5b6000610b8e84828501610b55565b91505092915050565b610ba081610b34565b82525050565b6000602082019050610bbb6000830184610b97565b92915050565b60008115159050919050565b610bd681610bc1565b82525050565b6000602082019050610bf16000830184610bcd565b92915050565b600073ffffffffffffffffffffffffffffffffffffffff82169050919050565b6000819050919050565b6000610c3c610c37610c3284610bf7565b610c17565b610bf7565b9050919050565b6000610c4e82610c21565b9050919050565b6000610c6082610c43565b9050919050565b610c7081610c55565b82525050565b6000602082019050610c8b6000830184610c67565b92915050565b6000610c9c82610c43565b9050919050565b610cac81610c91565b82525050565b6000602082019050610cc76000830184610ca3565b92915050565b610cd681610bc1565b8114610ce157600080fd5b50565b600081359050610cf381610ccd565b92915050565b600060208284031215610d0f57610d0e610b2a565b5b6000610d1d84828501610ce4565b91505092915050565b6000610d3182610bf7565b9050919050565b610d4181610d26565b82525050565b6000602082019050610d5c6000830184610d38565b92915050565b600082825260208201905092915050565b7f6f6e6c792061646d696e20616c6c6f7765640000000000000000000000000000600082015250565b6000610da9601283610d62565b9150610db482610d73565b602082019050919050565b60006020820190508181036000830152610dd881610d9c565b9050919050565b600080fd5b6000601f19601f8301169050919050565b7f4e487b7100000000000000000000000000000000000000000000000000000000600052604160045260246000fd5b610e2d82610de4565b810181811067ffffffffffffffff82111715610e4c57610e4b610df5565b5b80604052505050565b6000610e5f610b20565b9050610e6b8282610e24565b919050565b600080fd5b600081519050610e8481610b3e565b92915050565b610e9381610d26565b8114610e9e57600080fd5b50565b600081519050610eb081610e8a565b92915050565b600080fd5b600080fd5b600067ffffffffffffffff821115610edb57610eda610df5565b5b610ee482610de4565b9050602081019050919050565b60005b83811015610f0f578082015181840152602081019050610ef4565b60008484015250505050565b6000610f2e610f2984610ec0565b610e55565b905082815260208101848484011115610f4a57610f49610ebb565b5b610f55848285610ef1565b509392505050565b600082601f830112610f7257610f71610eb6565b5b8151610f82848260208601610f1b565b91505092915050565b60048110610f9857600080fd5b50565b600081519050610faa81610f8b565b92915050565b600060c08284031215610fc657610fc5610ddf565b5b610fd060c0610e55565b90506000610fe084828501610e75565b6000830152506020610ff484828501610ea1565b602083015250604061100884828501610e75565b604083015250606061101c84828501610e75565b606083015250608082015167ffffffffffffffff8111156110405761103f610e70565b5b61104c84828501610f5d565b60808301525060a061106084828501610f9b565b60a08301525092915050565b60006020828403121561108257611081610b2a565b5b600082015167ffffffffffffffff8111156110a05761109f610b2f565b5b6110ac84828501610fb0565b91505092915050565b7f6e6f2066756e6400000000000000000000000000000000000000000000000000600082015250565b60006110eb600783610d62565b91506110f6826110b5565b602082019050919050565b6000602082019050818103600083015261111a816110de565b9050919050565b60006040820190506111366000830185610d38565b6111436020830184610b97565b9392505050565b7f6f6e6c792072656369657665722063616e206465706f73697465000000000000600082015250565b6000611180601a83610d62565b915061118b8261114a565b602082019050919050565b600060208201905081810360008301526111af81611173565b9050919050565b7f4e487b7100000000000000000000000000000000000000000000000000000000600052602160045260246000fd5b7f6f6e6c79206163636570746564207265717565737420616c6c6f776564000000600082015250565b600061121b601d83610d62565b9150611226826111e5565b602082019050919050565b6000602082019050818103600083015261124a8161120e565b9050919050565b7f616c7265616479206465706f7369746564000000000000000000000000000000600082015250565b6000611287601183610d62565b915061129282611251565b602082019050919050565b600060208201905081810360008301526112b68161127a565b9050919050565b7f4e487b7100000000000000000000000000000000000000000000000000000000600052601160045260246000fd5b60006112f782610b34565b915061130283610b34565b925082820261131081610b34565b91508282048414831517611327576113266112bd565b5b5092915050565b7f696e636f7272656374207061796d656e7420616d6f756e740000000000000000600082015250565b6000611364601883610d62565b915061136f8261132e565b602082019050919050565b6000602082019050818103600083015261139381611357565b9050919050565b6000815190506113a981610ccd565b92915050565b600080600080608085870312156113c9576113c8610b2a565b5b60006113d787828801610e75565b94505060206113e887828801610ea1565b93505060406113f987828801610ea1565b925050606061140a8782880161139a565b91505092959194509250565b7f6d61746368696e67206e6f7420666f756e640000000000000000000000000000600082015250565b600061144c601283610d62565b915061145782611416565b602082019050919050565b6000602082019050818103600083015261147b8161143f565b9050919050565b7f6368617267696e67206e6f7420636f6d706c6574656400000000000000000000600082015250565b60006114b8601683610d62565b91506114c382611482565b602082019050919050565b600060208201905081810360008301526114e7816114ab565b9050919050565b7f6e6f2066756e6473000000000000000000000000000000000000000000000000600082015250565b6000611524600883610d62565b915061152f826114ee565b602082019050919050565b6000602082019050818103600083015261155381611517565b905091905056fea2646970667358221220e677413c8ed3c71ef4ef889093662f99958eb2c7c84b98d0edf48cfc5a7ac18f64736f6c634300081c0033",
  "linkReferences": {},
  "deployedLinkReferences": {}
}