{
  "_format": "hh-sol-artifact-1",
  "contractName": "EscrowPayment",
  "sourceName": "contracts/EscrowPayment.sol",
  "abi": [
    {
      "inputs": [
        {
          "internalType": "address",
          "name": "_charging",
          "type": "address"
        },
        {
          "internalType": "address",
          "name": "_matching",
          "type": "address"
        }
      ],
      "stateMutability": "nonpayable",
      "type": "constructor"
    },
    {
      "anonymous": false,
      "inputs": [
        {
          "indexed": true,
          "internalType": "uint256",
          "name": "_requestid",
          "type": "uint256"
        },
        {
          "indexed": false,
          "internalType": "address",
          "name": "reciever",
          "type": "address"
        },
        {
          "indexed": false,
          "internalType": "uint256",
          "name": "amount",
          "type": "uint256"
        }
      ],
      "name": "Paymentdeposited",
      "type": "event"
    },
    {
      "anonymous": false,
      "inputs": [
        {
          "indexed": true,
          "internalType": "uint256",
          "name": "requestid",
          "type": "uint256"
        },
        {
          "indexed": false,
          "internalType": "address",
          "name": "donor",
          "type": "address"
        },
        {
          "indexed": false,
          "internalType": "uint256",
          "name": "amount",
          "type": "uint256"
        }
      ],
      "name": "Paymentrelease",
      "type": "event"
    },
    {
      "anonymous": false,
      "inputs": [
        {
          "indexed": true,
          "internalType": "uint256",
          "name": "_requestid",
          "type": "uint256"
        },
        {
          "indexed": false,
          "internalType": "address",
          "name": "reciever",
          "type": "address"
        },
        {
          "indexed": false,
          "internalType": "uint256",
          "name": "amount",
          "type": "uint256"
        }
      ],
      "name": "refundpayment",
      "type": "event"
    },
    {
      "inputs": [
        {
          "internalType": "uint256",
          "name": "",
          "type": "uint256"
        }
      ],
      "name": "Escrowbalance",
      "outputs": [
        {
          "internalType": "uint256",
          "name": "",
          "type": "uint256"
        }
      ],
      "stateMutability": "view",
      "type": "function"
    },
    {
      "inputs": [],
      "name": "admin",
      "outputs": [
        {
          "internalType": "address",
          "name": "",
          "type": "address"
        }
      ],
      "stateMutability": "view",
      "type": "function"
    },
    {
      "inputs": [],
      "name": "charging",
      "outputs": [
        {
          "internalType": "contract IChargingRequest",
          "name": "",
          "type": "address"
        }
      ],
      "stateMutability": "view",
      "type": "function"
    },
    {
      "inputs": [
        {
          "internalType": "uint256",
          "name": "_requestedid",
          "type": "uint256"
        }
      ],
      "name": "deposite",
      "outputs": [],
      "stateMutability": "payable",
      "type": "function"
    },
    {
      "inputs": [],
      "name": "matching",
      "outputs": [
        {
          "internalType": "contract IMatchingContract",
          "name": "",
          "type": "address"
        }
      ],
      "stateMutability": "view",
      "type": "function"
    },
    {
      "inputs": [
        {
          "internalType": "uint256",
          "name": "_requestedid",
          "type": "uint256"
        }
      ],
      "name": "paymentrelease",
      "outputs": [],
      "stateMutability": "nonpayable",
      "type": "function"
    },
    {
      "inputs": [
        {
          "internalType": "uint256",
          "name": "_requestedid",
          "type": "uint256"
        }
      ],
      "name": "refund",
      "outputs": [],
      "stateMutability": "nonpayable",
      "type": "function"
    }
  ],
  "bytecode": "0x608060405234801561001057600080fd5b506040516116373803806116378339818101604052810190610032919061015e565b336000806101000a81548173ffffffffffffffffffffffffffffffffffffffff021916908373ffffffffffffffffffffffffffffffffffffffff16021790555081600160006101000a81548173ffffffffffffffffffffffffffffffffffffffff021916908373ffffffffffffffffffffffffffffffffffffffff16021790555080600260006101000a81548173ffffffffffffffffffffffffffffffffffffffff021916908373ffffffffffffffffffffffffffffffffffffffff160217905550505061019e565b600080fd5b600073ffffffffffffffffffffffffffffffffffffffff82169050919050565b600061012b82610100565b9050919050565b61013b81610120565b811461014657600080fd5b50565b60008151905061015881610132565b92915050565b60008060408385031215610175576101746100fb565b5b600061018385828601610149565b925050602061019485828601610149565b9150509250929050565b61148a806101ad6000396000f3fe6080604052600436106100705760003560e01c806355c455031161004e57806355c45503146100f7578063ae5ec2e914610120578063b819e0db1461014b578063f851a4401461017657610070565b8063278ecde1146100755780633104562b1461009e578063489fbc61146100ba575b600080fd5b34801561008157600080fd5b5061009c60048036038101906100979190610ad0565b6101a1565b005b6100b860048036038101906100b39190610ad0565b6103d8565b005b3480156100c657600080fd5b506100e160048036038101906100dc9190610ad0565b610679565b6040516100ee9190610b0c565b60405180910390f35b34801561010357600080fd5b5061011e60048036038101906101199190610ad0565b610691565b005b34801561012c57600080fd5b50610135610a16565b6040516101429190610ba6565b60405180910390f35b34801561015757600080fd5b50610160610a3c565b60405161016d9190610be2565b60405180910390f35b34801561018257600080fd5b5061018b610a62565b6040516101989190610c1e565b60405180910390f35b60008054906101000a900473ffffffffffffffffffffffffffffffffffffffff1673ffffffffffffffffffffffffffffffffffffffff163373ffffffffffffffffffffffffffffffffffffffff161461022f576040517f08c379a000000000000000000000000000000000000000000000000000000000815260040161022690610c96565b60405180910390fd5b6000600160009054906101000a900473ffffffffffffffffffffffffffffffffffffffff1673ffffffffffffffffffffffffffffffffffffffff1663c58343ef836040518263ffffffff1660e01b815260040161028c9190610b0c565b600060405180830381865afa1580156102a9573d6000803e3d6000fd5b505050506040513d6000823e3d601f19601f820116820180604052508101906102d29190610f43565b905060008160200151905060006003600085815260200190815260200160002054905060008111610338576040517f08c379a000000000000000000000000000000000000000000000000000000000815260040161032f90610fd8565b60405180910390fd5b600060036000868152602001908152602001600020819055508173ffffffffffffffffffffffffffffffffffffffff166108fc829081150290604051600060405180830381858888f19350505050158015610397573d6000803e3d6000fd5b50837feb34194328af37b8c74f604101f6595c7f17e9d638d063cd91f0c8d9987e1e0c83836040516103ca929190610ff8565b60405180910390a250505050565b6000600160009054906101000a900473ffffffffffffffffffffffffffffffffffffffff1673ffffffffffffffffffffffffffffffffffffffff1663c58343ef836040518263ffffffff1660e01b81526004016104359190610b0c565b600060405180830381865afa158015610452573d6000803e3d6000fd5b505050506040513d6000823e3d601f19601f8201168201806040525081019061047b9190610f43565b905060008160200151905060008260400151905060008360600151905060008460a0015190508373ffffffffffffffffffffffffffffffffffffffff163373ffffffffffffffffffffffffffffffffffffffff161461050f576040517f08c379a00000000000000000000000000000000000000000000000000000000081526004016105069061106d565b60405180910390fd5b600160038111156105235761052261108d565b5b8160038111156105365761053561108d565b5b14610576576040517f08c379a000000000000000000000000000000000000000000000000000000000815260040161056d90611108565b60405180910390fd5b60006003600088815260200190815260200160002054146105cc576040517f08c379a00000000000000000000000000000000000000000000000000000000081526004016105c390611174565b60405180910390fd5b600082846105da91906111c3565b905080341461061e576040517f08c379a000000000000000000000000000000000000000000000000000000000815260040161061590611251565b60405180910390fd5b346003600089815260200190815260200160002081905550867f173bf4ac0eaaaec87bb326448714d43b67677ad16372db4909bf169e27d172493334604051610668929190610ff8565b60405180910390a250505050505050565b60036020528060005260406000206000915090505481565b60008054906101000a900473ffffffffffffffffffffffffffffffffffffffff1673ffffffffffffffffffffffffffffffffffffffff163373ffffffffffffffffffffffffffffffffffffffff161461071f576040517f08c379a000000000000000000000000000000000000000000000000000000000815260040161071690610c96565b60405180910390fd5b600080600260009054906101000a900473ffffffffffffffffffffffffffffffffffffffff1673ffffffffffffffffffffffffffffffffffffffff16633d092b3d846040518263ffffffff1660e01b815260040161077d9190610b0c565b608060405180830381865afa15801561079a573d6000803e3d6000fd5b505050506040513d601f19601f820116820180604052508101906107be91906112a9565b93509350505080610804576040517f08c379a00000000000000000000000000000000000000000000000000000000081526004016107fb9061135c565b60405180910390fd5b6000600160009054906101000a900473ffffffffffffffffffffffffffffffffffffffff1673ffffffffffffffffffffffffffffffffffffffff1663c58343ef856040518263ffffffff1660e01b81526004016108619190610b0c565b600060405180830381865afa15801561087e573d6000803e3d6000fd5b505050506040513d6000823e3d601f19601f820116820180604052508101906108a79190610f43565b905060008160a001519050600260038111156108c6576108c561108d565b5b8160038111156108d9576108d861108d565b5b14610919576040517f08c379a0000000000000000000000000000000000000000000000000000000008152600401610910906113c8565b60405180910390fd5b60006003600087815260200190815260200160002054905060008111610974576040517f08c379a000000000000000000000000000000000000000000000000000000000815260040161096b90611434565b60405180910390fd5b600060036000888152602001908152602001600020819055508473ffffffffffffffffffffffffffffffffffffffff166108fc829081150290604051600060405180830381858888f193505050501580156109d3573d6000803e3d6000fd5b50857f13a5eb17c1560ae1e84822b45fddb26458480a29914a7f2fa1561ebef952d91f8683604051610a06929190610ff8565b60405180910390a2505050505050565b600260009054906101000a900473ffffffffffffffffffffffffffffffffffffffff1681565b600160009054906101000a900473ffffffffffffffffffffffffffffffffffffffff1681565b60008054906101000a900473ffffffffffffffffffffffffffffffffffffffff1681565b6000604051905090565b600080fd5b600080fd5b6000819050919050565b610aad81610a9a565b8114610ab857600080fd5b50565b600081359050610aca81610aa4565b92915050565b600060208284031215610ae657610ae5610a90565b5b6000610af484828501610abb565b91505092915050565b610b0681610a9a565b82525050565b6000602082019050610b216000830184610afd565b92915050565b600073ffffffffffffffffffffffffffffffffffffffff82169050919050565b6000819050919050565b6000610b6c610b67610b6284610b27565b610b47565b610b27565b9050919050565b6000610b7e82610b51565b9050919050565b6000610b9082610b73565b9050919050565b610ba081610b85565b82525050565b6000602082019050610bbb6000830184610b97565b92915050565b6000610bcc82610b73565b9050919050565b610bdc81610bc1565b82525050565b6000602082019050610bf76000830184610bd3565b92915050565b6000610c0882610b27565b9050919050565b610c1881610bfd565b82525050565b6000602082019050610c336000830184610c0f565b92915050565b600082825260208201905092915050565b7f6f6e6c792061646d696e20616c6c6f7765640000000000000000000000000000600082015250565b6000610c80601283610c39565b9150610c8b82610c4a565b602082019050919050565b60006020820190508181036000830152610caf81610c73565b9050919050565b600080fd5b6000601f19601f8301169050919050565b7f4e487b7100000000000000000000000000000000000000000000000000000000600052604160045260246000fd5b610d0482610cbb565b810181811067ffffffffffffffff82111715610d2357610d22610ccc565b5b80604052505050565b6000610d36610a86565b9050610d428282610cfb565b919050565b600080fd5b600081519050610d5b81610aa4565b92915050565b610d6a81610bfd565b8114610d7557600080fd5b50565b600081519050610d8781610d61565b92915050565b600080fd5b600080fd5b600067ffffffffffffffff821115610db257610db1610ccc565b5b610dbb82610cbb565b9050602081019050919050565b60005b83811015610de6578082015181840152602081019050610dcb565b60008484015250505050565b6000610e05610e0084610d97565b610d2c565b905082815260208101848484011115610e2157610e20610d92565b5b610e2c848285610dc8565b509392505050565b600082601f830112610e4957610e48610d8d565b5b8151610e59848260208601610df2565b91505092915050565b60048110610e6f57600080fd5b50565b600081519050610e8181610e62565b92915050565b600060c08284031215610e9d57610e9c610cb6565b5b610ea760c0610d2c565b90506000610eb784828501610d4c565b6000830152506020610ecb84828501610d78565b6020830152506040610edf84828501610d4c565b6040830152506060610ef384828501610d4c565b606083015250608082015167ffffffffffffffff811115610f1757610f16610d47565b5b610f2384828501610e34565b60808301525060a0610f3784828501610e72565b60a08301525092915050565b600060208284031215610f5957610f58610a90565b5b600082015167ffffffffffffffff811115610f7757610f76610a95565b5b610f8384828501610e87565b91505092915050565b7f6e6f2066756e6400000000000000000000000000000000000000000000000000600082015250565b6000610fc2600783610c39565b9150610fcd82610f8c565b602082019050919050565b60006020820190508181036000830152610ff181610fb5565b9050919050565b600060408201905061100d6000830185610c0f565b61101a6020830184610afd565b9392505050565b7f6f6e6c792072656369657665722063616e206465706f73697465000000000000600082015250565b6000611057601a83610c39565b915061106282611021565b602082019050919050565b600060208201905081810360008301526110868161104a565b9050919050565b7f4e487b7100000000000000000000000000000000000000000000000000000000600052602160045260246000fd5b7f6f6e6c79206163636570746564207265717565737420616c6c6f776564000000600082015250565b60006110f2601d83610c39565b91506110fd826110bc565b602082019050919050565b60006020820190508181036000830152611121816110e5565b9050919050565b7f616c7265616479206465706f7369746564000000000000000000000000000000600082015250565b600061115e601183610c39565b915061116982611128565b602082019050919050565b6000602082019050818103600083015261118d81611151565b9050919050565b7f4e487b7100000000000000000000000000000000000000000000000000000000600052601160045260246000fd5b60006111ce82610a9a565b91506111d983610a9a565b92508282026111e781610a9a565b915082820484148315176111fe576111fd611194565b5b5092915050565b7f696e636f7272656374207061796d656e7420616d6f756e740000000000000000600082015250565b600061123b601883610c39565b915061124682611205565b602082019050919050565b6000602082019050818103600083015261126a8161122e565b9050919050565b60008115159050919050565b61128681611271565b811461129157600080fd5b50565b6000815190506112a38161127d565b92915050565b600080600080608085870312156112c3576112c2610a90565b5b60006112d187828801610d4c565b94505060206112e287828801610d78565b93505060406112f387828801610d78565b925050606061130487828801611294565b91505092959194509250565b7f6d61746368696e67206e6f7420666f756e640000000000000000000000000000600082015250565b6000611346601283610c39565b915061135182611310565b602082019050919050565b6000602082019050818103600083015261137581611339565b9050919050565b7f6368617267696e67206e6f7420636f6d706c6574656400000000000000000000600082015250565b60006113b2601683610c39565b91506113bd8261137c565b602082019050919050565b600060208201905081810360008301526113e1816113a5565b9050919050565b7f6e6f2066756e6473000000000000000000000000000000000000000000000000600082015250565b600061141e600883610c39565b9150611429826113e8565b602082019050919050565b6000602082019050818103600083015261144d81611411565b905091905056fea26469706673582212207ffc745f76a17726e358cccb5f0ceefc6861cb0bbfa7e62f5576c7546a4f8e0064736f6c634300081c0033",
  "linkReferences": {},
  "deployedLinkReferences": {}
}