{
  "_format": "hh-sol-artifact-1",
  "contractName": "EscrowPayment",
  "sourceName": "contracts/EscrowPayment.sol",
  "abi": [
    {
      "inputs": [
        {
          "internalType": "address",
          "name": "_charging",
          "type": "address"
        },
        {
          "internalType": "address",
          "name": "_matching",
          "type": "address"
        },
        {
          "internalType": "address",
          "name": "_platform",
          "type": "address"
        }
      ],
      "stateMutability": "nonpayable",
      "type": "constructor"
    },
    {
      "anonymous": false,
      "inputs": [
        {
          "indexed": true,
          "internalType": "uint256",
          "name": "requestid",
          "type": "uint256"
        },
        {
          "indexed": false,
          "internalType": "address",
          "name": "reciever",
          "type": "address"
        },
        {
          "indexed": false,
          "internalType": "uint256",
          "name": "amount",
          "type": "uint256"
        }
      ],
      "name": "Paymentdeposited",
      "type": "event"
    },
    {
      "anonymous": false,
      "inputs": [
        {
          "indexed": true,
          "internalType": "uint256",
          "name": "requestid",
          "type": "uint256"
        },
        {
          "indexed": false,
          "internalType": "address",
          "name": "donor",
          "type": "address"
        },
        {
          "indexed": false,
          "internalType": "uint256",
          "name": "amount",
          "type": "uint256"
        }
      ],
      "name": "Paymentrelease",
      "type": "event"
    },
    {
      "anonymous": false,
      "inputs": [
        {
          "indexed": true,
          "internalType": "uint256",
          "name": "requestid",
          "type": "uint256"
        },
        {
          "indexed": false,
          "internalType": "address",
          "name": "reciever",
          "type": "address"
        },
        {
          "indexed": false,
          "internalType": "uint256",
          "name": "amount",
          "type": "uint256"
        }
      ],
      "name": "refundpayment",
      "type": "event"
    },
    {
      "inputs": [
        {
          "internalType": "uint256",
          "name": "",
          "type": "uint256"
        }
      ],
      "name": "Escrowbalance",
      "outputs": [
        {
          "internalType": "uint256",
          "name": "",
          "type": "uint256"
        }
      ],
      "stateMutability": "view",
      "type": "function"
    },
    {
      "inputs": [],
      "name": "admin",
      "outputs": [
        {
          "internalType": "address",
          "name": "",
          "type": "address"
        }
      ],
      "stateMutability": "view",
      "type": "function"
    },
    {
      "inputs": [],
      "name": "charging",
      "outputs": [
        {
          "internalType": "contract IChargingRequest",
          "name": "",
          "type": "address"
        }
      ],
      "stateMutability": "view",
      "type": "function"
    },
    {
      "inputs": [
        {
          "internalType": "uint256",
          "name": "_requestedid",
          "type": "uint256"
        }
      ],
      "name": "deposite",
      "outputs": [],
      "stateMutability": "payable",
      "type": "function"
    },
    {
      "inputs": [],
      "name": "matching",
      "outputs": [
        {
          "internalType": "contract IMatchingContract",
          "name": "",
          "type": "address"
        }
      ],
      "stateMutability": "view",
      "type": "function"
    },
    {
      "inputs": [
        {
          "internalType": "bool",
          "name": "status",
          "type": "bool"
        }
      ],
      "name": "pauseEscrow",
      "outputs": [],
      "stateMutability": "nonpayable",
      "type": "function"
    },
    {
      "inputs": [],
      "name": "paused",
      "outputs": [
        {
          "internalType": "bool",
          "name": "",
          "type": "bool"
        }
      ],
      "stateMutability": "view",
      "type": "function"
    },
    {
      "inputs": [
        {
          "internalType": "uint256",
          "name": "_requestedid",
          "type": "uint256"
        }
      ],
      "name": "paymentrelease",
      "outputs": [],
      "stateMutability": "nonpayable",
      "type": "function"
    },
    {
      "inputs": [],
      "name": "platform",
      "outputs": [
        {
          "internalType": "contract IPlatformFee",
          "name": "",
          "type": "address"
        }
      ],
      "stateMutability": "view",
      "type": "function"
    },
    {
      "inputs": [
        {
          "internalType": "uint256",
          "name": "_requestedid",
          "type": "uint256"
        }
      ],
      "name": "refund",
      "outputs": [],
      "stateMutability": "nonpayable",
      "type": "function"
    }
  ],
  "bytecode": "0x608060405234801561001057600080fd5b50604051611a48380380611a48833981810160405281019061003291906101a0565b336000806101000a81548173ffffffffffffffffffffffffffffffffffffffff021916908373ffffffffffffffffffffffffffffffffffffffff16021790555082600160006101000a81548173ffffffffffffffffffffffffffffffffffffffff021916908373ffffffffffffffffffffffffffffffffffffffff16021790555081600260006101000a81548173ffffffffffffffffffffffffffffffffffffffff021916908373ffffffffffffffffffffffffffffffffffffffff16021790555080600360006101000a81548173ffffffffffffffffffffffffffffffffffffffff021916908373ffffffffffffffffffffffffffffffffffffffff1602179055505050506101f3565b600080fd5b600073ffffffffffffffffffffffffffffffffffffffff82169050919050565b600061016d82610142565b9050919050565b61017d81610162565b811461018857600080fd5b50565b60008151905061019a81610174565b92915050565b6000806000606084860312156101b9576101b861013d565b5b60006101c78682870161018b565b93505060206101d88682870161018b565b92505060406101e98682870161018b565b9150509250925092565b611846806102026000396000f3fe6080604052600436106100915760003560e01c80635c975abb116100595780635c975abb1461016c578063ae5ec2e914610197578063b819e0db146101c2578063dbdbad46146101ed578063f851a4401461021657610091565b8063278ecde1146100965780633104562b146100bf578063489fbc61146100db5780634bde38c81461011857806355c4550314610143575b600080fd5b3480156100a257600080fd5b506100bd60048036038101906100b89190610d83565b610241565b005b6100d960048036038101906100d49190610d83565b610478565b005b3480156100e757600080fd5b5061010260048036038101906100fd9190610d83565b610719565b60405161010f9190610dbf565b60405180910390f35b34801561012457600080fd5b5061012d610731565b60405161013a9190610e59565b60405180910390f35b34801561014f57600080fd5b5061016a60048036038101906101659190610d83565b610757565b005b34801561017857600080fd5b50610181610c0b565b60405161018e9190610e8f565b60405180910390f35b3480156101a357600080fd5b506101ac610c1e565b6040516101b99190610ecb565b60405180910390f35b3480156101ce57600080fd5b506101d7610c44565b6040516101e49190610f07565b60405180910390f35b3480156101f957600080fd5b50610214600480360381019061020f9190610f4e565b610c6a565b005b34801561022257600080fd5b5061022b610d15565b6040516102389190610f9c565b60405180910390f35b60008054906101000a900473ffffffffffffffffffffffffffffffffffffffff1673ffffffffffffffffffffffffffffffffffffffff163373ffffffffffffffffffffffffffffffffffffffff16146102cf576040517f08c379a00000000000000000000000000000000000000000000000000000000081526004016102c690611014565b60405180910390fd5b6000600160009054906101000a900473ffffffffffffffffffffffffffffffffffffffff1673ffffffffffffffffffffffffffffffffffffffff1663c58343ef836040518263ffffffff1660e01b815260040161032c9190610dbf565b600060405180830381865afa158015610349573d6000803e3d6000fd5b505050506040513d6000823e3d601f19601f8201168201806040525081019061037291906112c1565b9050600081602001519050600060046000858152602001908152602001600020549050600081116103d8576040517f08c379a00000000000000000000000000000000000000000000000000000000081526004016103cf90611356565b60405180910390fd5b600060046000868152602001908152602001600020819055508173ffffffffffffffffffffffffffffffffffffffff166108fc829081150290604051600060405180830381858888f19350505050158015610437573d6000803e3d6000fd5b50837feb34194328af37b8c74f604101f6595c7f17e9d638d063cd91f0c8d9987e1e0c838360405161046a929190611376565b60405180910390a250505050565b6000600160009054906101000a900473ffffffffffffffffffffffffffffffffffffffff1673ffffffffffffffffffffffffffffffffffffffff1663c58343ef836040518263ffffffff1660e01b81526004016104d59190610dbf565b600060405180830381865afa1580156104f2573d6000803e3d6000fd5b505050506040513d6000823e3d601f19601f8201168201806040525081019061051b91906112c1565b905060008160200151905060008260400151905060008360600151905060008460a0015190508373ffffffffffffffffffffffffffffffffffffffff163373ffffffffffffffffffffffffffffffffffffffff16146105af576040517f08c379a00000000000000000000000000000000000000000000000000000000081526004016105a6906113eb565b60405180910390fd5b600160038111156105c3576105c261140b565b5b8160038111156105d6576105d561140b565b5b14610616576040517f08c379a000000000000000000000000000000000000000000000000000000000815260040161060d90611486565b60405180910390fd5b600060046000888152602001908152602001600020541461066c576040517f08c379a0000000000000000000000000000000000000000000000000000000008152600401610663906114f2565b60405180910390fd5b6000828461067a9190611541565b90508034146106be576040517f08c379a00000000000000000000000000000000000000000000000000000000081526004016106b5906115cf565b60405180910390fd5b346004600089815260200190815260200160002081905550867f173bf4ac0eaaaec87bb326448714d43b67677ad16372db4909bf169e27d172493334604051610708929190611376565b60405180910390a250505050505050565b60046020528060005260406000206000915090505481565b600360009054906101000a900473ffffffffffffffffffffffffffffffffffffffff1681565b60008054906101000a900473ffffffffffffffffffffffffffffffffffffffff1673ffffffffffffffffffffffffffffffffffffffff163373ffffffffffffffffffffffffffffffffffffffff16146107e5576040517f08c379a00000000000000000000000000000000000000000000000000000000081526004016107dc90611014565b60405180910390fd5b600080600260009054906101000a900473ffffffffffffffffffffffffffffffffffffffff1673ffffffffffffffffffffffffffffffffffffffff16633d092b3d846040518263ffffffff1660e01b81526004016108439190610dbf565b608060405180830381865afa158015610860573d6000803e3d6000fd5b505050506040513d601f19601f820116820180604052508101906108849190611604565b935093505050806108ca576040517f08c379a00000000000000000000000000000000000000000000000000000000081526004016108c1906116b7565b60405180910390fd5b6000600160009054906101000a900473ffffffffffffffffffffffffffffffffffffffff1673ffffffffffffffffffffffffffffffffffffffff1663c58343ef856040518263ffffffff1660e01b81526004016109279190610dbf565b600060405180830381865afa158015610944573d6000803e3d6000fd5b505050506040513d6000823e3d601f19601f8201168201806040525081019061096d91906112c1565b9050600260038111156109835761098261140b565b5b8160a00151600381111561099a5761099961140b565b5b146109da576040517f08c379a00000000000000000000000000000000000000000000000000000000081526004016109d190611723565b60405180910390fd5b60006004600086815260200190815260200160002054905060008111610a35576040517f08c379a0000000000000000000000000000000000000000000000000000000008152600401610a2c9061178f565b60405180910390fd5b600060046000878152602001908152602001600020819055506000600360009054906101000a900473ffffffffffffffffffffffffffffffffffffffff1673ffffffffffffffffffffffffffffffffffffffff166399a5d747836040518263ffffffff1660e01b8152600401610aab9190610dbf565b602060405180830381865afa158015610ac8573d6000803e3d6000fd5b505050506040513d601f19601f82011682018060405250810190610aec91906117af565b905060008183610afc91906117dc565b9050600360009054906101000a900473ffffffffffffffffffffffffffffffffffffffff1673ffffffffffffffffffffffffffffffffffffffff1663d4d5d32a836040518263ffffffff1660e01b81526004016000604051808303818588803b158015610b6857600080fd5b505af1158015610b7c573d6000803e3d6000fd5b50505050508573ffffffffffffffffffffffffffffffffffffffff166108fc829081150290604051600060405180830381858888f19350505050158015610bc7573d6000803e3d6000fd5b50867f13a5eb17c1560ae1e84822b45fddb26458480a29914a7f2fa1561ebef952d91f8783604051610bfa929190611376565b60405180910390a250505050505050565b600560009054906101000a900460ff1681565b600260009054906101000a900473ffffffffffffffffffffffffffffffffffffffff1681565b600160009054906101000a900473ffffffffffffffffffffffffffffffffffffffff1681565b60008054906101000a900473ffffffffffffffffffffffffffffffffffffffff1673ffffffffffffffffffffffffffffffffffffffff163373ffffffffffffffffffffffffffffffffffffffff1614610cf8576040517f08c379a0000000000000000000000000000000000000000000000000000000008152600401610cef90611014565b60405180910390fd5b80600560006101000a81548160ff02191690831515021790555050565b60008054906101000a900473ffffffffffffffffffffffffffffffffffffffff1681565b6000604051905090565b600080fd5b600080fd5b6000819050919050565b610d6081610d4d565b8114610d6b57600080fd5b50565b600081359050610d7d81610d57565b92915050565b600060208284031215610d9957610d98610d43565b5b6000610da784828501610d6e565b91505092915050565b610db981610d4d565b82525050565b6000602082019050610dd46000830184610db0565b92915050565b600073ffffffffffffffffffffffffffffffffffffffff82169050919050565b6000819050919050565b6000610e1f610e1a610e1584610dda565b610dfa565b610dda565b9050919050565b6000610e3182610e04565b9050919050565b6000610e4382610e26565b9050919050565b610e5381610e38565b82525050565b6000602082019050610e6e6000830184610e4a565b92915050565b60008115159050919050565b610e8981610e74565b82525050565b6000602082019050610ea46000830184610e80565b92915050565b6000610eb582610e26565b9050919050565b610ec581610eaa565b82525050565b6000602082019050610ee06000830184610ebc565b92915050565b6000610ef182610e26565b9050919050565b610f0181610ee6565b82525050565b6000602082019050610f1c6000830184610ef8565b92915050565b610f2b81610e74565b8114610f3657600080fd5b50565b600081359050610f4881610f22565b92915050565b600060208284031215610f6457610f63610d43565b5b6000610f7284828501610f39565b91505092915050565b6000610f8682610dda565b9050919050565b610f9681610f7b565b82525050565b6000602082019050610fb16000830184610f8d565b92915050565b600082825260208201905092915050565b7f6f6e6c792061646d696e20616c6c6f7765640000000000000000000000000000600082015250565b6000610ffe601283610fb7565b915061100982610fc8565b602082019050919050565b6000602082019050818103600083015261102d81610ff1565b9050919050565b600080fd5b6000601f19601f8301169050919050565b7f4e487b7100000000000000000000000000000000000000000000000000000000600052604160045260246000fd5b61108282611039565b810181811067ffffffffffffffff821117156110a1576110a061104a565b5b80604052505050565b60006110b4610d39565b90506110c08282611079565b919050565b600080fd5b6000815190506110d981610d57565b92915050565b6110e881610f7b565b81146110f357600080fd5b50565b600081519050611105816110df565b92915050565b600080fd5b600080fd5b600067ffffffffffffffff8211156111305761112f61104a565b5b61113982611039565b9050602081019050919050565b60005b83811015611164578082015181840152602081019050611149565b60008484015250505050565b600061118361117e84611115565b6110aa565b90508281526020810184848401111561119f5761119e611110565b5b6111aa848285611146565b509392505050565b600082601f8301126111c7576111c661110b565b5b81516111d7848260208601611170565b91505092915050565b600481106111ed57600080fd5b50565b6000815190506111ff816111e0565b92915050565b600060c0828403121561121b5761121a611034565b5b61122560c06110aa565b90506000611235848285016110ca565b6000830152506020611249848285016110f6565b602083015250604061125d848285016110ca565b6040830152506060611271848285016110ca565b606083015250608082015167ffffffffffffffff811115611295576112946110c5565b5b6112a1848285016111b2565b60808301525060a06112b5848285016111f0565b60a08301525092915050565b6000602082840312156112d7576112d6610d43565b5b600082015167ffffffffffffffff8111156112f5576112f4610d48565b5b61130184828501611205565b91505092915050565b7f6e6f2066756e6400000000000000000000000000000000000000000000000000600082015250565b6000611340600783610fb7565b915061134b8261130a565b602082019050919050565b6000602082019050818103600083015261136f81611333565b9050919050565b600060408201905061138b6000830185610f8d565b6113986020830184610db0565b9392505050565b7f6f6e6c792072656369657665722063616e206465706f73697400000000000000600082015250565b60006113d5601983610fb7565b91506113e08261139f565b602082019050919050565b60006020820190508181036000830152611404816113c8565b9050919050565b7f4e487b7100000000000000000000000000000000000000000000000000000000600052602160045260246000fd5b7f72657175657374206e6f74206163636570746564000000000000000000000000600082015250565b6000611470601483610fb7565b915061147b8261143a565b602082019050919050565b6000602082019050818103600083015261149f81611463565b9050919050565b7f616c7265616479206465706f7369746564000000000000000000000000000000600082015250565b60006114dc601183610fb7565b91506114e7826114a6565b602082019050919050565b6000602082019050818103600083015261150b816114cf565b9050919050565b7f4e487b7100000000000000000000000000000000000000000000000000000000600052601160045260246000fd5b600061154c82610d4d565b915061155783610d4d565b925082820261156581610d4d565b9150828204841483151761157c5761157b611512565b5b5092915050565b7f696e636f7272656374207061796d656e7420616d6f756e740000000000000000600082015250565b60006115b9601883610fb7565b91506115c482611583565b602082019050919050565b600060208201905081810360008301526115e8816115ac565b9050919050565b6000815190506115fe81610f22565b92915050565b6000806000806080858703121561161e5761161d610d43565b5b600061162c878288016110ca565b945050602061163d878288016110f6565b935050604061164e878288016110f6565b925050606061165f878288016115ef565b91505092959194509250565b7f6d61746368696e67206e6f7420666f756e640000000000000000000000000000600082015250565b60006116a1601283610fb7565b91506116ac8261166b565b602082019050919050565b600060208201905081810360008301526116d081611694565b9050919050565b7f6368617267696e67206e6f7420636f6d706c6574656400000000000000000000600082015250565b600061170d601683610fb7565b9150611718826116d7565b602082019050919050565b6000602082019050818103600083015261173c81611700565b9050919050565b7f6e6f2066756e6473000000000000000000000000000000000000000000000000600082015250565b6000611779600883610fb7565b915061178482611743565b602082019050919050565b600060208201905081810360008301526117a88161176c565b9050919050565b6000602082840312156117c5576117c4610d43565b5b60006117d3848285016110ca565b91505092915050565b60006117e782610d4d565b91506117f283610d4d565b925082820390508181111561180a57611809611512565b5b9291505056fea2646970667358221220fe284479b3ca22e20b631b2dcb5172a82b8fb6f60f049ddce23ac71d418f013464736f6c634300081c0033",
  "linkReferences": {},
  "deployedLinkReferences": {}
}